:0400000081EF00F09C
:100008003F483F483F483F4840003F4840003F483E
:100018003F483F483F483F483F483F483F483F48A0
:100028003F484000400040003F483F483F483F4865
:100038003F483F483F483F483F483F483F483F4880
:100048003F483F483F483F48400040003F483F48FE
:100058003F483F483F4840003F483F483F483F48A7
:100068003F483F483F483F483F483F483F483F4850
:100078003F483F483F483F4840003F483F483F4887
:100088003F483F483F483F483F483F483F483F4830
:100098003F483F483F483F4840003F4840004000F5
:1000A8003F483F483F483F483F483F483F483F4810
:1000B8003F483F483F483F483F483F483F483F4800
:1000C8003F483F483F483F483F483F483F483F48F0
:1000D8003F483F483F483F483F483F483F483F48E0
:1000E80040003F483F483F48400040004000400033
:0E00F8003F483F483F483F48FF00E5EF8FF08C
:109FE00000000040000200FFFFFFFFFFFFFFFFFF38
:109FF000FFFFFFFFFFFFFFFFFFFFFFFFFFFFFFFF71
:10A00000FFFFFFFFFFFFFFFFFFFFFFFFFFFFFFFF60
:10A01000FFFFFFFFFFFFFFFFFFFFFFFFFFFFFFFF50
:10A02000FFFFFFFFFFFFFFFFFFFFFFFFFFFFFFFF40
:10A03000FFFFFFFFFFFFFFFFFFFFFFFFFFFFFFFF30
:10A04000FFFFFFFFFFFFFFFFFFFFFFFFFFFFFFFF20
:10A05000FFFFFFFFFFFFFFFFFFFFFFFFFFFFFFFF10
:10A06000FFFFFFFFFFFFFFFFFFFFFFFFFFFFFFFF00
:10A07000FFFFFFFFFFFFFFFFFFFFFFFFFFFFFFFFF0
:10A08000FFFFFFFFFFFFFFFFFFFFFFFFFFFFFFFFE0
:10A09000FFFFFFFFFFFFFFFFFFFFFFFFFFFFFFFFD0
:10A0A000FFFFFFFFFFFFFFFFFFFFFFFFFFFFFFFFC0
:10A0B000FFFFFFFFFFFFFFFFFFFFFFFFFFFFFFFFB0
:10A0C000FFFFFFFFFFFFFFFFFFFFFFFFFFFFFFFFA0
:10A0D000FFFFFFFFFFFFFFFFFFFFFFFFFFFFFFFF90
:10A0E000FF00000000400007CE400007E2400007EC
:10A0F000F6400007CC400007CC400007CCFFFFFF34
:10A10000FFFFFFFFFFFFFFFFFFFFFFFFFFFFFFFF5F
:10A11000FFFFFFFFFFFFFFFFFFFFFFFFFFFFFFFF4F
:10A12000FFFFFFFFFFFFFFFFFFFFFFFFFFFFFFFF3F
:10A13000FFFFFFFFFFFFFFFFFFFFFFFFFFFFFFFF2F
:10A14000FFFFFFFFFFFFFFFFFFFFFFFFFFFFFFFF1F
:10A15000FFFFFFFFFFFFFFFFFFFFFFFFFFFFFFFF0F
:10A16000FFFFFFFFFFFFFFFFFFFFFFFFFFFFFFFFFF
:10A17000FFFFFFFFFFFFFFFFFFFFFFFFFFFFFFFFEF
:10A18000FFFFFFFFFFFFFFFFFFFFFFFFFFFFFFFFDF
:10A19000FFFFFFFFFFFFFFFFFFFFFFFFFFFFFFFFCF
:10A1A000FFFFFFFFFFFFFFFFFFFFFFFFFFFFFFFFBF
:10A1B000FFFFFFFFFFFFFFFFFFFFFFFFFFFFFFFFAF
:10A1C000FFFFFFFFFFFFFFFFFFFFFFFFFFFFFFFF9F
:10A1D000FFFFFFFFFFFFFFFFFFFFFFFFFFFFFFFF8F
:10A1E000FF760F8F80760001007D0DDB7D7600808D
:10A1F000006F008F986F008F9C6F008F9A8D08768C
:10A20000018F9E210200132F10A910A910F2844D76
:10A21000058FBC8F004D058FBE8F804D058FC2808E
:10A220000076010852DDD07601086EDDD3DD997627
:10A23000018F80DD6FDD698C84E6F60A0844445E98
:10A240000602A20A0847475E0603880A0853535EBF
:10A250000603BC0A084C4C5E06042A0A0849495EFB
:10A260000604EE0A084F4F5E0605700A0842425E79
:10A270000610000A0852525E0606007601088BDDC1
:10A28000FDE8D2A910DD98DD898CA4EE0ADD9C8C56
:10A2900084EEF461048F98A145010500805E0802F8
:10A2A000ECA13420180A082C2CE6078C84EEE6A1D9
:10A2B00045010500805E0802ECA910DDB3DDA4DDD8
:10A2C000B58CA4E6DB0C14EED9A135A950A1460744
:10A2D00006FFF08C28DFF1DBD78C84EE070A020240
:10A2E00002E7F96F058F985E0802466F068F98DBCC
:10A2F000EB5E080246A161DE3276010893DE3C7611
:10A30000018F80CA10DFEAFA0276010896DE4476F1
:10A31000018F80CA102018A9100A082020E7050A1A
:10A32000087F7FEF02DBF9E802C82EDBFCFA0D5E46
:10A33000080712C820DC018C24EE0B8B46E608C807
:10A34000202E18DC08C820DC0AA960A9109E08C2CB
:10A35000010A020101EEF420682E18DE61A960A94D
:10A36000108B56EE01C2029E08A910DE0BDDFCDE4A
:10A370000D0C145E0E029A8CA4E6026F038FC2616C
:10A380000F8FBE61008FBC7D0F53F08FC253F08FD3
:10A39000C00DF900005C01000E8F9E7B00A910DE4D
:10A3A00025DE168CA4E6026F038F9ADE2B8C845E6A
:10A3B0000E029A61068F9AA161DE9376010896DEFD
:10A3C0009D2068DE95C820DC4ADE6776018F80DE3E
:10A3D0003D8C84EE04A9606F068F9AE8ED0A082D83
:10A3E0002DEE04AB606F068F9AE8E60A082E2EEE7B
:10A3F000046F068F9A5E080246DE428CA45E060257
:10A400009A2E6BA9606F068F9AE8D6A910DE5CDEE3
:10A410004DDE5E8C845E0E029A8CA4EE018D38DCDB
:10A4200083DE5F0A085353E62D0A083A3AE6080A23
:10A43000080D0DE6F50A080A0AE6F2DC91E8F8DEF6
:10A44000C2A082A08ADEC5A0818082DEC8A08980E9
:10A45000828131DECCA08C80828CA4E607DED180A4
:10A46000828CC4EE022E18A910FA07DED88082EE84
:10A47000048CC4E6E35E08024676010871DEFC5EE9
:10A48000080246DCB5A08CDEE6A08AA082DEE9A048
:10A49000818082DEECA08980828131020A0303E69A
:10A4A00008DEF380820A0C3131EE022E18A910FA70
:10A4B00008DEFB80820A02FFFFEE050A0C39395ED6
:10A4C000060246E8BB7601087EDF225E0802468D62
:10A4D00058A9102018DEB90A085353EE03050500E9
:10A4E00002E8F70A085757EE0305050004E8F1DE15
:10A4F000CDDEBE8CA45E06029ADED28C845E0E0295
:10A500009A6151052C1F10DF0B5E080246053405C9
:10A510003A055205583C385E0806BA4D058F803A18
:10A52000856F038F824D058F849E085F008F805E4C
:10A530000806BA3D315E0806B44D058F803B156FA5
:10A54000038F824D058F849E085F008F805E080612
:10A55000B48CD8A9102018DEFA0A085353EE03046D
:10A560000D0202E8F70A085757EE03040D0404E849
:10A57000F1DF0EDEFF8CA45E06029AA134DF140A1E
:10A58000082C2C5E0E029AA910DF1ADF0B8CA45E39
:10A5900006029ADF1F8C845E0E029A615105C41F69
:10A5A000105E08024605CC05D005E605EA3E4B9E46
:10A5B000084D058F803AB76F048F824D058F849EBA
:10A5C000085F008F809E083F439E084D058F803BAB
:10A5D000376F048F824D058F849E085F008F809EA9
:10A5E00008A910DF47DF418C84EE03DFC25E08025A
:10A5F000467604094C4A480000E6064C440001E651
:10A600003201040006E8F7604D00010A0D0F0FEE5D
:10A610000661440002A9102018DF5BE8EC8CD4E648
:10A620002261410004DFD0C83DDD7B6144000206A9
:10A630000D07070A0D0101EE032048DFD1E80221D2
:10A6400041DFD7C820DD89DFA676018F80DF7CDF80
:10A650006D8CA4E6060A0D0101EE022E4BE8012FD7
:10A66000435E0802465E08029A760208D221218DD6
:10A6700014E608DFF7612100022111DFF401020076
:10A6800004E8F55E08071220188C84E603DDADA906
:10A6900010E8FA9E08A018DFFFA09893F0B281009E
:10A6A000FCDFFF97F006080F0F000830300A083A69
:10A6B0003A5E070B54000807075E080B548C88DFCE
:10A6C000FEB281000493F1A089DDD8DFB40A08301E
:10A6D00030E70E0A083A3AE7080A084141E7080A53
:10A6E000084747EF050208070702083030849897AB
:10A6F000F19E08C80DDDE1C80A5E080B5476018F93
:10A70000808CA8DDF50A080D0DE6220A080A0AE683
:10A710001F0A080808E6110A087F7FE60E0A0820CB
:10A7200020E7F00A088080EFED0A0A1717EFEA2EFB
:10A7300018DDFFA910A8A0E8E58CA4E6E3AB10AAF9
:10A74000A0C808DE08C820DE0AC808DE0CE8DA0C5B
:10A750001500005E08071220180A082020EE02A942
:10A7600010E8FA9E080A086161E7050A087B7BEF9A
:10A77000020008E0E09E088CA88D382018D00D0A51
:10A78000083030E7130A083A3AE7080A084141E777
:10A790000D0A084747EF0A0208070702083030B3DE
:10A7A000390004848BA910A8A0E8E89E087B005C0F
:10A7B00009000E8F9E7601089ACA0197F06F008FEC
:10A7C000C4E8175C09000E8F9E760108B4CA019791
:10A7D000F06F008FC4E80D5C09000E8F9E760108B3
:10A7E000CB8CA897F06F008FC40A08FFFFE601E842
:10A7F0001C57F08FC097F0030000026F008FC26FEC
:10A800000F8FBE7D076F008FBCD0C28CA4E609C835
:10A8100020DE6FC828DE7161018FC4D0C4C829DE74
:10A8200076D098D0DE5E08024693F05C01000E8F71
:10A830009E7B000D0A556E6976657273616C204DC2
:10A840006F6E69746F72205A383030300D0A005DB7
:10A8500020004572726F7220696865780D0A0045A4
:10A8600072726F7220737265630D0A004572726FA7
:10A87000720D0A00203A00203A2000556E696D7072
:10A880006C656D656E74656420496E737472756372
:10A8900074696F6E0050726976696C6567656420D3
:10A8A000496E737472756374696F6E00427265618C
:10A8B0006B00FF09228F9E09478FA009478FA209CD
:10A8C000478FA409498FA609478FA809478FAA096E
:10A8D000478FAC092A8FC009318FC209368FAE0964
:10A8E000478FB009478FB209478FB409498FB6091E
:10A8F000478FB809478FBA09478FBC09408FBE0000
:10A9000000000052302D5237203D00202046435792
:10A910003D002050433D000D0A52382D5231353D47
:10A920000020205353503D002C002C2000460F09DE
:10A930006A0000500F09820000520F098E00005378
:10A940000F0A780000000000000000430F097600A5
:10A950000000000000000057028FC00A90000000B5
:10A9600000000043028FC20A940000000000003083
:10A97000028F9E0A97310F09DC000032028FA20A73
:10A980009D33028FA40AA034028FA60AA335028F3A
:10A99000A80AA636028FAA0AA937028FAC0AAC38D9
:10A9A000028FAE0AAF39028FB00AB2480F0A0C000C
:10A9B000004C0F0A42000000000000000000028F5F
:10A9C000A00A9A30028FB20AB531028FB40AB932A6
:10A9D000028FB60ABD33028FB80AC134028FBA0A99
:10A9E000C535028FBC0AC900000000000030018F8D
:10A9F0009E0ACD31018FA00AD132018FA20AD53330
:10AA0000018FA40AD934018FA60ADD35018FA80A67
:10AA1000E136018FAA0AE537018FAC0AE900000090
:10AA200000000030018F9F0AED31018FA10AF13241
:10AA3000018FA30AF533018FA50AF934018FA70A04
:10AA4000FD35018FA90B0136018FAB0B0537018F47
:10AA5000AD0B09000000000000530F0A8400000045
:10AA6000000000000050028FBE0B0D00000000002F
:10AA700000464357005043005230005231005232DA
:10AA80000052330052340052350052360052370023
:10AA900052380052390052313000523131005231B7
:10AAA00032005231330052313400523135005248B5
:10AAB0003000524831005248320052483300524868
:10AAC0003400524835005248360052483700524C44
:10AAD0003000524C3100524C3200524C3300524C38
:10AAE0003400524C3500524C3600524C3700535310
:10AAF0005000FF2101000576020B24210300153AC6
:10AB00002203109E080009C0044403C005E20B5054
:10AB10000C0B0D000E0303C105EAFF3A0400050605
:10AB2000000101E6FB3A8400079E083A840005060E
:10AB30000801019E083A04000506000404E6FB3AF9
:10AB40008600079E08FFFFFFFFFFFFFFFFFFFFFFDD
:10AB5000FFFFFFFFFFFFFFFFFFFFFFFFFFFFFFFF05
:10AB6000FFFFFFFFFFFFFFFFFFFFFFFFFFFFFFFFF5
:10AB7000FFFFFFFFFFFFFFFFFFFFFFFFFFFFFFFFE5
:10AB8000FFFFFFFFFFFFFFFFFFFFFFFFFFFFFFFFD5
:10AFE000FF7C00210F80ED5E08105C2101000576DA
:10AFF00002101C210300153A2203109E080009C00C
:10B00000044403C005E20B500C0B0D000E0303C1FA
:10B0100005EAFF3A84000506080101E6FB3A040050
:10B02000079E083A040005060001019E083A8400C4
:10B030000506080404E6FB3A0600079E085E0810B1
:10B04000645E0811165E08106C1D3E29DE21038027
:10B0500046A13F5E083E005F00100A2102139AC11C
:10B060007D2103804620202E30A930A920AA105E21
:10B070000E1084A13F5F0016C85F0020706E008133
:10B08000096E00815C210381C0A930A03084B08D9D
:10B09000835E0610C42030A0018C002E300A302EB2
:10B0A000315E0610A8AB31210281BFA13083205E42
:10B0B0000711222102FFCE6F03810E81236F0380CF
:10B0C000BA5F00168E610380BA2102FFEF8123214F
:10B0D00002815CA0B082A0A00BA030B620A0039398
:10B0E000F32103113D5F002BC097F35F003702216E
:10B0F00003112E5F002BC0210F80C65F0016C85EB3
:10B10000081520210311805F002BC05E08112A2042
:10B11000427974657320667265650D0A00005A38BD
:10B1200030204261736564205A3830303220424109
:10B130005349432056657220342E37620D0A436FFF
:10B14000707972696768742028432920313937384B
:10B15000206279204D6963726F736F66740D0A0007
:10B16000004D656D6F72792073697A65206E6F741A
:10B1700020656E6F7567680D0A5468652073797372
:10B1800074656D2069732073746F707065642E0D23
:10B190000A0000342635A0344A804A29A82F96296F
:10B1A000EE38D23A36321E395C3AF43AFC3B843BF4
:10B1B000A230163C2E80AE2E342AF62F362E502E7C
:10B1C0006E3C6C3D642E862ED62EE6C54E44C64F90
:10B1D00052CE455854C4415441C94E505554C449A7
:10B1E0004DD2454144CC4554C74F544FD2554EC91A
:10B1F00046D24553544F5245C74F535542D24554FA
:10B2000055524ED2454DD3544F50CF5554CF4ECEBC
:10B21000554C4CD7414954C44546D04F4B45C44F7B
:10B220004B45D3435245454ECC494E4553C34C53F1
:10B23000D749445448CD4F4E49544F52D34554D228
:10B2400045534554D052494E54C34F4E54CC4953A4
:10B2500054C34C454152C34C4F4144C353415645DE
:10B26000CE4557D4414228D44FC64ED3504328D45C
:10B2700048454ECE4F54D3544550ABADAAAFDEC176
:10B280004E44CF52BEBDBCD3474EC94E54C14253AB
:10B29000D55352C65245C94E50D04F53D35152D2B6
:10B2A0004E44CC4F47C55850C34F53D3494ED44159
:10B2B0004EC1544ED045454BC445454BD04F494EE9
:10B2C00054CC454ED3545224D6414CC15343C34869
:10B2D0005224C8455824C2494E24CC45465424D251
:10B2E0004947485424CD49442480FF1C941AD6224F
:10B2F000DA1EB2213A26C421881EDE1E3C1E121F11
:10B300009E1C281E221E721EB61C8A2FA61F6E1C93
:10B31000FE2FAE29FC30203C441EB63C1C3C0A3CAF
:10B32000103E1A80B280B61FD21CE019E81DA81E7C
:10B33000B61EB6168C790036DA7900304C7C0032B5
:10B34000807C00330C7F0038DE5000258A460025C3
:10B35000824E46534E52474F4446434F564F4D55EB
:10B360004C425344442F304944544D4F534C535353
:10B3700054434E55464D4F4858424E5E0811165E96
:10B38000081D5E3A0600FF9E08CC0182C0A00BA0FB
:10B3900030CC02B6C0A003A010CC03B6C0A001C040
:10B3A000049E08000000354ACA99391C76982295F7
:10B3B000B3980ADD479853D199990A1A9F9865BCAA
:10B3C000CD98D6773E9852C74F80FF3A0400FF9E33
:10B3D0000801FF1C0000FF00140014000000005EC4
:10B3E0000818985E0800005E0800005E08000081F2
:10B3F000C0FFFE815D204572726F720020696E2071
:10B40000004F6B0D0A0000427265616B0021030062
:10B410000481F32030A9310A0081819E0E2039A9D0
:10B42000302031A93093F3A1138D24AD235E06148F
:10B4300056AD23A13083202101000E97F39E068193
:10B44000135E0814325F00148E93F12DF397F1A16F
:10B4500030832020302E109E06AB10AB305E0814D7
:10B460006E93F36103813AC10081138113E8019364
:10B47000F3C0D082B0A00BC0FFB6305E0714A6A008
:10B480000381F397F39E07CA0C5E0814CE61038113
:10B49000286F0380BCCA02E80BCA14E809CA00E896
:10B4A00007CA12E805CA22E803CA0AE801CA185FF7
:10B4B0000016C86E0080A05F00205A21031370A000
:10B4C00002C03F5F001978812320305F0019785F48
:10B4D000001C0A5F001978210314145F002BC0615F
:10B4E0000380BC2102FFFEA13083205E06106CA009
:10B4F0003086B08D83A800E6025F0036F6E801973B
:10B50000F188008D836E0080A05F00205A21031413
:10B51000205F002BC02103FFFF6F0380BC5F00187A
:10B52000985E0715345F001C0AA800AA005E061585
:10B53000348C8193F05F001D6493F25F001706A0C6
:10B540000197F297F08C895E0F1BD293F293F188EA
:10B55000008D836E00812B5F001C0A84008D838C1C
:10B560008193F05F00164E5E07159A97F08C898CD8
:10B570008193F05E061E6C84008D8393F15E0F153F
:10B58000BEAD236103813620202E10A910A920A171
:10B590003083205E0E15A6A013A09B6F0381369703
:10B5A000F297F08C895E06160A610381362DF397B7
:10B5B000F1811393F35F00146497F36F038136AD49
:10B5C000232E3397F28CC1A9312E3AA9302E32A9FD
:10B5D000308CC9210280C020202E308CC1A930A916
:10B5E000208CC984008D835E0E15F65F0016A28C38
:10B5F000C1A9308CC9AD23A12320308CC1A9308CC6
:10B60000C904308D835E0615348CC1A9328CC9887B
:10B61000008D830A308CC1A9308CC95E0E1632AD04
:10B62000232E3A8CC1A9308CC92E325E08161661C1
:10B630000380BEA1312030A93004308D838CC1AB92
:10B64000308CC99E06A9312030A9302033A00BA12F
:10B65000308320A11320308CC1A9308CC92033A0A5
:10B660000B8D859E068D859E0F5E0816529E0E617F
:10B670000380BE88008D832E30A9302E30A9306F14
:10B68000038136610380BEAB306F03812E6103817D
:10B690000E6F03812288008D835F001C2861038167
:10B6A000366F0381386F03813A97F1610380BAA145
:10B6B0003F210381126F03811088008D83A00BA0AE
:10B6C000036F0381346E00812A6F03813E93F393ED
:10B6D000F16103812E9E08C03F5F001978C0205F92
:10B6E0000019785E0880AA88008D836E00810DC9DC
:10B6F00005210280C020300A0020205E0617F0A03D
:10B70000010A0022225E06182484008D835E06183A
:10B71000346000810D84008D8320305E0E17F00AA6
:10B72000003F3FC09E5E0617F020300A0030305EBA
:10B7300007175A0A003C3C5E0717F093F2210211EA
:10B74000E993F1210117E893F1C17F20300A0061EC
:10B75000615E0717820A007B7B5E0F178206005F1F
:10B760005F2E302039AD23A93004308D835E0D1754
:10B7700086A810203006007F7F9E068A905E0E17F6
:10B7800086AD2393F3A920202084008D835E0517C6
:10B79000DEA009A0100A0088885E0E17C25F001C98
:10B7A0000AAB30A93020300A0061615E0717D2066B
:10B7B000005F5F8A905E0617A497F35E081782A069
:10B7C0001997F08C89AD239E08AD23A09097F1972F
:10B7D000F2A9302E20A920A89002003A3A5E06185D
:10B7E000080A0049495E0E180C6E00810D020054D3
:10B7F000545E0E1714A001203084005E0618348AAF
:10B80000105E0617F08CC1A9302E20A890A9208CBC
:10B81000C95E081816210380BF2E208CC1A9202ED6
:10B8200020A9208CC92E209E086000809F84008D56
:10B8300083C0006E00809F5E0E1866AA105E061818
:10B84000985F001978E801AA108CC1AB308CC95EF2
:10B8500006188C20305F0019785E0818A6AA108C94
:10B86000C1AB308CC95F0019785E0E18A65F001955
:10B87000785F0020705E081898210380C0C101889D
:10B88000008D836E00809F5F0019C6A0090A007FAB
:10B890007F5E0618486000809F84008D835E0618D6
:10B8A000CEC0005F00197888008D836E00809FA055
:10B8B000900A0007075E06193E0A000303EE025FC6
:10B8C0000020708D819E060A000D0D5E0620680A1C
:10B8D0000015155E0618900A0040405E06188C0A96
:10B8E000005F5F5E06187C0A0008085E06187C0A86
:10B8F0000012125E0E1936A115A126A1370C3500D3
:10B90000005F003E0A210380C05F002BC0A173A12D
:10B9100062A1515E0818A60A0020205E0718A6A0A2
:10B92000100A004949C0075E0F1962A0902E396EB7
:10B9300000812B8CC1A9308CC9A8105F0019785EDA
:10B940000818A65F001978C0085E08195A20308AC6
:10B95000405E061C0A5E0814B48C8193F06000807F
:10B96000A084008D835E0E2C1A97F08C8993F18C45
:10B970008193F00A0020205E0719BA6000809DA024
:10B98000016000810AA8105E0619B4AA108A10EEA0
:10B99000025F002070A8006E00810A97F08C8997E2
:10B9A000F15F003E169E085F003C0406007F7F0AA0
:10B9B000000F0F9E0E600080A08CC18C008CC96EA1
:10B9C0000080A088008D839E085F001D649E0E97F6
:10B9D000F15F00164E93F15F001A8897F32039A9A2
:10B9E000302031A930A01084908D835E0615205F31
:10B9F000001A965F001C5693F15F002070203A8C6D
:10BA0000C1A9302032A9308CC993F3AD235F003730
:10BA100002C02097F35F001978203084008D838C5A
:10BA2000C1A9308CC95E0619FA5E0D1A3402007F76
:10BA30007FA009210211EA20208CC1A9208CC98491
:10BA4000008D835E0D1A56AA905E0E1A5606007F70
:10BA50007F5F00197820208CC1A9208CC984008DBB
:10BA6000835E0D1A6C5E081A3893F3610380A46F2D
:10BA70000380A297F39E0893F393F2610380A221BF
:10BA800002FFFFB5236F0380A297F297F39E0D93F9
:10BA9000F3610380A46F0380A25F003C040A0003EB
:10BAA000035E061ACA97F35E081A96610380A46FB4
:10BAB0000380A25E08111AC0646E00812A5F001E16
:10BAC000DE97F193F35F001EB26F0381262103001E
:10BAD0000281F35F00143297F25E0E1B22811393F2
:10BAE000F28CC1AB302032AB30203AA9318CC993F3
:10BAF000F361038126A130832097F35E0E1AF2973B
:10BB0000F2A13FAD23C9095F00148093F361038163
:10BB1000262DF393F3610380BC2DF35F00235CC4F7
:10BB2000A65F00196C5F00235893F35F0034909771
:10BB3000F3AC91ACA293F193F221018100A092A009
:10BB40002A20300A00ABABC0015E0E1B805F001CD8
:10BB50000A5F00235893F35F0034905F003402972C
:10BB6000F3AC91ACA293F193F293F093F361038160
:10BB70002EACB32DF3C181C90093F15F001C566F49
:10BB800003812E20300A003A3A5E061BD284008DD3
:10BB9000835E0E14B4A9302030A93004308D835E4A
:10BBA000061CA4A930203AA9302032AD236F0380AF
:10BBB000BCAD235F001C0A21021B9A93F29E060271
:10BBC0000080805E071EDE0A0025255E0F14B4B2D9
:10BBD00000A009C100AD232103130A811320318C79
:10BBE000C1A9308CC9203993F1AD23A93020300A86
:10BBF000003A3A9E0F0A0020205E061C0A0A003016
:10BC0000308D85A800AA009E08AD23610380BE5E2A
:10BC1000061C48AD235F001D6493F35F00164EA021
:10BC200013A09B97F25E0F1E6C8CC1AB308CC96F5A
:10BC300003813CAD239E085F0010429E065F00100A
:10BC4000320A001B1BE60F0A000303E60C0A00136E
:10BC5000139E0E5F0010320A0011119E060A0003A7
:10BC600003E604E8F7C0FF6E0080A99E0E0400C042
:10BC7000C08D83E8019E0E6F03812EE8030400FF50
:10BC8000FF8D8397F1610380BC8C8193F0A0B08617
:10BC9000308D83A8005E061CC46F0381326103816E
:10BCA0002E6F03813488008D836E0080A05F00209A
:10BCB0005A97F08C89210314265E0E14FA5E08153B
:10BCC0002061038134A03084B08D83CA205E0614C5
:10BCD000CEAD23610381326F0380BCAD239E085F2C
:10BCE000002FFA9E0E6E00809C9E0893F3610380E5
:10BCF000A6C100A00981136F0380A697F39E0820B8
:10BD0000300A0041419E070A005B5B8D859E085FFB
:10BD1000001C0A5F0023585F0034025E051D5E6050
:10BD20000081470A0090905E07354A2101908021EA
:10BD300002000093F35F0034F497F3A0929E06CACA
:10BD4000085E0814CE8CC1AB308CC9210200005FA4
:10BD5000001C0A9E0F93F38C8193F021031998A184
:10BD60003083205E0714B4A023A0AB8123813381EC
:10BD700023813397F08C8902003030A00AC2008101
:10BD800023AD2397F35E081D6E5E0616A85F001DA7
:10BD900032AB305F001C0A93F36103810E5E061D17
:10BDA000DC97F3C42C5F00196C93F25F001D32AB7B
:10BDB000305F001C0A5E0E14B42DF3AD23A0B082D8
:10BDC000A0A00AA030B620A0025E0714A693F361DB
:10BDD000038136210100288113A13083205E0F14D6
:10BDE000A6AD236F0380BA97F36F03810E97F35EBE
:10BDF0000816A85E0616A25F0016A821011B9A5E0F
:10BE0000081E3AC9045F00148097F193F393F3611D
:10BE10000380BC2DF3C08C8C8193F093F15F001DE7
:10BE2000645F001EB693F3610380BCA1308320974A
:10BE3000F38CC1A9308CC9EF025F001652E7025F94
:10BE400000164EA1138CC1AB308CC99E07CA0E5E82
:10BE50000814CE9E0EC2FF5F00142CA13F0A008C76
:10BE60008CCA045E0E14CE97F36F0380BC8CC1A9FC
:10BE7000308CC9A03084B08D835E0E1EA860008116
:10BE80002B84008D835E0E151E21031B9A2DF3E873
:10BE90000197F3C93AE801C900C100A090A019A018
:10BEA00001203084008D839E068A109E068CC1A9D5
:10BEB000308CC90A0022225E061EBA5E081EC05FD0
:10BEC0000026D2C4B45F00196C93F26000810C8C20
:10BED0008193F05F00237897F08C892DF36F0381B5
:10BEE0002EB20C5F0023625E061F6293F361038132
:10BEF00044ACB393F38CC1A931203AA9308CC9204A
:10BF000032610380BEA13083205E0F1F4861038031
:10BF1000BAA130832097F25E0F1F542103811EA126
:10BF20003083205E0F1F54E80197F25F002E16AD9C
:10BF3000235F002B0C5F002E1697F35F0034B2973F
:10BF4000F39E0893F35F0034AE97F297F39E085F79
:10BF5000002FFA2030A0010A008C8C5E061F86C4D8
:10BF6000885F00196CAB30A0A9AA90A0105E061BD8
:10BF7000DE5F001D6A0A002C2C9E0E5E081F885F83
:10BF800000237820300A0088885E061FB4C4A95FA9
:10BF900000196CAB305F00235C5F0034025E061E4C
:10BFA000B65F001C0A5E071E3C5E081BDCAB305F00
:10BFB000001C0A5E0620709E060A00A5A55E0620EB
:10BFC000C80A00A8A85E0620C893F30A002C2C5EBD
:10BFD0000620A00A003B3B5E06210297F15F00238A
:10BFE0007893F36000810C84008D835E0E204E5F99
:10BFF0000037145F002B500C35202061038144ACC6
:10C00000B3283061038144ACB36000809DA001A8D7
:10C01000105E062046A8106000810A0030AA008A3F
:10C0200010E7025F0020705F002BC488008D83E65C
:10C03000025F002BC497F35E081FCC6000810A8466
:10C04000008D839E065E0820700C35000021038061
:10C05000BFC00D5F001978C00A5F00197888008D95
:10C06000836E00810A6000809CAA009E068C8193EA
:10C07000F088008D835F00197897F08C895E082026
:10C08000886000809EA0016000810A8A10E7025F3C
:10C090000020705E0F210202000E0E5E0F20B68C93
:10C0A000C18C008CC95E0820F28C8193F05F002F58
:10C0B000F6C4295F00196CAB3097F08C890200A898
:10C0C000A893F35E0620EA6000810A8C0080A05EDF
:10C0D0000F2102A800A001C0205F001978AA105EFD
:10C0E0000E20F897F35F001C0A5E081FD63F5265CA
:10C0F000646F2066726F6D2073746172740D0A0034
:10C10000FF6000812C84008D835E0E14AC97F121BA
:10C1100003210C5F002BC05E0816F05F002AC020D0
:10C12000300A002222C0006E0080A05E0E21605FF7
:10C13000002B52C43B5F00196C93F35F002BC4E8E3
:10C140000193F35F0016F697F15E071C9CA930205F
:10C150003084008D838CC1AB308CC993F15E061E98
:10C16000B00C352C2C5E08219693F36103813C04BE
:10C1700000AFAF8D83E80288008D836E00812C2D87
:10C18000F35E0821AAC42C5F00196C5F0026D22D33
:10C19000F393F220300A002C2C5E0621F06000811F
:10C1A0002C84008D835E0E2296C03F5F0019785F5D
:10C1B0000016F697F297F15E071C9CA93020308498
:10C1C000008D838CC1AB308CC993F15E061EB09399
:10C1D000F26000810C84008D835E0622325F001CB9
:10C1E0000AA002A0010A0022225E0622206000812D
:10C1F0002C84008D83A0025E06221CC23AC12CABA7
:10C20000305F002B56AD23210322422DF393F25EC3
:10C21000081F0A5F001C0A5F0035FA2DF35F003427
:10C22000AE97F3AB305F001C0A5E0622540A002C66
:10C230002C5E0E21202DF3AB305F001C0A5E0E2118
:10C24000A497F26000812C84008D83AD235E0E1CC8
:10C250004E93F204308D8321032284E6025F002B8B
:10C26000C097F39E083F45787472612069676E6FCE
:10C270007265640D0A00FF5F001EB284008D835E4C
:10C280000E22CA8CC1A9302030A9308CC904308D4F
:10C2900083CA065E0614CE8CC1A930203AA9308C20
:10C2A000C92032AD236F038128AD235F001C0A0A29
:10C2B0000083835E0E22965E0821F021020000E6D4
:10C2C000025F0026D26F03812E5F00142C5E0E14D5
:10C2D000BCA13FACA293F22030A930A93093F093D7
:10C2E000F25F00347A2DF3ACB393F35F00303E97E6
:10C2F000F35F0034AE97F35F00349493F35F003440
:10C30000F497F397F182105F003494AC91ACA25E85
:10C31000062340AD236F0380BCA09BA0135E081BC7
:10C3200094A13F6103812E20300A002C2C5E0E1B4D
:10C330009A5F001C0A5F0022DE5F0023788D83E88D
:10C34000018D816000810CB40084008D839E045EA9
:10C350000814CCC4285F00196CAB30C20093F2C93A
:10C36000015F0014805F0024486F03813061038106
:10C370003097F1A0100A007878E7025F00235C2074
:10C3800030C2000200B3B35E0723D00A0003035E8D
:10C390000F23D00A000101B20888208D838A20A0D3
:10C3A000025E0714B46F0381245F001C0A5E082339
:10C3B000A2A02084008D835E0E25DE20306F0381D5
:10C3C000240200ACAC9E070A0007079E0FA00A607B
:10C3D00000810CAA0084A08D83A0A05E062D66B209
:10C3E00000B200A00A210313548123A01020328A36
:10C3F000209E0F8CC1A9308CC95F00235C93F12172
:10C4000001238C93F1A0A1A0295F003460A01AA0A1
:10C4100092A9308CC92031A9302039A9308CC99318
:10C42000F1610381245E08237C88008D836E008186
:10C430000C5F001C0ACA245E0614CE5E0735FA5F44
:10C44000001D1E5E0F24E20A002626EE0D5F001C72
:10C450000A0A0048485E063CFA0A0042425E063D6F
:10C46000ACCA025E0614CE0A00ACAC5E0624480AD2
:10C47000002E2E5E0635FA0A00ADAD5E0624CA0A0D
:10C480000022225E062B520A00AAAA5E0626900A05
:10C4900000A7A75E062A460200B6B65E0F25045F17
:10C4A000002372C4295F00196C9E08C27D5F0023BF
:10C4B0007C6103813093F35F0034505F00235C970D
:10C4C000F39E085F0026D293F3AD23ACB36F0381D4
:10C4D00044ACB36000810C84008D83EE025F0034B5
:10C4E0007A97F39E08C100B200A00993F15F001C87
:10C4F0000AA0900A0031315E0725425F002372C412
:10C500002C5F00196C5F002360AD2361038144AC94
:10C51000B32DF393F3AD235F002FFAAD232DF35E1C
:10C5200008254E5F0024BE2DF3210224DA93F22168
:10C530000111B281132031A930203BA0131E38AA6B
:10C54000200A00ADAD9E060A002D2D9E06A8200AE9
:10C55000002B2B9E060A00ACAC9E068CC1AB308C27
:10C56000C99E080400AFAF8D83E80288008D838CDC
:10C570008193F05F00235C5F001D3E97F08C89ADD6
:10C580002397F12DF3AD235F00347E8C8193F05F10
:10C59000001D3E97F08C8997F1A090210329DC5E65
:10C5A0000E25D086A08D83A009A01086208D831E25
:10C5B0003884A08D83A009A01084208D831E38218B
:10C5C0000325FA6000810CB20CA020B208A00AC2B8
:10C5D00064A0108A209E0F5E08241C0025FE00A087
:10C5E0009084008D83B20C97F197F28C8193F05F69
:10C5F0000023622103267C93F35E0634F488008DC9
:10C60000836E00810C93F25F002DE62030A931206B
:10C6100039A930203197F293F193F05F002DEE5F4E
:10C6200000349497F0A00297F3A0A084208D839EFD
:10C6300006A020020001019E0788008D838AA0A821
:10C64000009E0FAA20AAA020100A308CC1A930A9F0
:10C65000108CC95E0626488D855E08341EA800B47D
:10C660000097F186108D830000FFFFB6005E08344E
:10C670002AC25A5F00237C5F00235C5F001D3EA03E
:10C68000A08CC18C00A009A0208C008CC95F00295F
:10C69000DC97F15E08238CAB305F001C0A9E06C459
:10C6A0002C5F00196C210126B693F10400AFAF8D09
:10C6B00083E80288008D836E00810B20315F001DAE
:10C6C0001E5E0714B488008D83A0096E00810C5F84
:10C6D000001C0A5E0726FE5F001D1E5E072710A0D5
:10C6E000095F001C0A5E0727005F001D1E5E0F2702
:10C6F00000020024245E0E2728A8006E00810CB2E0
:10C70000048090A0095F001C0A6000812AAA005ED4
:10C710000628485E0D27402030020028285E0628A3
:10C720000488008D836E00812A93F3A11261038136
:10C730003EA1308320210281405E0632EE610381FA
:10C7400038AD2361038136A13083205E062790A097
:10C750009002308CC1A9308CC95E0E2780A01002D7
:10C76000308CC1A9308CC95E0627EAA9335E082740
:10C770006697F32DF393F2210224E6A130832097EC
:10C78000F25E0627F02DF393F393F1210100066189
:10C7900003813A93F3811397F193F35F0014649745
:10C7A000F36F03813AA1136F0381388CC1AB308CD6
:10C7B000C90C350000A13083205E0E27CA97F22EE7
:10C7C0003A8CC1A9302E32A9308CC9AD2397F39E83
:10C7D000086E0081472103141FACB36F038144AC82
:10C7E000B397F39E0893F36103810B2DF3A002939B
:10C7F000F293F15F001D2E97F197F08C89AD232DF8
:10C80000F393F3AD23A800A00220300A002C2C5E85
:10C8100006280EC4295F00196C6F03813097F36FEF
:10C8200003810BCA0093F2E80393F38C8193F061C8
:10C83000038138E8018123AD236103813AAD23A14F
:10C840003083205E0628AC20308A908CC1A9308CC1
:10C85000C95E0E287820308A108CC1A930203AA9F0
:10C86000302032A9308CC95E0E28546000810B84C0
:10C87000008D835E0E14C097F08C89A1315E063264
:10C88000EE02305E06295ECA105E0814CE21020058
:10C890000497F08C895E061D5E2E398CC1A9302E5E
:10C8A00031A9308CC9A0095F0014808CC1A9318CDA
:10C8B000C96F0381242E398CC1A9308CC9600081D5
:10C8C0000BB208A0902101000B5E0F28F497F18CA9
:10C8D000C1A9108CC92E39A9302E31A93093F093FB
:10C8E000F35F0035CEAD2397F397F0AA005E0E28D4
:10C8F000E48C8193F0A021A0A9AD2381235E0714CD
:10C90000A65F00148E6F03813A8CC1AB308CC90CCA
:10C91000350000A13083205E0E2928A910A00261F5
:10C92000038124203AAD2381338113AD23AB312E13
:10C930003AA9302E32A93097F08C895E0729A2A03F
:10C9400001A00920308CC1A9308CC9E80197F320DF
:10C950003AA9302032A9302DF393F0A13083205E24
:10C960000F28A693F35F0035CE97F2812397F0AAA4
:10C9700000A031A0B95E0E296C8133813397F1811B
:10C9800013AD23610381309E086103813AAD2321F9
:10C9900003000081F36000810C84008D835E062912
:10C9A000D25F002DE65F002C36610380BAAD2361B3
:10C9B000038122A0B082A0A009A030B620A091A03F
:10C9C00012CA002103810C2E3AC1905E08343060F7
:10C9D00000810AA00188008D835E0829DE5F002A9D
:10C9E000DC5F002AC021011EB293F193F2C4285FDC
:10C9F00000196C5F0026D293F3AD238CC1AB3020BD
:10CA000032AB308CC9203A97F35F00235CC4295FB6
:10CA100000196CC4B45F00196CA1312DF32E39A933
:10CA2000302E315E082B445F002ADC93F25F002435
:10CA3000BE5F00235C2DF3203A8CC1A9302032A9BF
:10CA4000308CC9A02084A08D835E0614C420308C55
:10CA5000C1A9308CC92033A00B93F36103813E2D13
:10CA6000F36F03813E6103814293F361038140933D
:10CA7000F32103814093F25F0034AE97F35F00230C
:10CA800058AB305F001C0A5E0E14B497F36F03813D
:10CA90004097F36F03814297F36F03813E97F39EB4
:10CAA0000893F3610380BC8CC1A9308CC9A0308489
:10CAB000B08D8397F39E0ECA165E0814CEC4A75F8E
:10CAC00000196CC0806E00812A04308D83A0015F44
:10CAD0000026DC5E08235C5F00235C5F0037145F88
:10CAE000002B505F002DE621012E8093F120308C29
:10CAF000C1A9318CC993F35F002BE897F320398CDF
:10CB0000C1A9308CC920315F002B3A93F3A00B5F91
:10CB1000002DCC97F29E085F002BE82103811E9325
:10CB2000F32E30A930A9302E3AA9302E3297F39E39
:10CB300008AB30C122A01293F3C9FFA9302030A85E
:10CB40009084005E062B728A205E062B728A105E2D
:10CB50000E2B5A0A002222EE025F001C0A2DF38CD3
:10CB6000C1A9308CC9AD23A0905F002B3A2102816E
:10CB70001E61038110ACB36F038144ACB3C0016E7E
:10CB800000810C5F0034B2A13083206F03811097C5
:10CB9000F320309E0ECA1E5E0814CE8CC1A9308CC4
:10CBA000C95F002B505F002DE65F003494A8A0AA57
:10CBB000A09E0620105F0019780A000D0DEE025F9E
:10CBC00000207CA9105E082BCE84008D83E802979C
:10CBD000F08C898C8193F0610380BAAD236103816D
:10CBE000228C00A009C1FF8113A930A13083205EEF
:10CBF000072C206F038122A930AD2397F08C899EEA
:10CC00000897F08C89CA1A5E0614CE8A008C81932C
:10CC1000F021012BEE93F16103810E6F038122213C
:10CC200003000093F3610380BA93F321038112ADF3
:10CC30002361038110AD23A130832021012C4E5E9E
:10CC40000E2CD261038136AD2361038138AD23A15F
:10CC50003083205E062C882030A93184008D835FCC
:10CC6000002CDA5E082C6697F1AD236103813AADA2
:10CC700023A13083205E062D205F003494A0A09372
:10CC8000F3811384008D835E0D2C866F03812497BE
:10CC9000F32039C100811381138CC1A9308CC9AD37
:10CCA0002361038124AD23A13083205E062C8821DB
:10CCB000012CBE93F1040080808D8320308CC1A9AB
:10CCC00031203AA9302032A9308CC99E0D84008DC4
:10CCD000839E06A13161038122A1308320A1139E8E
:10CCE0000797F32DF3A13083202DF393F3A1139E27
:10CCF0000F97F197F097F08C8993F393F293F19E4D
:10CD00000897F297F38D348D839E068CC1AB30204B
:10CD100031AB30203993F3AB318CC9203BC3008158
:10CD200013A1128CC1AB308CC9A131610381225F88
:10CD300000146897F32E398CC1A9308CC92E31A10B
:10CD400013AB305E082C3A93F193F361038144AC4A
:10CD5000B32DF35F0024482DF35F00236020309350
:10CD6000F361038144ACB393F30030CA1C5E071433
:10CD7000CE5F002B3697F25F002DEE2DF35F002D76
:10CD8000EC93F361038120AD235F002DBC5F002D88
:10CD9000BC210323882DF393F35E082B8C97F32D8E
:10CDA000F32030A9312039A9302031A00BA8B0AA36
:10CDB000B09E0620102E208CC1A910A9208CC95E1F
:10CDC000082DCE5F00236061038144ACB3AD235FC7
:10CDD000002E16AD239E0E93F2A112AB20203961D6
:10CDE000038122A13083205E0E2E12A00181136FD9
:10CDF00003812297F39E08610381108CC1AB302020
:10CE000031AB302039AB318CC9A13083209E0E6FFD
:10CE10000381109E08210129F293F15F002DE28821
:10CE2000008D83A0026E00810C203084008D839ED3
:10CE300008210129F293F15F002E3A5E061D5E8CF7
:10CE4000C1A931203AA9308CC9203220209E08C0C7
:10CE5000015F002B365F002FFE61038120ACB32EF3
:10CE60003A97F15E082B8C5F002F8488008D832D0C
:10CE7000F3A00993F320308A105E072EA0A010E8DB
:10CE800001C90093F15F002BE897F197F393F38CBE
:10CE9000C1A9312031A9308CC92033A01BC1008128
:10CEA00013A1315F002B3AA00B5F002DCC97F25FEE
:10CEB000002DEE5E082B8C5F002F8497F293F220FA
:10CEC0002082105E082E8EAD2320305F002F8CA8AC
:10CED00010AA105E061D5E93F1CAFF0A0029295EA2
:10CEE000062F0CC42C5F00196C5F002FFAC4295F59
:10CEF00000196C97F08C892DF321012E9293F1AAE1
:10CF0000000A30C1009E0FA009203082908AA0A0A4
:10CF1000019E07A0A19E085F002E3A5E06311EA06A
:10CF20000A8CC1A9312030A9308CC92033A00B93C1
:10CF3000F3812320312E322DF393F120300A002487
:10CF4000245E0E2F6A5F003CFAE8090A0025255E80
:10CF50000E2F785F003DACE8025F0035FA97F1973D
:10CF6000F32E319E08AD23C4295F00196C97F19709
:10CF7000F293F1A0A19E085F002FFE6E0080995FE2
:10CF80000080965E0829F25F002FE05E08804E5F09
:10CF9000002FE08C8193F0CA00AB305F001C0A5E6A
:10CFA000062FCCC42C5F00196C5F002FFA97F15F3D
:10CFB00000809688A08D8386108D835E062FCE9E7E
:10CFC000085F002FFA6E0080996E008051C42C5FBC
:10CFD00000196C5E082FFA5F001C0A5F0023585F7F
:10CFE000001D36A02084008D835E0E1D5EAB305F79
:10CFF000001C0AA0A09E085F001D3E20205E08299C
:10D00000F25F0023585F001D3E93F2C42C5F0019AD
:10D010006C5F002FFA97F22E209E08210338B45F30
:10D020000034945E0830545F003494E80297F1971E
:10D03000F25F003450A01084008D839E0660008152
:10D040004784008D835E06347E82105E0F30868CAE
:10D05000C18C008CC9A800AD235F003460AD235F94
:10D0600000347E97F197F20A0019199E0F8C819374
:10D07000F05F0034C8A00397F08C895F0031DA8438
:10D08000308D83210381445E0D30C85F00318E5E98
:10D090000F31508CC1A9308CC928305E0614C8CB22
:10D0A000015F0032005E08315088008D838210A03D
:10D0B000012030B6A0A00A8CC1A9308CC92030B69E
:10D0C00020A0028CC1A9308CC92030B690A009EFF5
:10D0D000025F0031AEA01BA0A388008D83A001A039
:10D0E0009084008D835E0E3130A029A032A0B3A0C1
:10D0F0000BA010020008080A00E0E05E0E30FC8879
:10D10000008D836E0081479E08AA108133B228B437
:10D11000995E0D3128A010A03AA0B184008D835EE5
:10D120000631502103814700302E305E0F311E9EA4
:10D1300006A0102103814784008D83ED025F00313A
:10D140007820318CC1A9308CC920300600808088BD
:10D15000908D83A0095E08347EA8A09E0EA8209E14
:10D160000EA8909E0EC98028309E0E5E0814C8201E
:10D170003080A0A00A8CC1A9308CC92030B420A076
:10D18000028CC1A9308CC92030B490A0099E08211E
:10D1900003814820308CC18C008CC92E3088008DD2
:10D1A00083A00B8210A001A0B0B6A0A00AA0B0B6C8
:10D1B00020A002A0B0B690A0099E08C100020008FD
:10D1C000085E0731F0A0A1A02AA092C9005E083134
:10D1D000DC00000909A00B88008D83AAB09E06A080
:10D1E00090B20CA009B32CB21C5E0831F60000000E
:10D1F0008103AA561980F122768045AA3882FF5F02
:10D2000000340284008D835E041D5E21038147206B
:10D210003021018035210204F382108C8193F02E9D
:10D220003193F293F15F00305497F197F2A8105FB9
:10D230000033102103320C5F003046210332105FAF
:10D240000039E221018080210200005F0030549704
:10D25000F08C895F0036D22101803121027218E8FA
:10D260000297F197F25F0034029E06CB005F003315
:10D2700094A0906E008159AD236F03815A21010063
:10D2800000A112210330F493F3210332B493F393FA
:10D29000F32103814420308CC1A9308CC984008DD6
:10D2A00083E61893F3CB08B20CA003A090EF09A17A
:10D2B000386103815A8123AD23A18360008159B471
:10D2C00090B20CA009B32CB21CAAB0A030EEEC971F
:10D2D000F39E08A0A1A02AA092A0099E085F003496
:10D2E0006021018420210200005F00347E97F197C5
:10D2F000F25F0034025E0614B8CBFF5F003394285F
:10D3000031AB302030A006AB302030A007AB30204E
:10D3100030A00FA091AD2388008D83A009A002A0AA
:10D320000AA00EA138A119A0B082FBB673B661A005
:10D33000E0CC00B6C08D85EF03A00E8D81E802A180
:10D3400091A183A090A800AA008CC1B20C8CC95EE8
:10D35000053152B208B328B2988133B218B2E8A0AE
:10D360009084208D8384A08D83EEDC6A008147EE5B
:10D37000D95E0814C8A01084008D83E61BA0B021DC
:10D3800003814708308010A001B20C8810A010ED76
:10D390000F000080802E30E69B5F0034C82E308C5A
:10D3A000C1AB308CC99E085F0034028C0097F384B7
:10D3B000008D8397F35E0D311E5E0814C85F003444
:10D3C00090A01084008D839E06000002025E071468
:10D3D000C8A0015F0030542103814728309E0E5EB3
:10D3E0000814C86000814784008D839E0660008118
:10D3F000460A002F2FE8038CC18C008CC9B208B6F6
:10D40000009E0EA8009E085F003402C18821020021
:10D410000021038147A0092E31C1008CC1A9308CA5
:10D42000C90C358080B2085E0830EE5F0034029E81
:10D430000D210381462030080080808D832E309E90
:10D4400008AD2361038144ACB32DF393F3610381F1
:10D4500046ACB32DF393F3AD239E085F003494AC38
:10D46000A26F028144ACA2AC916F018146AC919E47
:10D470000821038144203A8CC1A9302032A93020F0
:10D4800039A9308CC920318CC1A9308CC99E0821A2
:10D49000028144C10420202E308CC1A920A9308CE7
:10D4A000C9AA105E0E34B49E08210381462030B212
:10D4B000008D81B20C2E308D85B20C8CC1A9318CBF
:10D4C000C92E30A090B2008D81B20CA009B20C0818
:10D4D000308D839E08A01084008D835E0634022167
:10D4E00003341693F35F003402A0909E062103815B
:10D4F0004608308D83A0909E055F003524B20C88CD
:10D50000908D839E08A930A0100A309E0EAB30A0EB
:10D51000900A309E0EAB30A0200A309E0EAB30A099
:10D52000A002309E0E97F397F39E08A001A009A0D9
:10D5300002A00A84008D839E0693F35F0034905FFF
:10D540000034C808308D83A003ED025F00358CC025
:10D550009882105F0031DAA030B208EF025F00312C
:10D5600078C100EF025F0031AE97F39E08AB20A0B8
:10D570002086A08D83A8009E0E8CC1AB108CC99E06
:10D58000082103814720300A009898600081449E5A
:10D590000F20305F00354A0C359898A0A08C8193FD
:10D5A000F0A090B2085F0030EE97F08C899E0821C1
:10D5B000030000A01084908D839E06C01081335E0E
:10D5C0000728A6AD238133AD235E0F35F281135EAC
:10D5D0000728A6AA005E0E35DC9E080A002D2D8CB9
:10D5E0008193F05E0636140A002B2B5E0636148CEF
:10D5F000C1AB308CC95F00311EA001A002A00A8C13
:10D60000C18C008CC9A0095F001C0A5E0736A80AFD
:10D61000002E2E5E06365E0A0045455E0E36645FBD
:10D62000001C0A5F00255E5F001C0A5E0736E2A848
:10D63000205E0E366488008D8382A0A00AA890A880
:10D64000905E06362693F3A0A08210E5025F0036B6
:10D65000965E0D36828C8193F05F0032FC97F08CE1
:10D6600089A8005E0E366A97F297F08C89EE025F09
:10D67000003450AD239E089E068C8193F05F0033EA
:10D68000DC97F08C89AA009E0893F2A002A010B447
:10D6900090A00193F193F393F25F0033DC97F08C49
:10D6A00089020030305F0036D297F397F197F25E2F
:10D6B0000836265F0034605F00342A97F197F25EE7
:10D6C000083054A0A0B20280A0B2000030020030A6
:10D6D00030A00A5E08364693F32103141B5F002B2B
:10D6E000C097F3AD2388008D83C1985F003430214B
:10D6F000032BBA93F32103814A93F35F0034020CA6
:10D700003520205E0D372A0C352D2D8CC1A9308C8B
:10D71000C90C3530305E06388C93F3ED025F00346F
:10D720005088008D838C8193F05F00389C2101919B
:10D730004321024FF85F0034F484008D835E0C3780
:10D740008297F08C895F0036988C8193F05E083761
:10D750004C5F0032FC97F08C89A8008C8193F05FBD
:10D7600000389C5F00303AA8005F00354A5F003403
:10D770007E2101030697F08C898090A8005E053712
:10D78000AE0A0008085E0F37AEA800A001C002AACA
:10D790000197F38C8193F0210238B8020101015EF8
:10D7A0000E37CE0C352E2EA9300C353030A930AACC
:10D7B000100C352E2EEE025F0034A693F193F393F6
:10D7C000F25F00349097F3C12FA810A0A00230A000
:10D7D0000A8CC1A9308CC9A020203CB6C0A0028C04
:10D7E000C1A9308CC9A090203CB6C0A0098CC1ABA7
:10D7F00030AB308CC95E0F37E85F00318EA9305FE7
:10D8000000347EAD2397F32E31A93097F1AA905EB4
:10D810000E37CEAA105E06384EAB3020300A0030EC
:10D82000305E0638380A002E2EE6025F0034A697D6
:10D83000F08C895E0638960C3545458CC1A9308C34
:10D84000C90C352B2B5E0D38740C352D2D8CC18CED
:10D85000008CC9A800C12FA81002000A0A5E0F3868
:10D860007600003A3A8CC1A9308CC92E318CC1A9FE
:10D87000302E30A9308CC92E3997F39E082101949F
:10D8800074210223F75F0034F484008D8397F35EE4
:10D890000C37701E3800000080A08601102700E8B9
:10D8A00003006400000A0000010000210334502D31
:10D8B000F31E385F003460210338B45F00347A9778
:10D8C000F197F25F003402A0105E06395C5E0D38FD
:10D8D000F884008D835E0614B884008D835E063163
:10D8E0002293F293F1A09004007F7F8D835F003438
:10D8F000905E0D392E93F293F15F0035A097F1976A
:10D90000F28C8193F05F0034F497F3A030B20C975F
:10D91000F3ACB36F03814697F3ACB36F038144ACB0
:10D92000B3EF025F0038CAEE025F00345093F29307
:10D93000F15F00321E97F197F25F0032845F00348E
:10D9400060210181382102AA3B5F0032846000819E
:10D95000470A0088885E0F33C65F0035A00000804C
:10D9600080000002025E0733C68C8193F0210332EF
:10D970000C5F00303E5F00327697F08C8997F1970C
:10D98000F28C8193F05F0030505F003450210339F6
:10D99000C05F0039F82102000097F1A0295E08322B
:10D9A0008408402E9474704F2E776E02887AE6A019
:10D9B0002A7C50AAAA7EFFFF7F7F000080810000A2
:10D9C0000081FF5F0034602102328093F293F35FA5
:10D9D0000034905F00328497F35F00346020308C15
:10D9E000C1A9308CC95F00347AE80297F08C89971E
:10D9F000F197F2AA009E0693F293F18C8193F09333
:10DA0000F35F00328497F35F00349493F35F003048
:10DA10005497F35E083A0A5F003402210380705E77
:10DA2000053ADA210380925F00347A210380709EE8
:10DA300006003006000707C1002E30A930800080A4
:10DA400000A00981135F003494ACA2AC915F003256
:10DA5000846000806FA80006000303C1000A000173
:10DA600001B4106E00806F21033AE480008000A0B2
:10DA70000981135F00303E5F003490A0A0A09A0897
:10DA8000004F4F8D83A0090C3580808CC1AB308C4A
:10DA9000C920310C3580802103806E28302030026F
:10DAA00000ABAB5E0E3ACE2E30A890AA20A8A05FA5
:10DAB0000030F4210380925E0834AE2E30AB302E5D
:10DAC00030AB302E305E083A9668B1466899E992DC
:10DAD0006910D1756821033B665F00303E5F0034FA
:10DAE000602101834921020FDB5F00347E97F197AB
:10DAF000F25F0033105F0034605F0035A097F1974C
:10DB0000F25F00305021033B6A5F0030465F003413
:10DB1000028D815E0D3B425F00303A5F003402842B
:10DB2000008D838C8193F0E5025F00345021033B2C
:10DB30006A5F00303E97F08C89E7025F0034502125
:10DB4000033B6E5E0839E2DB0F49810000007F0570
:10DB5000BAD71E866426998758342387E05DA58648
:10DB6000DA0F4983FF5F0034605F003AFC97F1975A
:10DB7000F35F003460AD235F00347E5F003AF45EF3
:10DB800008330C5F003402ED025F0038CAED025F1B
:10DB9000003450600081470A0081815E073BCE213E
:10DBA000018100A1125F0033102103304693F3215D
:10DBB000033BDC5F0039E221033B669E08094AD73C
:10DBC0003B78026E847BFEC12F7C74319A7D843D4C
:10DBD0005A7DC87F917EE4BB4C7E6CAAAA7F000070
:10DBE0000081FF9E085F0010329E08C00C5E083E58
:10DBF000165F002FFAA0A06E00809D9E085F002394
:10DC0000585F001D3E6F0280A26F0280A49E085FD5
:10DC1000001D3E93F297F320318CC1A9308CC920AE
:10DC2000305E0829DE5F0023585F001D3E93F2C47A
:10DC30002C5F00196C5F0023585F001D3E2DF32EF2
:10DC40003A8CC1A9308CC92E3297F39E085F00230D
:10DC50005C5F001D3E93F12103814AA0200A000071
:10DC600000E60A5F003CC8A0100A003030E6022E31
:10DC700031A9302E39A930A0A05F003CC8A0200AED
:10DC8000000000EE04A0100A003030E6022E31A998
:10DC9000302E39A93088008D832E30A9302E309750
:10DCA000F12103814A5E082AFEA00106000F0F0A37
:10DCB000000A0AE7020000070700003030A009A0B0
:10DCC00010B206B20606000F0F0A000A0AE70200A9
:10DCD00000070700003030A0019E08AD232103009B
:10DCE000005F003D205E073D5EE8035F003D20E7EA
:10DCF0001F813381338133813384B08D83A00BE85E
:10DD0000F58CC1A9208CC920200A0020205E063D88
:10DD100020020030309E070A000A0AE705020007C9
:10DD2000070A000A0A9E070A0010108D859E08AD9A
:10DD300023A020A0A993F35F0029DC97F39E08CAD3
:10DD4000265E0814CE5F00235C5F001D3E93F12128
:10DD500003814AC111AA10A0100A000101E603B311
:10DD600028EFF9E801B328C030CC00B4C02E30A9A8
:10DD700030AA10EEF888008D832E308CC1A9308C2B
:10DD8000C92E3097F12103814A5E082AFEAD232176
:10DD90000300005F003DDC5E073DFA020030308189
:10DDA0003384B08D83A00B5F003DDCEFF7AD23A083
:10DDB00020A0A993F35F0029DC97F39E088CC1A9EA
:10DDC000208CC920200A0020205E063DDC0A00309D
:10DDD000309E070A0032328D859E08CA285E0814DC
:10DDE000CEC0006E0080A95E0810765F0019785ED4
:10DDF0000820705E08106C5E08104C5E080200007F
:10DE00000000000000000000000000000000000012
:10DE10000000000000000000000000000000000002
:10DE200000000000000000000000000000000000F2
:10DE300000000000000000000000000000000000E2
:10FFE000000D0A4D455A5A383030322025322E3312
:10FFF000664D487A0D0A00696E66006E616E0000FB
:020000040001F9
:10000000000E816F57C584F558C585F559C586F52D
:100010005AC587F587AF14D0010E816F84C501F5ED
:1000200085C502F586C503F587C504F53AEC90F061
:1000300001C584F502C585F503C586F504C587F5B8
:10004000000E836F000E826FB7C571F5B8C572F5EB
:100050008151D8B40DD08151D8A404D0000E676F5F
:100060002B0E03D0000E676F2D0E666F66C581F5EF
:1000700084C501F585C502F586C503F587C504F578
:1000800067EC8DF001040210D8A42CD00501815139
:10009000D8B409D081C500F67107D8A07207000E48
:1000A000836F010E826F000E8225016E060E832182
:1000B000026EF70E036EFF0E046E21EC90F0FD0E43
:1000C0007127FF0E722355C512F556C513F5000EA4
:1000D000146E060E156E71C516F572C517F51BEC7C
:1000E0008FF0120084C501F585C502F586C503F5BC
:1000F00087C504F567EC8DF001500210D8A41AD022
:1001000005018151D8B409D081C500F67107D8A086
:100110007207000E836F010E826F000E8225016E42
:10012000060E8321026EFB0E036EFF0E046E21ECA1
:1001300090F0C5D7000E0501886F000E896F800E04
:100140008A6F3F0E8B6F000E706F000E6F6F84C54D
:1001500001F585C502F586C503F587C504F5000ED2
:10016000056E000E066E000E076E000E086ED6ECD1
:100170008EF0D8A00CD0BED073C588F574C589F5B3
:1001800075C58AF576C58BF505016F4B702B88C553
:100190000FF589C510F58AC511F58BC512F5000E4E
:1001A000136E000E146E200E156E410E166E1DECB1
:1001B00086F00FC573F510C574F511C575F512C538
:1001C00076F505017351845D016E74518559026E97
:1001D00075518659036E76518759046E7BEC8FF00A
:1001E00004BECAD704500310021004E1020E015CE1
:1001F000D8A0C2D773C528F574C529F575C52AF5E9
:1002000076C52BF584C52CF585C52DF586C52EF54F
:1002100087C52FF5FFEC8CF0D8A0AED7050188512B
:10022000845D016E89518559026E8A518659036E2B
:100230008B518759046E7BEC8FF004BE08D00450BC
:100240000310021043E1020E015CD8B03FD088C514
:1002500084F589C585F58AC586F58BC587F54AD0AD
:1002600088C528F589C529F58AC52AF58BC52BF5DA
:10027000000E2C6E000E2D6E200E2E6E410E2F6E77
:1002800039EC89F028C588F529C589F52AC58AF58C
:100290002BC58BF505016F07D8A070078851845DC9
:1002A000016E89518559026E8A518659036E8B51B0
:1002B0008759046E7BEC8FF004BEC9D7045003103D
:1002C000021004E1020E015CD8A0C1D784C528F554
:1002D00085C529F586C52AF587C52BF588C52CF572
:1002E00089C52DF58AC52EF58BC52FF5FFEC8CF051
:1002F000D8A0B6D75BC569F569C56AF50501BABF6F
:1003000005D0B9C562F5BAC563F504D0000E636FB8
:10031000060E626F62C56DF563C56EF56D4B6E2B93
:10032000660E6A19D8A416D070AF0CD0000E886F74
:10033000000E896F800E8A6F3F0E8B6F000E706FFC
:10034000000E6F6F670E6919D8B404D06F516D2716
:1003500070516E23000E786F000E776F84C579F5AB
:1003600085C57AF586C57BF587C57CF588C573F5A7
:1003700089C574F58AC575F58BC576F57BD079C5C9
:1003800028F57AC529F57BC52AF57CC52BF588C5E6
:100390002CF589C52DF58AC52EF58BC52FF539ECC1
:1003A00089F028C541F529C542F52AC543F52BC575
:1003B00044F58BEC8BF041C57DF542C57EF543C518
:1003C0007FF544C580F57DC501F57EC502F57FC585
:1003D00003F580C504F5CDEC8DF001C56BF502C5C4
:1003E0006CF579C528F57AC529F57BC52AF57CC554
:1003F0002BF57DC513F57EC514F57FC515F580C5B4
:1004000016F588C50FF589C510F58AC511F58BC598
:1004100012F51DEC86F00FC52CF510C52DF511C594
:100420002EF512C52FF5A0EC8FF028C579F529C55A
:100430007AF52AC57BF52BC57CF588C528F589C5D5
:1004400029F58AC52AF58BC52BF5000E2C6E000EFA
:100450002D6E200E2E6E410E2F6E39EC89F028C5C0
:1004600088F529C589F52AC58AF52BC58BF50501BF
:10047000774B782B6D51775D7851800A5C6E6E51A9
:10048000800A5C58D8A07BD788C50FF589C510F5C0
:100490008AC511F58BC512F5000E136E000E146E91
:1004A000A00E156E400E166E1DEC86F00FC57DF584
:1004B00010C57EF511C57FF512C580F579C528F503
:1004C0007AC529F57BC52AF57CC52BF57DC52CF5AC
:1004D0007EC52DF57FC52EF580C52FF5FFEC8CF080
:1004E000D8B003D0000E050118D079C501F57AC542
:1004F00002F57BC503F57CC504F57DC505F57EC514
:1005000006F57FC507F580C508F5D6EC8EF0D8A0B6
:100510000BD005016BB108D0000E7D6F000E7E6F11
:10052000000E7F6F000E806F84C501F585C502F552
:1005300086C503F587C504F57DC505F57EC506F5B9
:100540007FC507F580C508F5B3EC87F001C579F5DF
:1005500002C57AF503C57BF504C57CF579C528F598
:100560007AC529F57BC52AF57CC52BF5000E136EDF
:10057000000E146E200E156E410E166E73C50FF52B
:1005800074C510F575C511F576C512F51DEC86F02C
:100590000FC52CF510C52DF511C52EF512C52FF57B
:1005A000FFEC8CF0D8A024D005016F4B702B73C5E5
:1005B0000FF574C510F575C511F576C512F5000E69
:1005C000136E000E146E200E156E410E166E1DEC8D
:1005D00086F00FC573F510C574F511C575F512C514
:1005E00076F5660E05016A19D8A402D06D4B6E2B04
:1005F00073C588F574C589F575C58AF576C58BF51B
:100600006FC560F570C561F5000E0501686F000EDD
:10061000656F000E646F000E786F000E776FCDD09F
:1006200079C528F57AC529F57BC52AF57CC52BF552
:1006300088C52CF589C52DF58AC52EF58BC52FF5F6
:1006400039EC89F028C541F529C542F52AC543F59D
:100650002BC544F58BEC8BF041C57DF542C57EF58D
:1006600043C57FF544C580F57DC501F57EC502F51E
:100670007FC503F580C504F5CDEC8DF002BE06D034
:10068000025013E10A0E015CD8B00FD07DC501F510
:100690007EC502F57FC503F580C504F5CDEC8DF070
:1006A00001C56BF502C56CF505D0000E05016C6F38
:1006B000090E6B6F05016851D8B461AF20D0000EF0
:1006C0008225D96E060E8321DA6E2E0EDF6E824BE6
:1006D000832B7107D8A07207010E686F10D0000E2F
:1006E0008225D96E060E8321DA6E300EDF6E824BC4
:1006F000832B7107D8A072076407D8A065076451DF
:100700006511D8A4ECD7000E8225D96E060E832180
:10071000DA6E6B51300FDF6E824B832B7107D8A0DE
:10072000720779C528F57AC529F57BC52AF57CC5F8
:100730002BF57DC513F57EC514F57FC515F580C570
:1007400016F588C50FF589C510F58AC511F58BC555
:1007500012F51DEC86F00FC52CF510C52DF511C551
:100760002EF512C52FF5A0EC8FF028C579F529C517
:100770007AF52AC57BF52BC57CF588C528F589C592
:1007800029F58AC52AF58BC52BF5000E2C6E000EB7
:100790002D6E200E2E6E410E2F6E39EC89F028C57D
:1007A00088F529C589F52AC58AF52BC58BF505017C
:1007B0006007D8A06107774B782B6D51775D785132
:1007C000800A5C6E6E51800A5C58D8B008D083BF36
:1007D00027D7835104E14B0E825DD8A021D7000EAC
:1007E000786F4F0E776F000E7725D96E060E782141
:1007F000DA6EDF6A000E5C6E060E5D6E82515C5E24
:1008000083515D5A77515C24016E78515D20026EF0
:10081000000E036E060E046E82C505F583C506F54F
:10082000C3EC8FF08251775D826F83517859836F6B
:100830008151D8B402D0010E01D0000E776F786BD1
:100840008151D8B40BD08207D8A08307000E82252F
:10085000D96E060E8321DA6E81C5DFF47751715FA0
:100860007851725B55C512F556C513F5000E8225F9
:10087000146E060E8321156E71C516F572C517F537
:100880001BEC8FF01200080E0001B16F000E040186
:10089000186F1969C968000E106F1169C868089B44
:1008A000BF9AC79A0899BF88C798009BBE8AC69A04
:1008B0002095C284CA94089DBF8CC79C089FBF8E98
:1008C000C79E3F0E0201036F04010095C694660E99
:1008D000436FA60E446F000E456F000E476F4691A2
:1008E000468B468F00970187C68600990189C68886
:1008F00000910181C68000930183C682089109811D
:10090000C78008930983C78208950985C78408971B
:100910000987C78620912181CA8020932183CA82BA
:10092000010E0201D56FA00ED46FD189D18B0401C5
:10093000009FC68E070E0201766F0401009DBE8CDB
:10094000C69C260E0201076FD28F000E136E240E76
:10095000146EF40E156E410E166E04014351016EB5
:100960004451026E4551036E046A000E5FEC8CF038
:1009700001C50FF502C510F503C511F504C512F543
:100980001DEC86F00FC528F510C529F511C52AF50F
:1009900012C52BF5000E2C6E240E2D6E740E2E6ECD
:1009A000490E2F6E39EC89F028C5ABF529C5ACF599
:1009B0002AC5ADF52BC5AEF5E10E0501A16FFF0E01
:1009C000A26FABC5A3F5ACC5A4F5ADC5A5F5AEC585
:1009D000A6F551EC90F0030E0201616F080E636FF3
:1009E000090E646F0A0E676F0B0E686F000E000130
:1009F000D56F020ED86F030ED96F060EDA6F070E91
:100A0000DB6F020EDC6F040EDD6F100EDE6F400E2A
:100A1000DF6F800ED76F820ED66F010ED56F020E7C
:100A2000D86F030ED96F060EDA6F070EDB6F010E5B
:100A3000DC6F080EDD6F100EDE6F400EDF6F000EF4
:100A4000D76F820ED66F020ED56F000ED86F330EA1
:100A5000D96F7F0EDA6F7F0EDB6F010EDC6F080E31
:100A6000DD6F100EDE6F400EDF6F000ED76F820E4F
:100A7000D66F550E0401596FAA0E596F5991080E81
:100A80005D6F000E5E6F000E5F6F550E596FAA0E00
:100A9000596F5981D68EBF8ACEB8FED7D1C4BCF566
:100AA000D0C4BBF5CEA8FED70001D4A590D0BE9A85
:100AB000CEA25AD0000EC96E000EC86E0501BCBF92
:100AC00029D0FE0EBB15A96F7F0EBC15AA6FE10ED3
:100AD000A925F66E9F0EAA21F76EF86A000EF8227D
:100AE0000800F5C4C1F4FE0EBB15A96F7F0EBC153E
:100AF000AA6F010EA927000EAA23E10EA925F66E02
:100B00009F0EAA21F76EF86A000EF8220800F5C4BD
:100B1000C0F424D0BC51F00B800AD8A41DD0FE0E26
:100B2000BB15A96F0F0EBC15AA6F500EA925D96E63
:100B3000060EAA21DA6EDF50C16EFE0EBB15A96F3C
:100B40000F0EBC15AA6F510EA925D96E060EAA214B
:100B5000DA6EDF50C06E02D0C168C068BE8ACEA017
:100B6000FED7C968C86898D70501BC51F00B800A48
:100B7000D8A429D0D2A20BD0FF0EBB15A96F0F0E9F
:100B8000BC15AA6F500EA925D96E060E18D0FE0E00
:100B9000BB15A96F0F0EBC15AA6F500EA925D96EF3
:100BA000060EAA21DA6ED1C4DFF4FE0EBB15A96FC2
:100BB0000F0EBC15AA6F510EA925D96E060EAA21DB
:100BC000DA6ED0C4DFF4BE8ACEB066D7FDD7D4A328
:100BD00063D7BE9ACEA223D0000EC96E000EC86E97
:100BE000CEB0FED7050E0501BB19BC11D8A409D0A3
:100BF000000EB7B2010E040DF350B7B0010FC06E76
:100C00000AD0070EBB19BC11D8A403D0C7C2C0F4C8
:100C100002D0C068C168BE8ACEB0A3D7FDD7070E88
:100C20000501BB19BC11D8A404D0CEB0FED7D0C4E6
:100C3000C9F2BE8ACEB030D7FDD71250800B1B6EE2
:100C400012501224216E11BE21802150D8B40DD033
:100C50002128D8A408D0000E0F6E000E106E000ED2
:100C6000116E000E126E118E08D0000E0F6E000E67
:100C7000106E000E116E000E126E1650800B1B1AB5
:100C8000165016241C6E15BE1C801C50D8B40DD0F6
:100C90001C28D8A408D0000E136E000E146E000E8F
:100CA000156E000E166E158E08D0000E136E000E17
:100CB000146E000E156E000E166E1C50D8B403D0C4
:100CC0002150D8A409D0000E0F6E000E106E000E39
:100CD000116E000E126E120015500F02F3C426F5AD
:100CE000F4C427F526501D6E1E6A1F6A206A27501D
:100CF000226E236A246A256A14501002F3C426F572
:100D0000F4C427F526501D26000E1E221F22202285
:100D100027502226000E23222422252213501102BE
:100D2000F3C426F5F4C427F526501D26000E1E2216
:100D30001F22202227502226000E23222422252291
:100D40001FC520F51EC51FF51DC51EF51D6A1350D4
:100D50001002F3C426F5F4C427F526501D262750AB
:100D60001E22000E1F22000E202214500F02F3C478
:100D700026F5F4C427F526501D2627501E22000E06
:100D80001F22000E20221FC520F51EC51FF51DC500
:100D90001EF51D6A13500F02F3C426F5F4C427F59F
:100DA00026501D2627501E22000E1F22000E202234
:100DB00015501002F3C426F5F4C427F52650222658
:100DC00027502322000E2422000E25221450110247
:100DD000F3C426F5F4C427F52650222627502322F3
:100DE000000E2422000E252215501102F3C426F510
:100DF000F4C427F52650176E2750186E196A1A6A20
:100E000019C51AF518C519F517C518F5176A175039
:100E1000222618502322195024221A50252220500D
:100E20002226000E2322242225221FC520F51EC5BE
:100E30001FF51DC51EF51D6A1C5021C517F5186A42
:100E40001726000E1822820E1724266EFF0E182079
:100E5000276E0FD0D890223623362436253620BE72
:100E60002280D8901D361E361F3620362606D8A082
:100E7000270624AEEFD7000E1C6E20AE17D0FF0E53
:100E80001D14176EFF0E1E14186EFF0E1F14196E20
:100E90007F0E20141A6E1750181019101A10D8B49B
:100EA00003D0010E1C6E02D022B0FBD71C50D8B468
:100EB0001FD0010E2226000E23222422252225A047
:100EC00017D022C517F523C518F524C519F525C572
:100ED0001AF51A341A3219321832173217C522F598
:100EE00018C523F519C524F51AC525F5264A272A5C
:100EF00027BE0DD0275003E12628D8A008D0000E29
:100F0000226E000E236E800E246E7F0E20D027BE30
:100F100005D027500EE12604D8B00BD0000E226E6B
:100F2000000E236E000E246E000E256E000E1B6E4A
:100F30000FD026C521F5FF0E2216FF0E23167F0EB9
:100F40002416000E251621B0248ED8902130256E4F
:100F50001B50251222C50FF523C510F524C511F528
:100F600025C512F512000450800B0D6E04500424A8
:100F70000F6E03BE0F800F50D8B40DD00F28D8A429
:100F800008D0000E016E000E026E000E036E000E01
:100F9000046E038E06D0000E016E000E026E000E6F
:100FA000036E000E046E0850800B0E6E0D500E186E
:100FB000D8A40D8C085008240E6E07BE0E800E506B
:100FC000D8B40DD00E28D8A408D0000E056E000E9F
:100FD000066E000E076E000E086E078E06D0000E1D
:100FE000056E000E066E000E076E000E086E0F50A6
:100FF0000E5CD8B022D00DAC02D0800E0D1A0FC5F9
:1010000010F50EC50FF510C50EF501C510F505C597
:1010100001F510C505F502C510F506C502F510C5A8
:1010200006F503C510F507C503F510C507F504C59A
:1010300010F508C504F510C508F5000E106E0F5028
:101040000EC509F50A6A095E000E0A5A0ABE2CD0BE
:101050000A5004E11A0E095CD8A026D001500210F3
:1010600003100410D8B402D0010E01D0000E106E8F
:10107000000E016E000E026E000E036E000E046E76
:101080000EC50FF515D010A005D0D890103001096D
:10109000106E02D0D890103201B0108E0434043299
:1010A0000332023201320F2A0E500F5CD8A0EBD768
:1010B0000DBC28D00F50D8A409D0000E016E000E30
:1010C000026E000E036E000E046E12000550012623
:1010D00006500222075003220850042204A071D0B7
:1010E00010A005D0D89010300109106E02D0D89011
:1010F000103201B0108E0434043203320232013255
:101100000F2A5FD00550015C065002580750035863
:101110000450800A096E0850800A0958D8B025D0BA
:101120000150055C096E025006580A6E03500758BC
:101130000B6E045008580C6EFF0E0924016EFF0E52
:101140000A20026EFF0E0B20036EFF0E0C20046EB1
:10115000800E0D1A106C1050D8A40FD0010E01266D
:10116000000E02220322042208D00550015E065020
:10117000025A0750035A0850045A01500210031033
:101180000410D8A41CD01050D8A419D0000E016EA1
:10119000000E026E000E036E000E046E1200D89058
:1011A000013602360336043610BE018010A002D08C
:1011B000D88001D0D89010360F50D8A40F0603AEB7
:1011C000EED7000E0E6E10AE0BD010C509F57F0ED7
:1011D0000916D8B403D0010E0E6E02D001B0FBD7B1
:1011E0000E50D8B420D0010E0126000E0222032298
:1011F000042204A018D001C509F502C50AF503C5EB
:101200000BF504C50CF50C340C320B320A320932E2
:1012100009C501F50AC502F50BC503F50CC504F5B2
:101220000F28D8A40F2A0F28D8B403D00F50D8A461
:101230000DD0000E016E000E026E000E036E000E49
:10124000046E0F50D8A402D0000E0D6E0FA002D075
:10125000038E01D0039ED8900F30046E0DBE048E15
:1012600001C501F502C502F503C503F504C504F582
:1012700012002B50800B386E2B502B243F6E2ABE51
:101280003F803F50D8B40DD03F28D8A408D0000EDE
:10129000286E000E296E000E2A6E000E2B6E2A8E0E
:1012A00006D0000E286E000E296E000E2A6E000E6B
:1012B0002B6E2F50800B381A2F502F24406E2EBECD
:1012C00040804050D8B40DD04028D8A408D0000E9B
:1012D0002C6E000E2D6E000E2E6E000E2F6E2E8EBA
:1012E00006D0000E2C6E000E2D6E000E2E6E000E1F
:1012F0002F6E2C502D102E102F10D8A417D0000EAA
:10130000286E000E296E000E2A6E000E2B6E800EC7
:101310002A127F0E2B1238502B1228C528F529C50A
:1013200029F52AC52AF52BC52BF512003F50D8A464
:1013300009D0000E286E000E296E000E2A6E000ED7
:101340002B6E120040503FC530F5316A305E000E02
:10135000315A7F0E3024396E000E31203A6E28C586
:1013600034F529C535F52AC536F52BC537F5000EF8
:10137000286E000E296E000E2A6E000E2B6E000ED7
:101380003B6E000E3C6E000E3D6E000E3E6E000E7B
:10139000406E28D04050D8B411D0D890343635366D
:1013A00036363736D890283629362A362B363EBE82
:1013B0002880D8903B363C363D363E362C50345C47
:1013C0002D5035582E5036582F503758D8A009D0A8
:1013D0003E8C2C50345E2D50355A2E50365A2F509C
:1013E000375A402A190E4064D5D73450351036107C
:1013F0003710D8B411D03B800FD0D890283629367A
:101400002A362B363EBE2880D8903B363C363D36B9
:101410003E363906D8A03A062AAEEFD7000E406E07
:101420003EAE17D0FF0E3B14306EFF0E3C14316EF3
:10143000FF0E3D14326E7F0E3E14336E305031106D
:1014400032103310D8B403D0010E406E02D028B051
:10145000FBD74050D8B41FD0010E2826000E2922F9
:101460002A222B222BA017D028C530F529C531F50B
:101470002AC532F52BC533F53334333232323132AB
:10148000303230C528F531C529F532C52AF533C5C6
:101490002BF5394A3A2A3ABE10D03A5003E139289E
:1014A000D8A00BD0000E3A6E3968000E286E000EE0
:1014B000296E000E2A6E000E2B6E3ABE05D03A50F1
:1014C00011E13904D8B00ED0000E3A6E000E396E1C
:1014D000000E286E000E296E000E2A6E000E2B6E76
:1014E000000E386E39C53FF53FA002D02A8E01D0DC
:1014F0002A9ED8903F302B6E0ED78EC5D9F48FC55B
:10150000DAF4DEC4F6F4DDC4F7F4000EF86E080079
:10151000F550250AD8A4EAD08EC5D9F48FC5DAF4DF
:10152000DE2A000EDD22000EB86F000EB76FB7C5C1
:10153000BDF5B969BA698EC507F58FC508F590C5BF
:1015400009F591C50AF52AEC8EF007C5B7F508C56F
:10155000B8F50501B8AF05D0BD81B76DB81FD8B0DB
:10156000B82B8EC5D9F48FC5DAF4DEC4F6F4DDC429
:10157000F7F4000EF86E0800F5502E0AD8A415D026
:101580008EC5D9F48FC5DAF4DE2A000EDD228EC5B1
:1015900007F58FC508F590C509F591C50AF52AEC40
:1015A0008EF007C5B9F508C5BAF58EC5D9F48FC553
:1015B000DAF4DEC497F5DDC498F597C5F6F498C55E
:1015C000F7F4000EF86E0800F5C496F508D0974BB6
:1015D000982B18D06C0E01D0000E966F13D0050119
:1015E00096515E6E5F6A5F50000AD8A4F5D75E50D0
:1015F0004C0AD8B4ECD72A0AD8B4ECD70A0AD8B423
:10160000E6D7EAD797C5F6F498C5F7F4000EF86E5A
:101610000800F550660AD8B41AD060D090C5D9F445
:1016200091C5DAF4DFC45EF5040EDE26DFC45FF593
:10163000000EDD225EC5D9F45FC5DAF4DEC492F592
:10164000DEC493F5DEC494F5DEC495F50ED0965154
:101650005E6E5F6A5F50000AD8A407D05E504C0AE5
:10166000D8B4DCD7200AD8B4D9D7010E97255E6E3E
:10167000000E98215F6E8EC5D9F48FC5DAF45EC571
:10168000DEF45FC5DDF418D08CC555F58DC556F573
:1016900092C557F593C558F594C559F595C55AF5B2
:1016A00097C5F6F498C5F7F4000EF86E0800F5C477
:1016B0005BF500EC80F0120097C5F6F498C5F7F4DE
:1016C000000EF86E0800F5505E6E5F6A5F50000A0B
:1016D000D8A404D05E50660AD8B4D6D78EC5D9F443
:1016E0008FC5DAF4DE2A000EDD2212008EC5D9F491
:1016F0008FC5DAF4DEC4F6F4DDC4F7F4000EF86E3C
:101700000800F550026E036A8CC504F58DC505F519
:1017100086EC8EF0E3D7AFC551F5B0C552F5B1C533
:1017200053F5B2C554F541C551F542C552F543C50F
:1017300053F544C554F5810E456EFF0E466E51C5F6
:1017400047F552C548F553C549F554C54AF5180E35
:1017500005D0D8904A32493248324732E82EF9D77C
:10176000475045244F6E000E4620506E50BE0FD09D
:10177000505004E1170E4F5CD8A009D041C541F587
:1017800042C542F543C543F544C544F5120050BE79
:101790005BD04FC545F5FF0E466EFF0E476E7F0EC0
:1017A000486E000E496E456601D007D04934493273
:1017B000483247324632452EF6D746C54BF547C527
:1017C0004CF548C54DF549C54EF54B505114456E85
:1017D0004C505214466E4D505314476E4E50541494
:1017E000486E4550461047104810D8B4C7D751C569
:1017F00045F552C546F553C547F554C548F5200E85
:1018000005D0D8904832473246324532E82EF9D7D3
:101810004550D8B408D04B5051264C5052224D5010
:1018200053224E5054224B1C456E4C1C466E4D1C90
:10183000476E4E1C486E4550511646505216475042
:1018400053164850541632D051C545F552C546F589
:1018500053C547F554C548F5200E05D0D8904832F9
:10186000473246324532E82EF9D7456608D0000E99
:10187000516E000E526E000E536E000E16D0D890B0
:101880005134456E5234466E5334476E5434486E6C
:101890004550461047104810D8B408D0000E516E7D
:1018A000000E526E800E536EBF0E546E51C541F540
:1018B00052C542F553C543F554C544F51200096EAF
:1018C0000950D8A404AE1AD001C505F502C506F525
:1018D00003C507F504C508F5051E061E071E081EEC
:1018E000052A000E06220722082205C50BF506C5AB
:1018F0000CF507C50DF508C50EF508D001C50BF5AB
:1019000002C50CF503C50DF504C50EF50150021016
:1019100003100410D8A409D0000E016E000E026E50
:10192000000E036E000E046E1200960E0A6E06D0B4
:101930000A2AD8900E320D320C320B32000E0B14E4
:10194000056E000E0C14066E000E0D14076EFE0ED2
:101950000E14086E0550061007100810D8B40DD0EC
:10196000E7D70A2A010E0B26000E0C220D220E22AA
:10197000D8900E320D320C320B32000E0B14056E65
:10198000000E0C14066E000E0D14076EFF0E0E14E2
:10199000086E0550061007100810D8B407D0E1D71C
:1019A0000A06D8900B360C360D360E360DBE03D017
:1019B000020E0A60F5D70AA00D9ED8900A320AC519
:1019C00005F5066A076A086A05C508F5076A066A22
:1019D000056A05500B1206500C1207500D120850E4
:1019E0000E120950D8A404AE01D00E8E0BC501F51D
:1019F0000CC502F50DC503F50EC504F51200000E69
:101A00002814306E000E2914316E800E2A14326EA6
:101A10007F0E2B14336E3050311032103310D8A497
:101A200008D0000E286E000E296E000E2A6E000EE1
:101A30002B6E000E2C14306E000E2D14316E800EA5
:101A40002E14326E7F0E2F14336E30503110321040
:101A50003310D8A408D0000E2C6E000E2D6E000E90
:101A60002E6E000E2F6E2BAE09D0286C291ED8B01A
:101A7000292A2A1ED8B02A2A800E2B562FAE09D02A
:101A80002C6C2D1ED8B02D2A2E1ED8B02E2A800EDA
:101A90002F56000E281A000E291A000E2A1A800E40
:101AA0002B1A000E2C1A000E2D1A000E2E1A800E64
:101AB0002F1A2C50285C2D5029582E502A582F5060
:101AC0002B58D8B002D0D8901200D8801200B3C5DD
:101AD0000BF5B4C50CF5B5C50DF5B6C50EF501C5CC
:101AE0000BF502C50CF503C50DF504C50EF50BC5C8
:101AF00005F50CC506F50DC507F50EC508F5180E5C
:101B000005D0D8900832073206320532E82EF9D7D0
:101B10000550096E0A6A09500A10D8A419D0D89045
:101B20000B34056E0C34066E0D34076E0E34086EE1
:101B30000550061007100810D8A405D0000E026E3C
:101B4000020E016E1200000E026E030E016E1200F4
:101B500009280A10D8A41CD00BC505F50CC506F53C
:101B60000DC507F50EC508F5090ED89005360636E1
:101B700007360836E82EF9D705500610071008106A
:101B8000D8A402D0010E01D0000E016E026A12002C
:101B9000000E026E040E016E1200033404340A6E4D
:101BA0000A50D8A409D0000E016E000E026E000E7D
:101BB000036E000E046E120001C505F502C506F5A0
:101BC00003C507F504C508F5200E05D0D8900832E6
:101BD000073206320532E82EF9D70550096E038E1A
:101BE000FF0E0116FF0E0216FF0E0316000E04165E
:101BF000960E0A5E0AAE0DD00A50800A970FD8A042
:101C0000D2D7D89004320332023201320A3EF9D7D9
:101C10000DD01F0E0A6407D0C6D7D8900136023601
:101C2000033604360A060A50D8A4F7D70950D8B4A8
:101C300008D0041E031E021E016C000E02220322A5
:101C4000042201C501F502C502F503C503F504C56B
:101C500004F51200000E0F6E000E0E6E07C5D9F4CB
:101C600008C5DAF4DEC4F6F4DDC4F7F4000EF86E4D
:101C70000800F5502A0AD8A433D007C5D9F408C5FE
:101C8000DAF4DE2A000EDD2209C5D9F40AC5DAF439
:101C9000DFC40BF5020EDE26DFC40CF5000EDD22DC
:101CA0000BC5D9F40CC5DAF4DEC40EF5DDC40FF5AE
:101CB00028D00EC501F50FC502F5000E046E0A0E00
:101CC000036E64EC90F00D5001240E6E000E0220A5
:101CD0000F6E07C5D9F408C5DAF4DE2A000EDD223E
:101CE00007C5D9F408C5DAF4DEC4F6F4DDC4F7F4A8
:101CF000000EF86E0800F550D00F0D6E090E0D6441
:101D0000D8D70EC507F50FC508F512000450051009
:101D1000D8B404D004500510D8A404D0025077ECF5
:101D200090F0120020EE0AF00450D9260550DA2275
:101D3000DE50DE10D8B416D020EE0AF00450D926BA
:101D40000550DA2210EE03F00450E1260550E2229D
:101D5000DE50E65CE650800A0A6EDE50800A0A58C1
:101D6000D8B0120020EE03F00450D9260550DA2234
:101D7000DEC406F5DDC407F504C5D9F405C5DAF4FB
:101D8000DEC408F5DDC409F506500824D96E0750F5
:101D90000920DA6E02C5DFF420EE03F00450D926E4
:101DA0000550DA22DE2A000EDD221200000E011498
:101DB000096E000E02140A6E800E03140B6E7F0E65
:101DC00004140C6E09500A100B100C10D8A408D083
:101DD000000E016E000E026E000E036E000E046E09
:101DE000000E0514096E000E06140A6E800E07140C
:101DF0000B6E7F0E08140C6E09500A100B100C109D
:101E0000D8A408D0000E056E000E066E000E076EF8
:101E1000000E086E055001180AE10650021807E18D
:101E20000750031804E108500418D8B402D0D89021
:101E30001200D8801200BDA10AD014C50BF515C53B
:101E40000CF512C50DF513C50EF505EC90F017AEA7
:101E500004D0000E176E000E166E000E1A6E000EE5
:101E6000196E0CD0000E036E200E026E12C504F522
:101E700013C505F586EC8EF0194A1A2A1650195C1E
:101E80001A50800A186E1750800A1858D8A0EAD73E
:101E90000501BDB1120014C50BF515C50CF512C531
:101EA0000DF513C50EF505EC90F012009BC59FF5DE
:101EB0009CC5A0F50FD099C58CF59AC58DF59F0EE0
:101EC00005018E6F050E8F6F9DC590F59EC591F52E
:101ED0007DEC8AF09FC5F6F4A0C5F7F4000EF86E0D
:101EE0000800F5500009D8A4E6D7000E05019A6F46
:101EF000000E996F120004BE09D001C501F502C59C
:101F000002F503C503F504C504F5120001C505F586
:101F100002C506F503C507F504C508F5051E061E2E
:101F2000071E081E052A000E06220722082205C5E4
:101F300001F506C502F507C503F508C504F512004D
:101F4000000E2C1A000E2D1A000E2E1A800E2F1ABB
:101F500028C501F529C502F52AC503F52BC504F5E9
:101F60002CC505F52DC506F52EC507F52FC508F5B9
:101F7000B3EC87F001C528F502C529F503C52AF59C
:101F800004C52BF5120003C509F504C50AF501C502
:101F900007F502C508F510D009C5D9F40AC5DAF469
