:0400000085EF00F098
:100008005148514851485148514851485148514820
:100018005148514851485148514851485148514810
:100028005148514851485148514851485148514800
:1000380051485148514851485148514851485148F0
:1000480051485148514851485148514851485148E0
:1000580051485148514851485148514851485148D0
:1000680051485148514851485148514851485148C0
:100078005148514851485148420051485148514807
:1000880051485148514851485148514851485148A0
:1000980051485148514851484200514851485148E7
:1000A8005148514851485148514851485148514880
:1000B8005148514851485148514851485148514870
:1000C8005148514851485148514851485148514860
:1000D8005148514851485148514851485148514850
:1000E8004200514851485148514851485148514897
:1000F8005148514851485148514851485148514830
:06010800FF0005EF90F07E
:109FE00000000040004600210F00005E0806483CCB
:109FF0007A82229E083E7E9E080107FFE00A0F5EDD
:10A000005EBD20AF239E0889220A0F20209E0B0AE6
:10A010000F2020E605A174AB480A0C04049E0BBD7A
:10A02000219E088922A1740104FF9F0A0C0505E303
:10A030000CA1740104FFBF0A0C0505E306A174011D
:10A0400004FFD00A0C09099E0BBD219E0893F8A1BC
:10A05000780C84EE028922E80A208F5F0000428794
:10A0600022E602A980E8F90C84BD20AF2697F89E6D
:10A0700008206C2E7CA960A97086CC9E06206C2ED0
:10A080007CA960A97086CCEEFA9E08E8060C74EEF6
:10A090000289229E08A970A960207C0A6CE6F7203C
:10A0A0007A8222206C824483429E0891F893FAAB14
:10A0B000F7A17AA1F1BD37A1F4A9460C452020AB48
:10A0C00040AB30E9FB2109002D87AAE502210900F8
:10A0D0002BBD37A118A1828132A1A5BD7AB14A9BBF
:10A0E00074010400302E2CA1A5B14A9B74A15AAB77
:10A0F0003087AA8D13EAEFA1148134A1902E4889EC
:10A10000220B030007EA0BA1648124A115813520ED
:10A110005D2E4DA930A9200B030007E2F581260C26
:10A1200068A9F797FA95F89E0889220C712B2BE6FF
:10A130000E0C712D2DEE0CE80AA12481448144817E
:10A14000428122207C824481420102FFD0A9700C0E
:10A1500074EEF3894487449E068D229E0889220C62
:10A16000749E06207BA1340104FFD00A0C0909EB80
:10A170000321050030E811A1340104FFBF0A0C05DA
:10A1800005EB0321050037E808A1340104FF9F0A0D
:10A190000C05059E0B21050057B3290004A0BC82C5
:10A1A0004481428352A9700C74EEDC9E08A17401B4
:10A1B00004FF9F0A0C1919E303A0FA82229E08A14A
:10A1C000720102FFE082229E0893F8A178BD755FBC
:10A1D00000000EA722E6FBA186BD775F0000149762
:10A1E000F89E0893F8A1780C84E606208FA9805F7A
:10A1F0000001E80C84EEFA97F89E08CF0D5F00018D
:10A20000E8CF0A5F0001E89E08ABF5BD23A1F5A9E0
:10A2100052A1740704000FB371FFFC0A0C0909EB8B
:10A220000301040030E802010400372E5CAB50ABA0
:10A2300020E9EF4CF80004A1F75F000202A9F59EA7
:10A2400008ABF3BD31A1F2A920A1750705000FA04D
:10A25000FC8244A147B371FFFC0A0D0909EB03011D
:10A26000050030E802010500372E2DAB20AB30E9A8
:10A27000EC4CF80002A1F75F000202A9F39E0893DC
:10A28000F8A178CF5B5F0001E8A1875F000228CFCB
:10A290005D5F0001E897F89E08BD755F00000EA79E
:10A2A00020E6FBBD775F00000E82229E0891F891A8
:10A2B000FAA17AA16B89995F0002B8A1280A0A0D58
:10A2C0000DE6240A0A0909EE0221080020A1800AED
:10A2D000080808EE0B87998D13E208AB90A1875F01
:10A2E0000001E8CF205F0001E8E80CA1875F0000D3
:10A2F000188722E6E18BB9E9DFA1A48194A1802E21
:10A3000048A990A1875F0001E8E8D6819A0CA85F70
:10A3100000021A95FA95F89E081F709E0891F89110
:10A32000FAA178A169A15BBDA70C84E620208F5F0C
:10A330000000268722EE030C812C2CEE16A9800C3F
:10A3400084EEF5E812208F5F0000268722EE0F0CC6
:10A35000812C2CE60CABA00B0AFFFFE608208FA98E
:10A36000805F0001CC2E9AA9900C84EEEC0C980C26
:10A3700084E60D208F5F0000268722EE080C812CDA
:10A380002CE605A9800C84EEF5E801A9800C81205B
:10A3900020E6FC0C84E606208C2EBCA980A9B00C1B
:10A3A00084EEFA0CB895FA95F89E080C712020EE10
:10A3B0000CA9700C712020E6FCE8070C712C2CE62F
:10A3C00006207C2E6CA970A9600C74EEF70C680C4A
:10A3D000712C2CEE01A9700C712020E6FC0C74E6A7
:10A3E00006207C2E5CA970A9500C74EEFA0C589EC5
:10A3F0000891F891FAABFFA17ACF205F0001E8A1A4
:10A40000A75F000228CF205F0001E88988A1FBA197
:10A41000B5818520AC2E5CA9A0A9800B08000FE3B4
:10A42000F78988A1B48184204F5F000260CF205F4C
:10A430000001E8A9800B08000FE3F48988A1B98125
:10A4400089209F5F0000188722E602209FE801CF45
:10A450002E5F0001E8A9800B08000FE3F05F000207
:10A460001AA1A2A9FF95FA95F89E0891F8A178A1E2
:10A470006921073F165F00020221073F1E5F0002AD
:10A480000221073F505F0002025F00021A0708FF27
:10A49000F00709FFF0A1875F000410A1288B98E363
:10A4A000FA95F89E0891F893FA010FFFB0A178A1F0
:10A4B0006A0CA4E62CA1F9A1A5A196A1A75F0003AF
:10A4C000CAA1975F00006C8722E606A1975F000192
:10A4D0007C2E8AA980E8190C912727EE0CA1F5A9FA
:10A4E000500C54E6120C512727E60F205C2E8CA945
:10A4F00050A980E8F621073F565F000202A1975F4E
:10A500000002025F00021AE8020CA4EED5A182014B
:10A510000F005097FA95F89E085F0002B8A1240139
:10A5200004FFBF0A0C0505EB04010200C982229E4C
:10A5300008A1240104FF9F0A0C0505E3040102FFA2
:10A54000D082229E08010200A982229E0893F85F11
:10A55000000538A1285F000538B389000485280765
:10A560000800FFA18297F89E0893F85F00056CA190
:10A57000285F00056CA180A08297F89E0891F8934F
:10A58000FA5F0002B80A0A3A3AEEFB5F00056CA1D6
:10A59000285F000588A1295F00056CA12A86AAEE24
:10A5A0000BE8045F00056C2E9AA990A184AB40A132
:10A5B000480A0CFFFFEEF65F00056CCF2E5F00012E
:10A5C000E8A1A00A080101EEDC5F00021A97FA95E3
:10A5D000F89E0821073F5E5F0002025F00021A2119
:10A5E000073F805F0002025F00021A21073F905F71
:10A5F0000002025F00021A21073FAA5F0002025F09
:10A6000000021A21073FCE5F0002025F00021A21FA
:10A61000073FF45F0002025F00021A210740185F43
:10A620000002025F00021A9E0891F891FA91FC0163
:10A630000FFEC821083EFC21093F15208EBD755F25
:10A64000000014A9808B98E3F9210A80000CF84CD3
:10A65000F800484CF800904CF800D84CF800E04C5A
:10A66000F800E8CF0D5F0001E85F00021A21074003
:10A67000325F0002025F00021A210740565F0002AB
:10A68000025F00021A5F00021AA1FC010C0090A1F7
:10A69000F9010900E0A1FDA1FB010B0048A1A75FA2
:10A6A00000029EA1F8010800E82106004EA1875F84
:10A6B0000002CCA1C5A196A1875F00033CA1D5A152
:10A6C000B6A1C75F0003CA4CF400E8E606A196A154
:10A6D000F7010700D85F00009021064086A1F7012E
:10A6E0000700D85F0000AA8722EE1BA1B75F000019
:10A6F0006C8722E604A1B75F00017CA12AA1D75F85
:10A7000000006C8722E604A1D75F00017CE802A16B
:10A71000A2A92EA126A1A75F00048AA12A5E08068D
:10A72000BC4CF400E05E0606BC2106408CA1975F9D
:10A730000000AA8722EE045F00059C5E0806BC218B
:10A74000064092A1975F0000AA8722EE05A1C75F8D
:10A750000005F25E0806BC21064098A1975F000044
:10A76000AA8722EE045F00221E5E0806BC21064076
:10A770009EA1975F0000AA8722EE18A1B75F000094
:10A780006C8722E608A1B75F00017CA1275F000368
:10A79000385E0806BC210740A45F000202A1B75F33
:10A7A0000002025F00021A5E0806BC210640BAA140
:10A7B000975F0000AA8722EE07A1C6A1A75F000449
:10A7C000C4A12A5E0806BCA1975F00006C87225EC8
:10A7D0000606BCA1975F00017CA12A5E0806BC7D2D
:10A7E0007B9E087D23B324070200FF9E08BD755F92
:10A7F00000000E070200019E08CF0D5F0001E8CFA8
:10A800000A5F0001E89E0891F891FA946A540840A2
:10A81000BE94845F0028D08722EE0E5F000802A15C
:10A8200028A187B16A5F002A1487885E0D09045445
:10A830000440C25E0808FE9484540690145F002809
:10A84000D08722EE115F000802A128A980A187B15C
:10A850006A5F002A148788ED05540440C294265F7D
:10A860000025625D029014540690145F002A7E94C5
:10A8700026B36D0009922696669666962616060001
:10A880000024A2140800008000B1479A8494429CDE
:10A8900028E50494265F002A14E810A1348966A1F3
:10A8A00047070700019424B345FFFF854685575F9E
:10A8B000002A14942494265F0025625D029014946B
:10A8C000265F002A7E942894A65F002A7E948694B0
:10A8D00028B1479A8494465F002A14540440C694D1
:10A8E000265F00256295FA95F89E08AB50A0DA0A1B
:10A8F0000DFFFFE60DA0AC824481640A4FEE02BD5D
:10A90000219E08A124AB40A0CA0A0CFFFFEEF389E8
:10A91000229E08A1740104FF9F0A0C1919EB06A1DD
:10A92000740104FFE0A0CA82229E08A0FA82229E3F
:10A93000080107FFE00A0F5E5EBD20AF239E088975
:10A94000220A0F2020E605A174AB480A0C04049EDD
:10A950000BBD219E080107FFD00A0F0909BD20AFDA
:10A96000239E088922A1740104FF9F0A0C1919E390
:10A9700006A1740104FFBF0A0C19199E0BBD219E8C
:10A980000893F8A1780C84E606208FA9805F000167
:10A99000E80C84EEFA97F89E0891F889995F000216
:10A9A000B8A1280A0A0D0DE62D0A0A0909EE0221AE
:10A9B000080020A1800A080808E6030A087F7FEE45
:10A9C0000EA1908688E60BAB90CF085F0001E8CF20
:10A9D000205F0001E8CF085F0001E8E8E0A1875FA1
:10A9E00000095086AAE6DBA1900A089E9EEBD7A13B
:10A9F00094A9908244A1806E489140A1875F000194
:10AA0000E8E8CD5F000818A19482444C489140A129
:10AA1000908688E6112108FFFF8198A189A1848290
:10AA200044604F91405F00095E86AAEEF4A980A1C0
:10AA30008482444C48914095F89E0891F891FA918F
:10AA4000FCABF594685DF4000289DD5F002A7E941A
:10AA50002A9CA8ED0CC8016EF800018DA08DB016DF
:10AA60000A0000000194865F002AE0E80489006E75
:10AA7000F8000194825404438E94265F002562946A
:10AA80002894A65F002A14942494865F0025A45479
:10AA900004439294265F0025F294265F002A7E4CA0
:10AAA00008914AC90A9C288D13E22B89CC942689E7
:10AAB00088BD9AB1479A84A0DE86DDEE03A1D086D8
:10AAC00088E60ABDD1A115AB50A0D98255A1640179
:10AAD0000400306E5C91409426B1471A04000000D7
:10AAE0000A9462A9C0A1C00A080404E3E0A1D086C8
:10AAF00088E607A114AB40A0C982444C4591402E82
:10AB00002EA113AB30A0B9A0BA822294A68988BD29
:10AB10009AB1479A84010500306E2D914094A6B1F8
:10AB2000479A84946A9CA88D13EAEB60F80001862A
:10AB300088E607A134AB40A0C982444C4591402D22
:10AB40002D8211A11ABD6A83A6A167B16A5F002A8E
:10AB500014942854F4000294865F0029A88722EDFB
:10AB60000CCF205F0001E85404439654F600025FC6
:10AB70000025A45DF20002E8EDA1A7010791405F66
:10AB80000009A0A9F595FC95FA95F89E0891F89111
:10AB9000FA91FCABF589BBA1BA5F0002B8A1280A03
:10ABA0000A0D0D5E060C4A0A0A0808E6030A0A7F27
:10ABB0007FEE12A1A08688E612ABA0CF085F00014D
:10ABC000E8CF205F0001E8CF085F0001E8A1B08670
:10ABD00088E6E3ABB0E8E1A1A08688EE07A1800A91
:10ABE000082B2BE6130A082D2DE610A1A00A080554
:10ABF00005EBD3A1875F00097486AAEE07A1800A3E
:10AC0000082E2EEECAA1B08688EEC7A1800A082EB3
:10AC10002EEE01A9B0A1A4A9A08244A1806E489102
:10AC200040A1875F0001E85E080BB85F000818A12B
:10AC3000A482444C489140600C914082440B040033
:10AC40002BE6050B04002DEE07C801E80189006E14
:10AC5000F80005BDA1E80489006EF8000589AA5432
:10AC60000C439A94C889BB5400439E1DF05E080DA6
:10AC7000284C4191402E2EEE04A9B0A9A05E080DEB
:10AC800028A1B08688E61C540443A214F65F00276E
:10AC9000401DF2A1A4A9A08244604E9140826601A9
:10ACA00006FFD0A167B16A5F002A14942414F65FEE
:10ACB0000025F2942494865F0025629428E82454A9
:10ACC0000443A294C65F0025F29428A1A4A9A082FF
:10ACD00044604E91408266A167B16A5F002A149475
:10ACE0002494865F002562540443A694265F0025C1
:10ACF000A49428948494C65F00293C87228D13E293
:10AD0000034C05908A0202948CA1A482444C449185
:10AD1000405E0E0C9060F800058688EE0294C2E852
:10AD20000394C65F002AE0A9F595FC95FA95F89E74
:10AD30000891F891FA91FCABFB89CC210B9140C8AA
:10AD4000016EF800014C0491405E06109620BF5F32
:10AD500000095E86AAE602A9B0E8F960F80001865B
:10AD600088E60A20BF5F00097486AABD40AF46A1ED
:10AD70004D89006EF800018999A194824481446153
:10AD80004840CAA1BA0C84E60C20AF5F000932200B
:10AD90008C8AACEE04A980A9A00C84EEF60C84EE9B
:10ADA0000DA1C00A089E9E5E0B1038A1C4A9C082E6
:10ADB00044A1906E489090A1ABE805A990A1900A9B
:10ADC000082323E3DAA1900A080808EE3720BF5FC2
:10ADD00000095E86AAE602A9B0E8F98999A1BAA994
:10ADE000A00CB4E605A99020ACA9A086CCEEFBA1EE
:10ADF000C28222A19582552104009E83548B425E1B
:10AE0000091038A1C4A9C08244A1906E489090A1B5
:10AE100094AB40A1490A0CFFFF5E061096A1C5A99C
:10AE2000C0825520BC6E5C9090A9B0A194AB40A1AB
:10AE3000490A0CFFFFEEF35E0810960C845E0610C4
:10AE400090A1BA20BF5F00097486AAEE040CB12E4F
:10AE50002E5E0E0F98540443AA5DF40008944889AE
:10AE6000BB540043AE5DF000020CA12E2EEE08A1F3
:10AE7000D08688E628A1B08688EE25BDB1A9A0A11C
:10AE8000B08688EE26540443B254F600085F0025CD
:10AE9000F2942820AE8266A167B16A5F002A1494FA
:10AEA0002494865F002562540443B694265F0025EF
:10AEB000A49428A9A0948454F600085F00293C8734
:10AEC000228D13E2214C05908A020289225E08102D
:10AED000A6540443B254F600025F0027405DF2001E
:10AEE0000220AE82660106FFD0A167B16A5F002A28
:10AEF00014942454F600025F0025F2942494865F93
:10AF00000025629428A9A05DF8000820AF5F000921
:10AF10007486AA5E0E0E880CA12E2E5E060E8EA1E1
:10AF2000C00A089C9C5E0B1038A9D0A1C5A950A1ED
:10AF3000C482444C4590902424A0DA822260FC0014
:10AF4000086E2C9090A950A0DA822260FC00096E55
:10AF50002C9090A950A0DA8222AB5160FC000A6EBE
:10AF60002C9090A15CA9C3A952825560FC000B6E85
:10AF70005C9090A1AB5E0810900CB12222E6040C0C
:10AF8000B127275E0E102620B86EF80007A9B0A1E1
:10AF9000BA899920BC8A8CE60C20AF5F00095086E4
:10AFA000AAE607A9A0A99020AC60F800078A8CEE59
:10AFB000F4A1C28222A19582552104009F83548B63
:10AFC00042E92BA1C4A940A1C582554C55909026B9
:10AFD00026A14CA9C08244A1906E489090E807A198
:10AFE000C5A9C0825520BC6E5C9090A9B0A194AB5D
:10AFF00040A1490A0CFFFFEEF320BC60F800078A6D
:10B000008CEE37A9B0E83520BF5F00098286AAE63A
:10B010002BA1C00A089D9DE3054C05908A04048974
:10B0200022E832A1C00A080303E30AA1C482444C07
:10B0300041908E2525EE044C41908C2525E614BDCB
:10B040008181C8A1C482444C459090252520AF5FE2
:10B05000000932A18CA9C0070800FF0102FFBF6EE2
:10B060008A9090A9B0E8054C05908A14148922E8CA
:10B070000B0CB45E0E0D6CA1C4A9C082444C45906B
:10B08000902727A1C28222A9FB95FC95FA95F89EEC
:10B0900008ABF3207C2EFCA970207C6EFC0001A97B
:10B0A00070207C6EFC0002607C00016EFC000314CA
:10B0B000F2A9F39E080C74E604A9705F0010B09E1C
:10B0C00008540243BA9E0893F891FA946A210880C2
:10B0D000004C048000E60EA1875F0010D494A49475
:10B0E000265F0029728722ED05208C824481480C5E
:10B0F00084EEF2A18295FA97F89E08210580004C13
:10B10000048000E605205C824481450C54EEFB215E
:10B11000068FFF8356A167B16A5F002A149E0891CB
:10B12000F891FA91FCABF15F00111A9428600E902F
:10B13000908266A167B16A5F002A14942494865FA6
:10B140000029A88722ED054C05908A05055E0812A6
:10B15000AA210790905F0010D494265F0010E62F7C
:10B16000F2A1275F0010D49428210790905F00106F
:10B17000D4942494865F0028D08722EE3121FC20CD
:10B18000CC8244A1CD814D20D8A108A187B170B156
:10B190006A5F002A14942AA1808688ED065404432D
:10B1A000BE94A65F002562942A540443C294A65F0D
:10B1B0000029068722E61394A8540443C694865FA8
:10B1C0000025A4942A540443C294865F002906876C
:10B1D00022E6DA20DC2ECCA9D0A9C0E8ED0CC84CC0
:10B1E00001909006065E0612AA21FC0CC4E605201A
:10B1F000CC8244814C0CC4EEFBA1C621F08306A98D
:10B2000060A167B16A5F002A14942A600C90908252
:10B2100044A1CD814D94A8540443C694865F002573
:10B22000A4942A540443C294865F0029068722E628
:10B230000520CC2EDCABC0ABD0E8ED60089090A12F
:10B2400008A187B170B16A5F002A14942AA1808690
:10B2500088ED06540443BE94A65F002562942A211B
:10B26000FC210D909094A8540443C694865F002559
:10B27000A4942A540443C294865F0029068722E6D8
:10B280000520DC2ECCA9D0A9C0E8EDA9F195FC954C
:10B29000FA95F89E0891F893FAA1790C9127275E08
:10B2A0000613EC0C912323EB2E209C8244814461F5
:10B2B0004740CA5F0009A0CD13210641A4209F5F2B
:10B2C00000090A86AAEE03CF205F0001E80C91086E
:10B2D00008EE17A9902098A108A990A184AB40A1DD
:10B2E000480A0CFFFF5E0613EC209FA9905F000147
:10B2F000E8A184AB40A1480A0CFFFFEEF65E0813FC
:10B30000ECA990E8CB0C912424EE15A990A1975FAD
:10B310000010B0540443CA94265F000A5AA993CD82
:10B320000F210641B8209F5F00090A86AA5E0E120F
:10B33000BA5E0813DC0C912525EE14A990209FA974
:10B3400090010700415F0001E8CD0F210641B820C0
:10B350009F5F00090A86AA5E0E12BAE830210A0031
:10B3600027E8150C912626EE2F210A0022A990200D
:10B3700098A1088688E60BA184824481940C41221E
:10B3800022E6EDA184AB40A14886CCEEF5A1A75FF3
:10B390000001E82098A108A990E804209FA9905FE7
:10B3A0000001E8A184AB40A1480A0CFFFFEEF6A122
:10B3B000A75F0001E80C9125255E0E12BACF205F31
:10B3C0000001E85E0812BA4C05908A151597FA95A7
:10B3D000F89E086104930E0C411313E6064C059089
:10B3E0008A1111540243CE9E08A9406F04930E5F48
:10B3F0000016844C04908AE603540243CE9E0861F2
:10B4000004930E0C411414EE04A9406F04930E9E95
:10B41000084C05908A1111540243CE9E0891F861A0
:10B4200007930E207C8244AB4E0B0400165E0B1576
:10B43000A081446144145A5E48145A0052004201EB
:10B44000460146008A014601460146014601460181
:10B45000460146009400D000EC011A014601460165
:10B460004601460146002E006CA9706F07930E5FDF
:10B470000010B094286903930E5E0815A6A9706F9A
:10B4800007930E5F00143C94285E0815A6A9706F00
:10B4900007930E5F00143C9424540643D25F0025AA
:10B4A000A494285E0815A6A174A9406F04930E20E9
:10B4B0004C82448144814454489020A9716F079381
:10B4C0000E5E0815A65F0013F294285E0815A6A963
:10B4D000706F07930E5F0013F294284C04908A5EFD
:10B4E0000E15A6540443D694865F0029728722E580
:10B4F000044C05908A0303E84794865F002A7EA1E6
:10B500003481448144544891F0E83EA9706F079318
:10B510000E5F0013F294284C04908AEE3594865FF7
:10B520000008269428E830A9706F07930E5F001377
:10B53000F294284C04908AEE27540443D294865FF8
:10B540000029A88722ED20540443DA94865F002561
:10B55000F29428E819A174A9406F04930E0C4113CA
:10B5600013EE044C4100011414E6044C05908A11BA
:10B5700011E80AA9726F07930E5F00111A9428E868
:10B58000034C05908A1414948295F89E0891F891C2
:10B59000FA5F00143C942A4C04908AE60354024358
:10B5A000DEE8316105930E205C82440B040011E655
:10B5B000040B040012E60DE825A9506F05930E5FF9
:10B5C00000143C9428948494A65F0025F2942AE801
:10B5D000E9A9506F05930E5F00143C94285404436E
:10B5E000E294865F0028D08722EE064C05908A01FF
:10B5F00001540243DEE807948494A65F0027409438
:10B600002AE8D094A295FA95F89E0891F85F001563
:10B61000AC94284C04908AE603540243E6E8216186
:10B6200005930E205C82440B04000FE60E0B040011
:10B6300010EE16A9506F05930E5F0015AC9424947C
:10B64000865F0025629428E8EBA9506F05930E5F92
:10B650000015AC942494865F0025A49428E8E09417
:10B660008295F89E0891F85F00162A94284C049061
:10B670008AE604540243EA5E08177E6105930E20B1
:10B680005C82440104FFEB0B0400055E0B177C8118
:10B6900044614416B85E4816B800A0002C00820031
:10B6A0000C00640048A9506F05930E5F00162A94A1
:10B6B0002494865F0028D0540643F287225E0E173A
:10B6C000765E081772A9506F05930E5F00162A94D4
:10B6D0002494865F002906540643F28722E63CE85C
:10B6E00039A9506F05930E5F00162A942494865F43
:10B6F0000029A8540643F28722ED2EE82BA9506FAB
:10B7000005930E5F00162A942494865F0029DE5468
:10B710000643F287228D13EA1FE81CA9506F059398
:10B720000E5F00162A942494865F00293C54064339
:10B73000F287228D13E210E80DA9506F05930E5F7A
:10B7400000162A942494865F002972540643F287D7
:10B7500022E502540643EE94685E08169A94829598
:10B76000F89E085F0016844C04908A9E0E94265F13
:10B77000002B72A0BF5F0001E89E0893F891FA5475
:10B780000A43F65E0818546105930E0C5127275E94
:10B79000061860205C82440B040016E6210B0400AE
:10B7A00026EE28A154A9406F04930E204CA148A96D
:10B7B000516F05930EA184AB40A1480A0CFFFFE630
:10B7C000226104930E204FA9406F04930E5F000185
:10B7D000E8A184AB40A1480A0CFFFFEEF2E813A9F0
:10B7E000506F05930E5F001684942A4C04908AEEE5
:10B7F0002AE8095F0016844C04908AEE2494A494ED
:10B80000265F000A5A6104930E0C410D0DE60A0CE6
:10B81000410E0EE6160C412727E60D4C05908A14C2
:10B8200014E811A9406F04930E0C410E0EE60B0CA8
:10B83000412727E6086104930E0C410E0E5E0E1799
:10B84000A65F00081895FA97F89E0891F891FABD3E
:10B85000816105930E0C512626EE19A154A9406F63
:10B8600004930E204CA148A9516F05930EE808617E
:10B8700004930E204FA9406F04930E5F0001E8A1CE
:10B8800084AB40A1480A0CFFFFEEF2898861079360
:10B890000E207C82440B04001BE6260B0400255E70
:10B8A0000E1994A174A9406F04930EA1808688E6B6
:10B8B00008204F010700415F0001E8CF3A5F000117
:10B8C000E85F000BAC94284C04908A5E0E199A61D4
:10B8D00005930E205C8244814481445D489020A9F8
:10B8E000506F05930EE832A9706F07930E5F001337
:10B8F000F2942A4C04908AEE415404440294A65FC8
:10B900000029728722E5044C05908A0303E836A1DA
:10B91000808688E60D210743FA5F0009A05404449D
:10B920000694A65F000A5A210743FE5F0009A05F44
:10B93000000BAC94284C04908AEE2094A65F002A59
:10B940007EA134814481445D4891F06105930E20CD
:10B950005C82440B04000EE611EA040B04000DE6C1
:10B9600005E8090B040027E609E805A9506F0593CF
:10B970000E5E08186E4C05908A141495FA95F89E80
:10B980000891F891FA6109930E2098A108A9906F87
:10B9900009930EA187B170B16A5F002A14942AA19D
:10B9A000808688ED065404440A94A65F00256294BC
:10B9B0002A0C911818E6044C05908A1212E811A975
:10B9C000906F09930E5F00168494284C04908AEEC1
:10B9D0000894A65F002A7EA134814481445D48908A
:10B9E0002095FA95F89E0891F891FA5F0013F29469
:10B9F0002A4C04908AEE255404440E94A65F002934
:10BA0000728722E5044C05908A0303E81A610493C7
:10BA10000E0C411818E6044C05908A1212E811A980
:10BA2000406F04930E5F00168494284C04908AEEB5
:10BA30000894A65F002A7EA134814481445D489128
:10BA4000F095FA95F89E086105930E205C82440BF0
:10BA500004001BE6090B040025EE0CA9506F0593AA
:10BA60000E5F0019A09E08A9506F05930E5F001A83
:10BA7000069E084C05908A0E0E9E0891F891FA9148
:10BA8000FCABF95E081FFE5F00080C86AAE60B5FA0
:10BA90000002B80A0A1B1BEE064C05908A1616898E
:10BAA000225E0820146109930E209C82440B04003E
:10BAB000255E0B1FF0814461441ADE5E481ADE00E9
:10BAC0004C007C0118016E0512051202F4045604A4
:10BAD0007E049A04EA04DE04D2051204F605120577
:10BAE000120512051205120512051205120512059E
:10BAF000120512051204C605120512051204FE04F1
:10BB0000FE04FE05120506051204BAA9906F0993FA
:10BB10000E5F00168494284C04908AEEC194865FD0
:10BB20000010E6A12AA1A75F0010D4942494865F98
:10BB30000029068722EE195E081BE8A9906F099379
:10BB40000E5F00168494284C04908A5E0E1ABE94F0
:10BB5000865F0010E6A12AA1A75F0010D494249468
:10BB6000865F0029068722E6054C05908A10105E44
:10BB7000081FF64C0191E00505E3054C05908A0687
:10BB8000065E081FF6600C91E0A142A9206E0A91A2
:10BB9000E082448144610591306F459000A123A962
:10BBA000306E0B91E0A0AC824481446105930E6F2E
:10BBB000459000A9216E0A91E0A0BD825581556093
:10BBC0000C908882446F5490006F0A9130A9A46F42
:10BBD0000A930E5E081FF64C0191E00202EB054C41
:10BBE00005908A07075E081FF6600D91E0AB506E66
:10BBF0000D91E0A0DC82448144604C90016E0C9079
:10BC000088A154AB406E0C91E08244814461449021
:10BC1000006F04930EAB516E0D91E0A0DC82448165
:10BC200044614490006F0491305E081FF6A194A90E
:10BC3000406F04930E204CA195A9516F05930E0AF5
:10BC40000C2525E6054C05908A0C0C5E081FF62095
:10BC50005DA158A187B170B16A5F002A145DF2003E
:10BC600006A1808688ED075404441294265F0025BF
:10BC7000625DF200065F0019A04C04908A5E0E1A05
:10BC8000BE6104930E0C410404E6054C05908A0D38
:10BC90000D5E081FF6A9406F04930E5F0016849492
:10BCA0002C6104930E0C410505EE07A9406F049327
:10BCB0000E5F001684942AE802540A44165408447D
:10BCC0001A948494A65F0029A88722ED0C94A454AA
:10BCD00006441E5F0025A494C494265F00293C8777
:10BCE000228D13EA12948494A65F00293C87228D4A
:10BCF00013E21094A4540644225F0025A494C49433
:10BD0000265F0029A88722ED054C05908A02025E75
:10BD1000081FF64C0190880909E3054C05908A0834
:10BD2000085E081FF6600C9088BD818148A1806E76
:10BD300008908882448144610591306F4592F0A15A
:10BD400082A9206E0A9088A184824481446105936F
:10BD50000E6F4592F0A180A9016FF0000460F80019
:10BD6000056E0890888222A129819994C65F002BD4
:10BD7000726F9392F0A18CA9C2A1C06E08908860E6
:10BD8000F800058200A109819994A65F002B726FCB
:10BD90009392F0A983A1806E089088A1C08200A12F
:10BDA00008818854F600065F002B726F8392F05E64
:10BDB000081FF6A19AA9A06F0A930E4C019088045F
:10BDC00004EB054C05908A09095E081FF6600C908B
:10BDD000888244A14CABC0A1C88188A9C061879268
:10BDE000F0B16A5F002A145DF200064D8492F0ED16
:10BDF000075404442694265F0025625DF200062065
:10BE0000ACA196A9616F06930E0A0C2525E6054C98
:10BE100005908A0A0A5E081FF6206E8266A167B145
:10BE20006A5F002A1454F4000694265F002906A9CC
:10BE3000926F09930E8722E6054C05908A0B0B5EE4
:10BE4000081FF6ABC1A1C88188A9C1618792F0B172
:10BE50006A5F002A14942A4D8492F0ED065404443B
:10BE60002694A65F002562942A54F600065F002AF5
:10BE70007EA138818881885484902094A65F002513
:10BE8000621DF25D829020A1C8AB82818861879299
:10BE9000F0B16A5F002A14942C4D8492F0ED0654A0
:10BEA00004442694C65F002562942C5408441A94D6
:10BEB0008494A65F0029A88722ED0694C414F65F37
:10BEC0000029A88722E50E948494A65F00293C8768
:10BED000228D13E20E94C414F65F00293C87228D54
:10BEE00013E207600C9088AB446E0C90885E081FCC
:10BEF000F6600C90888244AB43A145815561559210
:10BF0000F06F05930EAB408144614492F06F049151
:10BF1000305E081FF6A9906F09930E5F0016844CDF
:10BF200004908AE6054C05908A0F0F5E081FF654B0
:10BF300004441A94265F0029068722EE4D6104937B
:10BF40000E0C412727E6486104930EA9406F049325
:10BF50000E0C412727EEF8E83F610491300C44E6CF
:10BF60000961059130205C824481546F0491300C4A
:10BF700044EEF761029130E83EA9906F09930E5F9D
:10BF80000019A0E829A9906F09930E5F001A06E82E
:10BF900023A9906F09930E5F001A66E81DA9906FA0
:10BFA00009930E5F00179AE817A9906F09930E5F27
:10BFB00000186AE811A9906F09930EE80D4C0590DE
:10BFC0008A1313E809A9906F09930E5F001782E89E
:10BFD000034C05908A14144C04908A5E0E1ABE61BC
:10BFE00004930E0C4127275E0E1AA661049130209F
:10BFF0004A82228142A9F995FC95FA95F89E084C4F
:10C000000891E04C0890884D05913080004C0480E8
:10C01000009E0661009130A9046F00930E5F001A24
:10C020009A4C04908A9E0E6F0291300C24EEF29E80
:10C030000891F86107930E0C712424EE045F001040
:10C04000D49428E8025408442A4D05913080004CCD
:10C05000048000E636610791305F0010D494849428
:10C06000265F0029A88722ED0961059130205C82B6
:10C070004481546F0491300C44EEED610491300C16
:10C0800044E61F610791305F0010D45404442A94A1
:10C09000265F000A5ACF205F0001E861079130A9AE
:10C0A000745F0012B44C04908AEE0B5F00081861B4
:10C0B000059130205C824481546F0491300C44EE31
:10C0C000E195F89E0889555402442EA0DC824481F3
:10C0D0004481445D429020A9500A0D1919E3F68964
:10C0E000555402442EA0DC8244814481445D429137
:10C0F000F0A9500A0D3F3FE3F64C0891E04C089040
:10C10000884C0880004D05913080009E084D0593B5
:10C110000E9090600C909082440B040020E624EA7C
:10C12000040B04001FE612E8250B040021EE224D4B
:10C1300005930E90914C0190912727EE035F00200C
:10C14000E49E084C05908A14149E084D05930E90A9
:10C15000914C0190912727E6044C0190962727EEF9
:10C16000F15F0020509E084D05930E90915F0020D6
:10C170001E9E085F001A9A9E0891F84C04908AE669
:10C180002F4D01930E8000E7214D01930E9000EF9B
:10C190001D610491300C44E6195F00081821074422
:10C1A000325F0009A054084444610791305F0010D9
:10C1B000D4948494265F000A5ACF205F0001E8617E
:10C1C000079130A9745F0012B4E80A5F00081821D3
:10C1D0000744385F0009A0210791405F0009A05F74
:10C1E000000818600C908A82448144614741C85F0E
:10C1F0000009A05F0008184C08908A95F89E084C2A
:10C2000008908A5F0020E45404447E5D0490142169
:10C210000744485F0009A05F0008182107445E5FDB
:10C220000009A02107446E5F0009A05F0008185FA5
:10C23000002198210780005F0007FECF3E5F0001CC
:10C24000E85F0009B85F000D504C04908AEE164C70
:10C250000190902222EE0489775F0007FE9E084C31
:10C260000190902424EE086E0A90905F00113E4CDD
:10C2700004908AE6E3E8025F00212C5F002198E841
:10C28000DD93F854700004607C00018244A1488969
:10C29000660C710202EE038911A110E83E9C08EEC3
:10C2A000028988E83A4D710002FF82E90E2104FFFD
:10C2B00082437400020B040019E2038911A110E803
:10C2C0002A8D42B3070400E8264D710002007FE288
:10C2D00005210600FF8911A110E81F617600020107
:10C2E00006007FA1178922A1730703007F100200B7
:10C2F000000040EE08A124A175070500809C48E6D7
:10C30000059620E80316000000003F9C08ED03B3EB
:10C3100005FFFFA960B305FFF9A104A142070200D0
:10C320007FA113070600FFA165B14AB34D00178531
:10C3300024853507080001A183B12AB32D001F858C
:10C3400042855397F89E082174A1400700007F6141
:10C350007100021474B345FFE9A0DA8222B345FFED
:10C36000F8A154070400016E6C00018722EE1A9CAC
:10C3700008EE030C6502029E084D650002FF82B3C1
:10C380000D00070C65030310003FFFFFFFEB07964E
:10C39000006B60000210003FFFFFFFE3F95D6000EB
:10C3A000049E080B0200FFEE119C08EE030C6504CE
:10C3B000049E08A102A1240704001089559C48E6A8
:10C3C000030C650101E8EB0C68E8E90102FF816FED
:10C3D0006200020C6503039404B34D0007A54E5D93
:10C3E0006400049E0891F891FA91FCABF1A172A14E
:10C3F0006BA15A0CB102025E0625580C210202EE16
:10C4000003A1B25E0825586128000261B9000254F8
:10C410002C000454B60004A1848394E9018D420BDE
:10C4200004001FEA27602A00016EFA00018B98E2DF
:10C430000FA990A1748922A143070300019464B35A
:10C4400045FFFFA1268546A13785578B98EAF18BDA
:10C4500089E21CA980A1D48922A143070300019489
:10C46000C4B345FFFFA12C854CA13D855D8B89EAB6
:10C47000F1E80C8B98E2038977A176E803A198890B
:10C48000DDA1DC602A00016EFA000160F800014ABB
:10C49000B80001E6338688E603946292C2E802940B
:10C4A000C292629C288D13E2054CA800016FA8007F
:10C4B00002E80A4CA5000101016FA800028D208D41
:10C4C000301602000000015DA2000454A200041412
:10C4D00006FFFFFFFF9424966410043FFFFFFEEB6E
:10C4E00016942496445DA400046BA0000294429626
:10C4F0006410043FFFFFFEE3F4E80960F800016EFA
:10C50000A800016FA80002966C5DAC00040CA503A6
:10C510000354A600049C68ED0F61A400068922A1C3
:10C5200043070300019464B345FFFF854285535DD3
:10C53000A2000469A00002A1A2A9F195FC95FA95B8
:10C54000F89E0891F8010FFFE05DF600041DF4A1CC
:10C55000F901090018A196A1F7A9735F002366A14C
:10C56000F8A98FA186A1F75F002366A1F5A957A1BD
:10C5700086A1975F002404A1275F0022A0010F007D
:10C580002095F89E0891F8010FFFE05DF600041D6C
:10C59000F4A1F901090018A196A1F7A9735F00237E
:10C5A00066A1F8A98FA186A1F75F00236660FC0051
:10C5B00011090400016EFC0011A1F5A957A186A183
:10C5C000975F002404A1275F0022A0010F0020959F
:10C5D000F89E0891F891FA010FFFE05DF600041D46
:10C5E000F4A1F901090018A196A1F7A9735F00232E
:10C5F00066A1F8A98FA186A1F75F0023664CF10020
:10C60000180202EE0B60FC00194AFC0011BD40AF9D
:10C610004E6EFC0019A1965E0827304CF100100206
:10C6200002EE0B60FC00194AFC0011BD40AF4E6EDB
:10C63000FC0011A1865E08273054F6001C8955A124
:10C640005454F20014A151890091F291F05F002B33
:10C65000A4A9F79428944A21030020948494A65F07
:10C66000002CD0944694A861F0001261F1001A8168
:10C67000016FF1000A60F800194AF80011BD00AF1F
:10C680000E6EF80009A9116FF1000AA1F0A9079C2C
:10C6900048ED2169F0000AA1728944A1250705002F
:10C6A00001E606B385FFFFA184A54FA1959448B389
:10C6B00065FFFFE5EFE80F6BF0000A9666A182A127
:10C6C000240704800089559C48E604A164A175A54F
:10C6D000509446968810063FFFFFFFE3EDA1728954
:10C6E00044A1250705007F100400000040EE0B89DF
:10C6F00044A125070500809C48EE029C88E60316AD
:10C7000006000000405DF6000C4CF500080303A194
:10C7100006A1675F0022A0010F002095FA95F89E00
:10C720000891F893FA010FFFE05DF600041DF4A1F3
:10C73000F801080018A186A1F7A9735F002366A17C
:10C74000F9A99FA196A1F75F00236660FC0019601C
:10C75000FD001189546EFC0019A18A4CF1001802E9
:10C7600002EE0760FC001889664AFC0010E643E808
:10C77000414CF100100202EE054CF500180404A132
:10C7800096E83961F4001A43F400126FF4001A5469
:10C79000F6001C54F800149086EF049666AB406FC8
:10C7A000F4001A1400400000008933A1329086E79B
:10C7B00006A1248504A135851594429286B305FF10
:10C7C000FF96669C08EEF3A1308944A10507050099
:10C7D0007F100400000040EE0B8944A1050705000E
:10C7E000809C48EE029C68E6031602000000405D53
:10C7F000F2001CA1A6A1675F0022A0010F002097F4
:10C80000FA95F89E080C710202EE0F0C610202EE1E
:10C810000289229E080C710202EE072102FFFF4CE2
:10C820006400019E06BD219E080C610202EE07BD58
:10C83000214C7400019E062102FFFF9E08607B00D0
:10C84000014A6B0001E606BD2186BB9E062102FF60
:10C85000FF9E08617400024B640002EAF5E90621BC
:10C8600002FFFF86BB9E06BD219E08547400045043
:10C87000640004EBE9E7F489229E0891F8010FFFB8
:10C88000E85DF600041DF4A1F9A99FA196A1F7A9FE
:10C89000735F002366A1F8A987A186A1F75F002333
:10C8A00066A186A1975F002824010F001895F89EC5
:10C8B0000891F8010FFFE85DF600041DF4A1F9A945
:10C8C0009FA196A1F7A9735F002366A1F8A987A18C
:10C8D00086A1F75F002366A186A1975F0028240147
:10C8E0000F001895F89E0891F8010FFFE85DF6001B
:10C8F000041DF4A1F9A99FA196A1F7A9735F0023D4
:10C9000066A1F8A987A186A1F75F002366A186A189
:10C91000975F002824010F001895F89E0891F801F0
:10C920000FFFE85DF600041DF4A1F9A99FA196A1EF
:10C93000F7A9735F002366A1F8A987A186A1F75F15
:10C94000002366A186A1975F002824010F00189597
:10C95000F89E0891F8010FFFE85DF600041DF4A1B0
:10C96000F9A99FA196A1F7A9735F002366A1F8A971
:10C9700087A186A1F75F002366A186A1975F0028A3
:10C9800024010F001895F89E0891F8010FFFE85D4B
:10C99000F600041DF4A1F9A99FA196A1F7A9735F60
:10C9A000002366A1F8A987A186A1F75F002366A1ED
:10C9B00086A1975F002824010F001895F89E089122
:10C9C000F8010FFFE85DF600041DF4A1F9A99FA18D
:10C9D00096A1F7A9735F002366A1F8A987A186A194
:10C9E000F75F002366A186A1975F002824010F004E
:10C9F0001895F89E08ABF70CF503039464B345FF54
:10CA0000E16EFD00019C68EE040CF50202A1F7E85E
:10CA1000234DF50002001E86DDE60C1006800000A6
:10CA200000EE0354024482E8198D608D70160600F2
:10CA30000000015DF6000454F40004A1F710043F67
:10CA4000FFFFFFEB0996445DF400046BF000021059
:10CA5000043FFFFFFFE3F75F0022A0A9F79E08ABAA
:10CA6000FB1DF6A1F6A963A1F75F0023664CF10058
:10CA7000040202E6034DF40006ED038933A132E817
:10CA80001E4DF10006001EE20A140200007FFF4C5A
:10CA9000F40005E6141402FFFF8000E81054F200D1
:10CAA0000861F400060104FFE2B32704004CF4001F
:10CAB00005E6058D208D30160200000001A9FB9EC1
:10CAC0000893F8ABFB1DF6A1F8A983A186A1F75F37
:10CAD0000023664CF40005BD40AF466EFC0005A186
:10CAE000875F0022A0A9FB97F89E08ABF72EFF6E88
:10CAF000FE00016FF500025DF20004A1F75F002265
:10CB0000A0A9F79E0891F893FAABFB1DF6A1F6A930
:10CB100063A1F75F00236661F8000660FE000582EE
:10CB200066A16A60FF00048277A17954F600088943
:10CB300055A1542103001E5F002D2C91F491F2A108
:10CB400085A1A6A1975F003DB4010F001497FA9547
:10CB5000F89E0891F89468540444865F002972870F
:10CB600022ED0494865F002A7EE80B5404448A94E4
:10CB7000865F00256294265F002A7E1602800000F0
:10CB80000095F89E0891F891FA91FC010FFFCC5D99
:10CB9000F400245DF6002854F0004254F200465D93
:10CBA000F0001C5DF2002054F000285DF000104DF4
:10CBB000F8000861F000126FF0000A54F000085409
:10CBC000FC0010B3C5FFF054F000205DF0000C4DE8
:10CBD000F8000461F0000E6FF0000654F0000454F9
:10CBE000F8000CB385FFF054F600089804946A54DA
:10CBF000F6000898845DF6000894C698045DF60077
:10CC00000494C69884946894A0B305FFF054F2008D
:10CC100008960254F0000496025DF200089002EFBC
:10CC20000316080001000054F00008B305FFF09659
:10CC3000805DF000144DF8000461F0000A6FF00010
:10CC40000654F00004B30D00105DF000040DF86F01
:10CC5000FB000214F054F2000496025DF200045D41
:10CC6000F2001854F0001454F200185DF0002C5D2E
:10CC7000F2003054F6001054F0001C98045DF600E9
:10CC80000454F6002454F0000C980454F000049668
:10CC90006056F0002C5DF000045DF0002C54F200B2
:10CCA0002C54F40030010F003495FC95FA95F89E51
:10CCB00008ABFFA1308700EE0394429464E8251D81
:10CCC000F45DF60004210100208301EA0914F494C4
:10CCD00042B32DFFE15DF20008B34F0100E80F14ED
:10CCE000F49442B32F01008D02B34F00005DF400B5
:10CCF0000854F40004B3470000852485355DF40032
:10CD00000C54F2000854F4000CA9FF9E0893F8ABF1
:10CD1000FFA1388788EE0394429464E8271DF45DF0
:10CD2000F60004210200208382EA0A8955A1545D9D
:10CD3000F4000C8D2254F40004B34F0200E81054A8
:10CD4000F400048D229440B30702009402B34F080C
:10CD5000005DF4000C14F4B34F0800852485355DA4
:10CD6000F4000854F2000854F4000CA9FF97F89E50
:10CD70000891F891FA91FCABF754780004547A00CA
:10CD800008607C00018244A14D89CC0C710202EE46
:10CD900006140A00000000B1875E082E96A1948553
:10CDA0008485A485B4EE0389DD5E082E964D71005E
:10CDB00002FC02E9132103FC02437300020B03008F
:10CDC00038E205140A00000000B187E84E9484940C
:10CDD000A65F003E4E9428944AE8474D7100020336
:10CDE000FFE207210C07FF140A00000000B187E8EA
:10CDF00043617C0002010C03FFA1B28944A145A15B
:10CE000046A127070700FF8744EE1D8755EE1B87C5
:10CE100066EE190B070080EE168944A145A146A1D4
:10CE20002707070100A152854285628572E6151623
:10CE30000A00000080EF0316080000000116080039
:10CE4000000000E80A160A0000007FEF0316080041
:10CE50000000011608000000000B081FFFE305B3E7
:10CE600085FFFFB3ACB3BCA9C0BD38948494A65F62
:10CE7000003E4E9428944AA182A1240704000FA1E9
:10CE800095A1A6A1B71DF45DF60004A1C307030791
:10CE9000FFA132B329FFF1A137A126A125A12421A9
:10CEA0000300345F002D2CA12605F6A13745F700BD
:10CEB00002A14845F80004A15945F900061DF65D98
:10CEC000F80004A1D307030001A132B329FFF1A1A7
:10CED00037A126A125A1242103003F5F002D2CA10D
:10CEE0002605F6A13745F70002A14845F80004A140
:10CEF0005945F900061DF65DF8000414F254F400DB
:10CF000004A9F795FC95FA95F89E0891F891FA9185
:10CF1000FCABF1A1782FF6BD5F2104FFFFA15A07FA
:10CF20008AA14B478B0002A14C478C0004A14D47BE
:10CF30008D0006210300341484548600045F003EF3
:10CF40004EA159070907FF2103003F1484548600AE
:10CF5000045F003E4EA1540704000121F16E1C0045
:10CF6000018799EE24A1B485A485C485D4EE040C70
:10CF70001502025E08304621F14D150002FC02BD8B
:10CF80003894A494C65F002D2C942A944C21F10C63
:10CF90001503030B0A0FFFEB2796CCB5BBB5AA21EF
:10CFA000F16B1000020B0A0FFFE3F7E81D0B0907F6
:10CFB000FFEE20A1B485A485C485D4EE0421F10C34
:10CFC000150404E831A1A4A140070000088911A1BB
:10CFD00012A113A11485048524E60421F10C150186
:10CFE00001E80221F10C1821F15D1A00045D1C001A
:10CFF00008E81A0109FC0121F16F1900020C150360
:10D0000003BD3894A494C65F002D2C540A448E545A
:10D010000C4492A12685A6A137A148A15921F15D12
:10D020001600045D180008A9F195FC95FA95F89E84
:10D030000891F891FA91FC010FFFC26FF700086F99
:10D04000F6003C6FF5003A0C610202EE03A1725E3D
:10D050000833C861F100080C110202EE0461F2000D
:10D060003C5E0833C861F10008611D000261F100F7
:10D070003C611C000261F2000854240008542200A4
:10D08000041DF25DF40004A112542400085422008F
:10D09000045DF200325DF40036A1D083C06FF00071
:10D0A0000AE9038D026FF0000A61F0000A0B00002C
:10D0B0003F5E0A31B261F10008601800016EF800AD
:10D0C000318BCDE233A9C061F000384DF800284D16
:10D0D000F8002A4DF8002C070000016FF0002E54D4
:10D0E000F2003254F40036B325FFFFB34CB35C5D5D
:10D0F000F200165DF4001A61F0002845F000166F8A
:10D10000F0003261F0002A45F000186FF000346141
:10D11000F0002C45F0001A6FF0003661F0002E454B
:10D12000F0001C6FF000388BCDEACD8BDCE24BA910
:10D13000D061F000064DF800284DF8002A4DF800A7
:10D140002C070000016FF0002E14F254F40004B319
:10D1500025FFFFB34CB35C5DF200165DF4001A616D
:10D16000F0002845F000162FF061F0002A45F0008D
:10D17000186FF0000261F0002C45F0001A6FF0000B
:10D180000461F0002E45F0001C6FF000068BDCEA15
:10D19000CFE8198BCDE20914040000000092225D53
:10D1A000F200325DF40036E808A1CD14040000005E
:10D1B0000092221DF25DF4000461F1000860180085
:10D1C000016EF8003160F8003161F1003C4A18004E
:10D1D000015E0633068688E61314F454F600045FF5
:10D1E000003EBC1DF25DF4000454F6003254F80019
:10D1F000369648B537B5261DF65DF80004E80D14DF
:10D20000F254F4000454F6003254F800369284B715
:10D2100073B7621DF25DF4000421FC87CC8D13EA24
:10D220000EEE1761FC000287CCEE09EE1261FC00E5
:10D230000487CCEE04EE0D4DF40006E60A61F10021
:10D240003A4C1800016F1D000214F254F40004E877
:10D250001061F1003A4C15000101016F1D0002142C
:10D26000F454F600045F003EBC5DF2000E5DF40075
:10D270001261F1003A5D1200045D14000861F200D1
:10D280003A54240008542200041604FFFFFFFFEF65
:10D29000031602000000011602FFFFFFFF1DF25DF2
:10D2A000F400040DF10FFFEB3AEE0C4DF10002FF1C
:10D2B000FFEE084DF10004FFFFEE044DF10006FF04
:10D2C000FEEB2D61F2003A5424000854220004962B
:10D2D00044B533B52261F1003A5D1200045D1400DB
:10D2E000086B100002E8D160F8003161F1003A6E7D
:10D2F0001800016F1D000254F2003254F40036147D
:10D30000F654F800049684B573B5621DF25DF4001E
:10D310000461F1003A5D1200045D14000861F1003F
:10D320003A0C1503034D1100041FFFE33C6110008C
:10D330000A4DF800204DF800224DF80024070000A7
:10D34000016FF0002661F2003A54240008542200D4
:10D3500004B325FFFFB34CB35C1DF25DF400046120
:10D36000F0002005F06FF0001661F0002245F0009B
:10D37000026FF0001861F0002445F000046FF00027
:10D380001A61F0002645F000066FF0001C54F20010
:10D390001654F4001A61F1003A5D1200045D1400A5
:10D3A000086910000261F2003A010F003E95FC95F9
:10D3B000FA95F89E0891F8010FFFD41DF45DF60070
:10D3C00004A1F901090020A196A1F75F002F2AA16D
:10D3D000F801080014A186A1F7010700325F002FB1
:10D3E0002AA1F5A957A186A1975F003050A1275F18
:10D3F000002D90010F002C95F89E0891F8010FFF69
:10D40000D41DF45DF60004A1F901090020A196A144
:10D41000F75F002F2AA1F801080014A186A1F701E7
:10D420000700325F002F2A60FC0015090400016E1E
:10D43000FC0015A1F5A957A186A1975F003050A166
:10D44000275F002D90010F002C95F89E0891F89110
:10D45000FA91FC010FFFA45DF400305DF60034A1E9
:10D46000F901090050A196A1F7010700305F002FD4
:10D470002AA1F801080044A186A1F70107006A5F0C
:10D48000002F2A140200000000B1075DF000285DA3
:10D49000F2002C5DF000205DF200244CF1005002FF
:10D4A00002EE0B60FC00514AFC0045BD40AF4E6EE1
:10D4B000FC0051A1965E0837DC4CF100440202EEFC
:10D4C0000B60FC00514AFC0045BD40AF4E6EFC00B5
:10D4D00045A1865E0837DC54F0005454F200585DD4
:10D4E000F000185DF2001C54F8004854FA004C1487
:10D4F0000200000000B1075DF000105DF200146151
:10D50000F000526FF0000C61FD0046A1F001000038
:10D51000386FF0000E210C003F61F2001E8944A11B
:10D5200045A146A12707070001E63A89002FF054DC
:10D53000F0002854F2002C96A2B591B5805DF00061
:10D54000285DF2002C4BF80028EB0CEE0D4BF90097
:10D550002AEB08EE094BFA002CEB04EE054BFB001E
:10D560002EE302BD012FF021F0B309FFF16FF000AF
:10D570000221F761F60002A165A15454F000105495
:10D58000F200149626B515B50454F0002054F200AC
:10D59000249662B551B5405DF000205DF200245440
:10D5A000F0001054F200149622B511B5005DF000A1
:10D5B000105DF20014A1846100449687406FF00072
:10D5C000044DF800064DF800084DF8000A61F4001B
:10D5D00006850445F40008E60D61F4001061F500CD
:10D5E0001261F6001461F70016A5705DF400105D7D
:10D5F000F6001496AAB599B58854F0001854F200B4
:10D600001CB305FFFFB32CB33C5DF000185DF200C6
:10D610001CABC05E09353861F4000C81D46FF40096
:10D620003A60FD00514AFD0045BD50AF5E6EFD0001
:10D6300039A9436FF4003A4DF100201FFFE338543D
:10D64000084496540A449A69F0003A61F200268927
:10D6500044A145A146A12707070001E61954F0009F
:10D660002854F2002CB305FFFFB32CB33C5DF0004F
:10D67000285DF2002C61F40028858461F5002A61A0
:10D68000F6002C61F7002E5DF400285DF6002C54A6
:10D69000F0002054F20024B305FFFFB32CB33C5D2F
:10D6A000F000205DF200244DF100201FFFEBCC4D77
:10D6B000F100200FFFEB3F54084496540A449A6B44
:10D6C000F0003A54F0002054F200249622B511B52F
:10D6D000005DF000205DF2002461F4002887846F73
:10D6E000F400044DF800064DF800084DF8000A61FA
:10D6F000F4000645F4000445F40008E60D61F4006A
:10D700002061F5002261F6002461F70026A5705D16
:10D71000F400205DF6002454F0002854F2002C960A
:10D7200022B511B5005DF000285DF2002C4DF1002E
:10D73000200FFFE3C561F800268944A145A146A159
:10D7400087070700FF8744EE2D8755EE2B8766EE8F
:10D75000290B070080EE268944A145A146A1870731
:10D76000070100A152854285628572EE0961F400CD
:10D770002A45F4002845F4002C45F4002EE6125406
:10D78000F0002054F20024160200000080EF03167F
:10D7900000000000011600000000005DF000205DA8
:10D7A000F2002454F0002054F200245DF0003C5DAF
:10D7B000F200404CF50038030361F6000EA1675FEC
:10D7C000002D90010F005C95FC95FA95F89E08914C
:10D7D000F891FA91FC010FFFB25DF400225DF600B2
:10D7E00026A1F801080042A186A1F7010700225FE7
:10D7F000002F2AA1F901090036A196A1F70107001F
:10D800005C5F002F2A60FC004360FD003789546E86
:10D81000FC0043A18C4CF100420202EE0960FC00C6
:10D820004289994AFC00365E0639F05E0839EE4CB2
:10D83000F100360202EE054CF5004204045E0839A0
:10D84000F061F0004443F000386FF0004454F800F9
:10D850004654FA004A54F0003A54F2003E5DF0009B
:10D860001A5DF2001E4BF8001AE70CEE104BF9009F
:10D870001CE708EE0C4BFA001EE704EE084BFB0019
:10D8800020EF0596AAB599B5886BF0004454004482
:10D890009E540244A25DF0000A5DF2000E140200E4
:10D8A000000000B1075DF000125DF200164BF800B9
:10D8B0001AE735EE0B4BF9001CE731EE074BFA0087
:10D8C0001EE72DEE034BFB0020E72961F000124517
:10D8D000F0000A2FF061F0001445F0000C6FF0002A
:10D8E0000261F0001645F0000E6FF0000461F000D8
:10D8F0001845F000106FF0000614F054F200045DBB
:10D90000F000125DF20016948094A254F4001A54B0
:10D91000F6001E9262B751B7409408942A54F00062
:10D920000A54F2000EB305FFFFB32CB33C5DF000C8
:10D930000A5DF2000E96AAB599B58861F0000C4513
:10D94000F0000A45F0000E45F00010EEB061FD0059
:10D95000180DF84DF800024DF80004A1D0070000A2
:10D96000FF6FF000060DF4EE2B4DF40002EE284D93
:10D97000F40004EE250B000080EE228944A145A1AD
:10D9800046A1D707070100A152854285628572EE44
:10D9900005A194858485A485B4E61254F000125440
:10D9A000F20016160200000080EF031600000000CF
:10D9B000011600000000005DF000125DF200165438
:10D9C000F0001254F200165DF000465DF2004AA12C
:10D9D000C9A1975F002D90010F004E95FC95FA9517
:10D9E000F89E080C710202EE0F0C610202EE028931
:10D9F000229E080C710202EE072102FFFF4C640018
:10DA0000019E06BD219E080C610202EE07BD214C5D
:10DA10007400019E062102FFFF9E08607D00014AFE
:10DA20006D0001E606BD2186DD9E062102FFFF9EF8
:10DA300008617400024B640002EAF5E9062102FF66
:10DA4000FF86DD9E06BD219E08617400044B6400C4
:10DA500004EBDDEE11617400064B640006EBD7EEBB
:10DA60000B617400084B640008EBD1EE0561740093
:10DA70000A4B64000AEBCB616400044B740004EBB6
:10DA800012EE18616400064B740006EB0CEE126196
:10DA90006400084B740008EB06EE0C6164000A4B4E
:10DAA00074000AE3072102FFFF4C7400019E06BDCB
:10DAB000219E0889229E0891F8010FFFE01DF45D68
:10DAC000F60004A1F901090014A196A1F75F002F47
:10DAD0002AA1F8A987A186A1F7010700265F002FD8
:10DAE0002AA186A1975F003A02010F002095F89EB7
:10DAF0000891F8010FFFE01DF45DF60004A1F901A3
:10DB0000090014A196A1F75F002F2AA1F8A987A107
:10DB100086A1F7010700265F002F2AA186A1975F43
:10DB2000003A02010F002095F89E0891F8010FFFBE
:10DB3000E01DF45DF60004A1F901090014A196A10D
:10DB4000F75F002F2AA1F8A987A186A1F701070096
:10DB5000265F002F2AA186A1975F003A02010F00DD
:10DB60002095F89E0891F8010FFFE01DF45DF60086
:10DB700004A1F901090014A196A1F75F002F2AA1C1
:10DB8000F8A987A186A1F7010700265F002F2AA127
:10DB900086A1975F003A02010F002095F89E089138
:10DBA000F8010FFFE01DF45DF60004A1F901090082
:10DBB00014A196A1F75F002F2AA1F8A987A186A139
:10DBC000F7010700265F002F2AA186A1975F003A80
:10DBD00002010F002095F89E0891F8010FFFE01D4B
:10DBE000F45DF60004A1F901090014A196A1F75F04
:10DBF000002F2AA1F8A987A186A1F7010700265FB7
:10DC0000002F2AA186A1975F003A02010F002095FC
:10DC1000F89E0891F8010FFFE01DF45DF60004A1E5
:10DC2000F901090014A196A1F75F002F2AA1F8A914
:10DC300087A186A1F7010700265F002F2AA186A1F0
:10DC4000975F003A02010F002095F89E08ABFB9405
:10DC5000600CF503039404B345FFE16EFD00019CE5
:10DC600008EE040CF50202A1F2E83F4DF5000200B7
:10DC70003C86DDE61A100080000000EE05540244E8
:10DC8000A6540444AAE83494048D408D5016040030
:10DC90000000019446B36DFFE19442A171A1705D53
:10DCA000F000045DF20008E80A9402B32DFFE1944D
:10DCB00006A135A1345DF400045DF60008A1F24D23
:10DCC000F100040FFFEB1154F4000454F600089621
:10DCD00066B555B5445DF400045DF600086BF000D0
:10DCE000024DF100040FFFE3EFA1275F002D90A983
:10DCF000FB9E08010FFFEC1DF45DF60004A1F6A9E0
:10DD000067A1F75F002F2A4CF100080202E6034DDD
:10DD1000F4000AED038933A132E8214DF1000A0035
:10DD20001EE20A140200007FFF4CF40009E61714FB
:10DD300002FFFF8000E8132103003C43F3000A5474
:10DD4000F4000C54F600105F003E4E94424CF40078
:10DD500009E6058D208D30160200000001010F003C
:10DD6000149E0893F8010FFFEC1DF45DF60004A16A
:10DD7000F8A987A186A1F75F002F2A4CF40009BDFE
:10DD800040AF466EFC0009A1875F002D90010F0097
:10DD90001497F89E08010FFFEC6EFF00086EFE005E
:10DDA000096FF5000A54F0001654F2001A5DF000F5
:10DDB0000C5DF20010A1F7A9775F002D901DF25DB8
:10DDC000F40004010F00149E08010FFFEC1DF45D28
:10DDD000F60004A1F6A967A1F75F002F2A2103002E
:10DDE0001E54F4000C54F600105F003E4E94406147
:10DDF000F200108944A145A12607063FFF61F70004
:10DE000012A152854285628572E604A104A115A57E
:10DE100050944060FE000960FF0008940261F50024
:10DE20000A826682775F002B0A010F00149E089316
:10DE3000F8010FFFEEA1388788EE0394429464E85E
:10DE40002A5DF400025DF60006210200208382EACA
:10DE5000098955A1545DF4000A54F40002B3470245
:10DE600000E81354F400029440B30F020094028DB2
:10DE7000822FF8B34708005DF4000A54F40006212D
:10DE8000F0B3470000852485355DF4000E54F200A0
:10DE90000A54F4000E010F001297F89E08ABFF1D04
:10DEA000F45DF6000454F400048D408D5016040017
:10DEB0000000015DF4000C14F28D208D301602007C
:10DEC0000000019C48E6031602FFFFFFFF5DF20021
:10DED0000854F2000854F4000CA9FF9E0809C0047D
:10DEE0004403C005E209010A000B560C0B0D000E9D
:10DEF000020E0303C105EA20202020202000002B71
:10DF000030202B31202B32202B33202B34202B356B
:10DF1000202B36202B37202B38202B39202B41204B
:10DF20002B42202B43202B44202B45202B46200026
:10DF3000004153434949004572726F722D00002021
:10DF40002020202020534554202062797465207CB5
:10DF50002027737472696E67275B2C2E2E2E5D004E
:10DF60000020202020202043414C4C2078787878D5
:10DF70000020202020202044554D50205B737461E8
:10DF800072745D2C205B656E645D00202020202073
:10DF90002078787878202D204368616E676520634B
:10DFA000757272656E7420616464726573730020AB
:10DFB00020202020204C4F4144202D204C61796F9F
:10DFC00075742075706C6F616465642048455820D5
:10DFD00066696C650020202020202042415349437F
:10DFE000202D20544F594F5348494B492054696EB6
:10DFF000792042415349430000202020202020481E
:10E00000454C50202D205468697320636F6D6D61FD
:10E010006E64004D4F4E5A386B205665722E312E6D
:10E0200030207233205342435A3830303220456416
:10E030006974696F6E00005A696C6F67205A3830D6
:10E0400030302052757368204D6F6E69746F722086
:10E050002B20544F594F5348494B492054696E79EE
:10E060002042415349430044554D5000004C4F411C
:10E0700044000048454C500000424153494300438E
:10E08000414C4C00004552524F522D696E76616CE6
:10E0900069642061646472657373005345540000C1
:10E0A000000000478000003F800000419E419841F1
:10E0B00090418C41884182417C41784174416E415C
:10E0C000684162415E415C415A4158415641544168
:10E0D000524150414E414A414841464144414041EC
:10E0E0003E413C41384134412E41284124412041A8
:10E0F00018411250555443480053595354454D004C
:10E10000004E45570052554E004C495354000053A1
:10E11000495A45000041425300524E440040003CE1
:10E12000003C3D00003D003E0023003E3D00002934
:10E130000028002F002A002B002D003B002C004C53
:10E140004554005052494E5400494E5055540053C6
:10E15000544F50000052454D00494600004E45586E
:10E16000540000535445500000544F0000464F5295
:10E170000052455455524E0000474F5355420047F8
:10E180004F544F000002090D0F10111213141516F1
:10E190001718191A1B1C1D1E000F1011121314152D
:10E1A000161718191A0D0E2700438A4378436E4339
:10E1B000564344433A4324430C42F842E642D04299
:10E1C000BE42A842984282426C4256424242344287
:10E1D000244216420641F641626F72742062792031
:10E1E0005B4553435D0000496E7465726E616C203F
:10E1F0006572726F72000053796E74617820657277
:10E20000726F720000496C6C6567616C20636F6DA2
:10E210006D616E6400273D272065787065637465C5
:10E22000640000272827206F72202729272065787F
:10E2300070656374656400556E646566696E6564D7
:10E24000206C696E65206E756D62657200494620AE
:10E25000776974686F757420636F6E646974696F31
:10E260006E00004C455420776974686F7574207691
:10E2700061726961626C650000464F522077697473
:10E28000686F757420544F0000464F5220776974B0
:10E29000686F7574207661726961626C6500004E0A
:10E2A000455854206D69736D6174636820464F5200
:10E2B000004E45585420776974686F757420636FF9
:10E2C000756E74657200004E455854207769746805
:10E2D0006F757420464F520000464F5220746F6F86
:10E2E000206D616E79206E657374656400524554CB
:10E2F00055524E20737461636B20756E646572664F
:10E300006C6F770000474F53554220746F6F206D3C
:10E31000616E79206E6573746564004C6973742056
:10E3200066756C6C0049636F64652062756666652E
:10E33000722066756C6C00537562736372697074D9
:10E34000206F7574206F662072616E676500004FE4
:10E35000766572666C6F7700004465766973696FE5
:10E360006E206279207A65726F00004F4B00003694
:10E37000A7C5AC47C350003F800000000000003F2D
:10E380008000004120000042400000000000003FEB
:10E39000800000412000004240000046FFFE004394
:10E3A000800000000000003F80000000000000002E
:10E3B0000000000000000042800000BF800000BF9D
:10E3C00080000000000000BF800000BF8000003F10
:10E3D000800000000000000000000040280000292C
:10E3E0003A0000428000000000000043800000422C
:10E3F000800000438000003F80000000000000C655
:10E40000FFFE0046FFFE0047800000000000000005
:10E410000000004C494E453A00594F552054595080
:10E42000453A20000000000000544F594F5348491E
:10E430004B492054494E592042415349430000530F
:10E4400042435A3830303220524F4D207233002030
:10E45000666C6F61742045444954494F4E0000007A
:10E46000000000CF0000004F000000CF00000010AF
:10E47000000000000000008000000000000000100C
:10E4800000000000000000C1E000000000000000EB
:10E49000000000000000000000000000000000007C
:10E4A000000000000000000000000000000000006C
:10E4B000000000000000000000000000000000005C
:10E4C000000000000000000000000000000000004C
:10E4D000000000000000000000000000000000003C
:10E4E000000000000040004C0C40004C2040004C5C
:10E4F0003440004C0A40004C0A40004C0AFFFFFF29
:10E50000FFFFFFFFFFFFFFFFFFFFFFFFFFFFFFFF1B
:10E51000FFFFFFFFFFFFFFFFFFFFFFFFFFFFFFFF0B
:10E52000FFFFFFFFFFFFFFFFFFFFFFFFFFFFFFFFFB
:10E53000FFFFFFFFFFFFFFFFFFFFFFFFFFFFFFFFEB
:10E54000FFFFFFFFFFFFFFFFFFFFFFFFFFFFFFFFDB
:10E55000FFFFFFFFFFFFFFFFFFFFFFFFFFFFFFFFCB
:10E56000FFFFFFFFFFFFFFFFFFFFFFFFFFFFFFFFBB
:10E57000FFFFFFFFFFFFFFFFFFFFFFFFFFFFFFFFAB
:10E58000FFFFFFFFFFFFFFFFFFFFFFFFFFFFFFFF9B
:10E59000FFFFFFFFFFFFFFFFFFFFFFFFFFFFFFFF8B
:10E5A000FFFFFFFFFFFFFFFFFFFFFFFFFFFFFFFF7B
:10E5B000FFFFFFFFFFFFFFFFFFFFFFFFFFFFFFFF6B
:10E5C000FFFFFFFFFFFFFFFFFFFFFFFFFFFFFFFF5B
:10E5D000FFFFFFFFFFFFFFFFFFFFFFFFFFFFFFFF4B
:10E5E000FF760045007D0D760F9F80DB5E21008069
:10E5F000006F009F986F009F9C6F009F9A8D087618
:10E60000039F9E210100132F30A930A930F1844DC2
:10E61000059FBC9F004D059FC29F804D059FC080F8
:10E620000076094C90DDB876094CACDDBBDD818D00
:10E6300018DD55DD4E8C84E6F70A0844445E064634
:10E64000A00A0847475E06478C0A0853535E0647F0
:10E65000C20A084C4C5E06482E0A0849495E064824
:10E66000F60A084F4F5E06497E0A0852525E064A75
:10E67000140A084D4D5E06000676094CC9DDE4E833
:10E68000D3A910DD7EDD508CA4EE0ADD828C84EEF1
:10E69000F461049F98A145010500805E0846EEA143
:10E6A0003460189F800A082C2CE6078C84EEE5A1C4
:10E6B00045010500805E0846EEA910DD9ADD8ADD81
:10E6C0009C8CA4E6DA4C149F80EED7A135A950A10A
:10E6D000470707FFF08C28DFF1DBB98C84EE070ACF
:10E6E000020202E7F96F059F985E0846466F079F92
:10E6F00098DBCD5E084646A171DD8C76094CD1DEF3
:10E70000258D18CA10DFEAFA0276094CD4DE2C8D6A
:10E7100018CA1060189F80A9100A082020E7050A6F
:10E72000087F7FEF02DBDAE802C82EDBDDFA0E5E3F
:10E73000084B42C820DBE28C24EE0C8B47E609C86C
:10E74000206E189F80DBEAC820DBECA970A9109E20
:10E7500008C2010A020101EEF320786E189F80DEE4
:10E760004BA970A9108B57EE01C2029E08A910DDBB
:10E77000F4DDC6DDF64C149F805E0E46988CA4E650
:10E78000026F039FC0610F9FC261009FBC7D0F534A
:10E79000F09FC053F09FBE0DF900005C01000E9F7A
:10E7A0009E7B00A910DE0FDDE18CA4E6026F039FC3
:10E7B0009ADE158C845E0E469861079F9AA171DDE2
:10E7C000EF76094CD4DE882078DE80C820DC2EDE8F
:10E7D000528D18DE268C84EE04A9706F079F9AE88C
:10E7E000EE0A082D2DEE04AB706F079F9AE8E70A3A
:10E7F000082E2EEE046F079F9A5E084646DE2A8C8E
:10E80000A45E0646982E7BA9706F079F9AE8D7A949
:10E8100010DE45DE17DE478C845E0E46988CA4EE33
:10E82000018D38DC66DE470A085353E62E0A083AA3
:10E830003AE6080A080D0DE6F50A080A0AE6F2DCCF
:10E8400074E8F8DEACA082A08ADEAFA0818082DE10
:10E85000B2A08980828131A117DEB7A08C80828C22
:10E86000A4E607DEBC80828CC4EE022E78A970FA82
:10E8700007DEC38082EE048CC4E6E25E084646767C
:10E88000094CAFDEE75E084646DC99A08CDED1A0DD
:10E890008AA082DED4A0818082DED7A08980828196
:10E8A00031A117020A0303E608DEDF80820A0C3179
:10E8B00031EE022E78A970FA08DEE780820A02FFA4
:10E8C000FFEE050A0C39395E064646E8B976094C72
:10E8D000BCDF0E5E0846468D58A91060189F80DE8A
:10E8E000A40A085353EE0305050002E8F60A085788
:10E8F00057EE0305050004E8F0DEB9DEA98CA45E3E
:10E90000064698DEBE8C845E0E46982102000061A9
:10E9100053493A1F30DEFA5E0846464942494849A3
:10E920006049663C385E084AEA4D059F803A856F2B
:10E93000039F824D059F849E085F009F805E084A6A
:10E94000EA3D315E084AE44D059F803B156F039F09
:10E95000824D059F849E085F009F805E084AE48C7C
:10E96000D8A91060189F80DEE80A085353EE03040C
:10E970000D0202E8F60A085757EE03040D0404E8F6
:10E98000F0DEFDDEED8CA45E064698A134DF030ABE
:10E99000082C2C5E0E4698A910DF09DEF98CA45EC7
:10E9A000064698DF0E8C845E0E46982102000061B8
:10E9B0005349D81F305E08464649E049E449FA49C0
:10E9C000FE3E4B9E084D059F803AB76F049F824DD7
:10E9D000059F849E085F009F809E083F439E084DD0
:10E9E000059F803B376F049F824D059F849E085F83
:10E9F000009F809E08A910DF38DF318C84EE03DF92
:10EA0000B65E08464621044D8A4A480000E6064C98
:10EA1000440001E63E01040006E8F7604D00010AEB
:10EA20000D0F0FEE0761440002A91060189F80DFF0
:10EA30004CE8EB8CD4E62D61410004DFC3C83DDD1A
:10EA40006761440002060D07070A0D0101EE04602C
:10EA5000480000DFC5E8070A0D0202EE046141002C
:10EA600000DFCFE800C820DD7BDF9F8D18DF73DF7C
:10EA7000638CA4E60C0A0D0101EE036E4B0000E866
:10EA8000060A0D0202EE036F430000E8005E08462E
:10EA9000465E08469821024D10612900008D94E6DB
:10EAA00009DFF66121000261110000DFF4010200BC
:10EAB00004E8F35E084B4220988C84E603DDA6A9A7
:10EAC00090E8FA9E08A018DFFFA09893F0B28100AA
:10EAD000FCDFFF97F006080F0F000830300A083AF5
:10EAE0003A5E074F92000807075E084F928C88DF56
:10EAF000FEB281000493F1A089DDD1DFB20A0830B3
:10EB000030E70E0A083A3AE7080A084141E7080ADE
:10EB1000084747EF05020807070208303084989736
:10EB2000F19E08C80DDDDAC80A5E084F928D188C78
:10EB3000A8DDED0A080D0DE6230A080A0AE6200AF8
:10EB4000080808E6120A087F7FE60F0A082020E777
:10EB5000F00A088080EFED0A0A1717EFEA6E189F97
:10EB600080DDF8A910A8A0E8E48CA4E6E2AB10AA26
:10EB7000A0C808DE01C820DE03C808DE05E8D94CBD
:10EB8000159F8000005E084B4260189F800A082095
:10EB900020EE02A910E8F99E080A086161E7050A5B
:10EBA000087B7BEF020008E0E09E088CA88D3860AF
:10EBB000189F80D00E0A083030E7130A083A3AE767
:10EBC000080A084141E70D0A084747EF0A0208070B
:10EBD0000702083030B3390004848BA910A8A0E8DC
:10EBE000E79E085E084AE4D01F9E087B005C09008F
:10EBF0000E9F9E76094CD8CA0197F06F009FC4E81B
:10EC0000175C09000E9F9E76094CF2CA0197F06FBF
:10EC1000009FC4E80D5C09000E9F9E76094D098C8B
:10EC2000A897F06F009FC40A08FFFFE601E81C5791
:10EC3000F09FBE97F0030000026F009FC06F0F9F10
:10EC4000C27D076F009FBCD0C98CA4E609C820DE36
:10EC50006FC828DE7161019FC4D0CBC829DE76D091
:10EC60009FD0E75E08464693F05C01000E9F9E7BB6
:10EC7000000D0A556E6976657273616C204D6F6E7A
:10EC800069746F72205A383030300D0A005D2000F0
:10EC90004572726F7220696865780D0A004572725C
:10ECA0006F7220737265630D0A004572726F720D88
:10ECB0000A00203A00203A2000556E696D706C659C
:10ECC0006D656E74656420496E73747275637469E2
:10ECD0006F6E0050726976696C6567656420496E75
:10ECE000737472756374696F6E00427265616B0054
:10ECF000FF4D609F9E4D859FA04D859FA24D859F96
:10ED0000A44D879FA64D859FA84D859FAA4D859FA1
:10ED1000AC4D689FBE4D6F9FC04D749FAE4D859F9B
:10ED2000B04D859FB24D859FB44D879FB64D859F51
:10ED3000B84D859FBA4D859FBC4D7E9FC200000097
:10ED40000052302D5237203D0020204643573D00D1
:10ED50002050433D000D0A52382D5231353D0020E0
:10ED6000205353503D002C002C2000460F4DA8008E
:10ED700000500F4DC00000520F4DCC0000530F4EFD
:10ED8000B60000000000000000430F4DB40000007A
:10ED9000000000000057029FBE4ECE0000000000A1
:10EDA0000043029FC04ED200000000000030029FCE
:10EDB0009E4ED5310F4E1A000032029FA24EDB3319
:10EDC000029FA44EDE34029FA64EE135029FA84E5C
:10EDD000E436029FAA4EE737029FAC4EEA38029F04
:10EDE000AE4EED39029FB04EF0480F4E4A00004C37
:10EDF0000F4E80000000000000000000029FA04EA7
:10EE0000D830029FB24EF331029FB44EF732029FC8
:10EE1000B64EFB33029FB84EFF34029FBA4F033504
:10EE2000029FBC4F0700000000000030019F9E4F72
:10EE30000B31019FA04F0F32019FA24F1333019F4F
:10EE4000A44F1734019FA64F1B35019FA84F1F36B3
:10EE5000019FAA4F2337019FAC4F270000000000FD
:10EE60000030019F9F4F2B31019FA14F2F32019FF7
:10EE7000A34F3333019FA54F3734019FA74F3B3535
:10EE8000019FA94F3F36019FAB4F4337019FAD4FC5
:10EE900047000000000000530F4EC20000000000B9
:10EEA00000000050029FC24F4B00000000000046CF
:10EEB000435700504300523000523100523200524A
:10EEC0003300523400523500523600523700523867
:10EED000005239005231300052313100523132008B
:10EEE0005231330052313400523135005248300033
:10EEF00052483100524832005248330052483400E0
:10EF0000524835005248360052483700524C3000C3
:10EF1000524C3100524C3200524C3300524C3400AF
:10EF2000524C3500524C3600524C3700535350006F
:10EF3000FF2101000576034F62210000153A3200DF
:10EF4000109E080009C0044403C005E20B500C0BDE
:10EF50000D000E0303C105EAFF3A04000506000197
:10EF600001E6FB3A8400079E083A84000506080182
:10EF7000019E083A04000506000404E6FB3A8600F8
:10EF8000079E0800000000000000000000000000D4
:10EF90000000000000000000000000000000000071
:10EFA0000000000000000000000000000000000061
:10EFB0000000000000000000000000000000000051
:10EFC0000000000000000000000000000000000041
:10FFE000000D0A4D455A383030322025322E336606
:0FFFF0004D487A0D0A00696E66006E616E000062
:020000040001F9
:10000000000E816F57C584F558C585F559C586F52D
:100010005AC587F587AF14D0010E816F84C501F5ED
:1000200085C502F586C503F587C504F55EEC90F03D
:1000300001C584F502C585F503C586F504C587F5B8
:10004000000E836F000E826FB8C571F5B9C572F5E9
:100050008151D8B40DD08151D8A404D0000E676F5F
:100060002B0E03D0000E676F2D0E666F66C581F5EF
:1000700084C501F585C502F586C503F587C504F578
:100080007BEC8DF001040210D8A42CD00501815125
:10009000D8B409D081C500F67107D8A07207000E48
:1000A000836F010E826F000E8225016E060E832182
:1000B000026EF60E036EFF0E046E25EC90F0FD0E40
:1000C0007127FF0E722355C512F556C513F5000EA4
:1000D000146E060E156E71C516F572C517F52FEC68
:1000E0008FF0120084C501F585C502F586C503F5BC
:1000F00087C504F57BEC8DF001500210D8A42CD0FC
:1001000005018151D8B409D081C500F67107D8A086
:100110007207000E836F010E826F000E8225016E42
:10012000060E8321026EFA0E036EFF0E046E25EC9E
:1001300090F0FD0E7127FF0E722355C512F556C5BE
:1001400013F5000E146E060E156E71C516F572C508
:1001500017F52FEC8FF01200000E0501886F000ECE
:10016000896F800E8A6F3F0E8B6F000E706F000ECE
:100170006F6F84C501F585C502F586C503F587C592
:1001800004F5000E056E000E066E000E076E000EE2
:10019000086EEAEC8EF0D8A00CD0BED073C588F5FE
:1001A00074C589F575C58AF576C58BF505016F4B64
:1001B000702B88C50FF589C510F58AC511F58BC55B
:1001C00012F5000E136E000E146E200E156E410E09
:1001D000166E31EC86F00FC573F510C574F511C5B8
:1001E00075F512C576F505017351845D016E745184
:1001F0008559026E75518659036E76518759046E82
:100200006FEC8FF004BECAD704500310021004E153
:10021000020E015CD8A0C2D773C528F574C529F5B4
:1002200075C52AF576C52BF584C52CF585C52DF544
:1002300086C52EF587C52FF513EC8DF0D8A0AED767
:1002400005018851845D016E89518559026E8A517C
:100250008659036E8B518759046E6FEC8FF004BE84
:1002600008D004500310021043E1020E015CD8B024
:100270003FD088C584F589C585F58AC586F58BC5C7
:1002800087F54AD088C528F589C529F58AC52AF594
:100290008BC52BF5000E2C6E000E2D6E200E2E6ED3
:1002A000410E2F6E4DEC89F028C588F529C589F5DA
:1002B0002AC58AF52BC58BF505016F07D8A07007F5
:1002C0008851845D016E89518559026E8A51865923
:1002D000036E8B518759046E6FEC8FF004BEC9D743
:1002E00004500310021004E1020E015CD8A0C1D733
:1002F00084C528F585C529F586C52AF587C52BF55A
:1003000088C52CF589C52DF58AC52EF58BC52FF529
:1003100013EC8DF0D8A0B6D75BC569F569C56AF551
:100320000501BBBF05D0BAC562F5BBC563F504D0F6
:10033000000E636F060E626F62C56DF563C56EF5E4
:100340006D4B6E2B660E6A19D8A416D070AF0CD008
:10035000000E886F000E896F800E8A6F3F0E8B6FC4
:10036000000E706F000E6F6F670E6919D8B404D05D
:100370006F516D2770516E23000E786F000E776FEE
:1003800084C579F585C57AF586C57BF587C57CF585
:1003900088C573F589C574F58AC575F58BC576F57D
:1003A0007BD079C528F57AC529F57BC52AF57CC5AA
:1003B0002BF588C52CF589C52DF58AC52EF58BC57D
:1003C0002FF54DEC89F028C541F529C542F52AC520
:1003D00043F52BC544F59FEC8BF041C57DF542C537
:1003E0007EF543C57FF544C580F57DC501F57EC525
:1003F00002F57FC503F580C504F5E1EC8DF001C57C
:100400006BF502C56CF579C528F57AC529F57BC56C
:100410002AF57CC52BF57DC513F57EC514F57FC582
:1004200015F580C516F588C50FF589C510F58AC57F
:1004300011F58BC512F531EC86F00FC52CF510C502
:100440002DF511C52EF512C52FF5C0EC8FF028C57E
:1004500079F529C57AF52AC57BF52BC57CF588C5C4
:1004600028F589C529F58AC52AF58BC52BF5000E17
:100470002C6E000E2D6E200E2E6E410E2F6E4DEC4A
:1004800089F028C588F529C589F52AC58AF52BC5BF
:100490008BF50501774B782B6D51775D7851800A8C
:1004A0005C6E6E51800A5C58D8A07BD788C50FF56A
:1004B00089C510F58AC511F58BC512F5000E136EAE
:1004C000000E146EA00E156E400E166E31EC86F006
:1004D0000FC57DF510C57EF511C57FF512C580F5F8
:1004E00079C528F57AC529F57BC52AF57CC52BF594
:1004F0007DC52CF57EC52DF57FC52EF580C52FF564
:1005000013EC8DF0D8B003D0000E050118D079C5DA
:1005100001F57AC502F57BC503F57CC504F57DC5FB
:1005200005F57EC506F57FC507F580C508F5EAEC3B
:100530008EF0D8A00BD005016BB108D0000E7D6FF6
:10054000000E7E6F000E7F6F000E806F84C501F578
:1005500085C502F586C503F587C504F57DC505F596
:100560007EC506F57FC507F580C508F5C7EC87F0A1
:1005700001C579F502C57AF503C57BF504C57CF59F
:1005800079C528F57AC529F57BC52AF57CC52BF5F3
:10059000000E136E000E146E200E156E410E166EB8
:1005A00073C50FF574C510F575C511F576C512F54F
:1005B00031EC86F00FC52CF510C52DF511C52EF5C3
:1005C00012C52FF513EC8DF0D8A024D005016F4B88
:1005D000702B73C50FF574C510F575C511F576C58B
:1005E00012F5000E136E000E146E200E156E410EE5
:1005F000166E31EC86F00FC573F510C574F511C594
:1006000075F512C576F5660E05016A19D8A402D0F3
:100610006D4B6E2B73C588F574C589F575C58AF564
:1006200076C58BF56FC560F570C561F5000E0501E7
:10063000686F000E656F000E646F000E786F000E1D
:10064000776FCDD079C528F57AC529F57BC52AF510
:100650007CC52BF588C52CF589C52DF58AC52EF5E9
:100660008BC52FF54DEC89F028C541F529C542F51C
:100670002AC543F52BC544F59FEC8BF041C57DF5AC
:1006800042C57EF543C57FF544C580F57DC501F5BE
:100690007EC502F57FC503F580C504F5E1EC8DF05C
:1006A00002BE06D0025013E10A0E015CD8B00FD092
:1006B0007DC501F57EC502F57FC503F580C504F54E
:1006C000E1EC8DF001C56BF502C56CF505D0000EAF
:1006D00005016C6F090E6B6F05016851D8B461AFED
:1006E00020D0000E8225D96E060E8321DA6E2E0EE2
:1006F000DF6E824B832B7107D8A07207010E686FE3
:1007000010D0000E8225D96E060E8321DA6E300ECF
:10071000DF6E824B832B7107D8A072076407D8A0C5
:10072000650764516511D8A4ECD7000E8225D96EF7
:10073000060E8321DA6E6B51300FDF6E824B832BF6
:100740007107D8A0720779C528F57AC529F57BC548
:100750002AF57CC52BF57DC513F57EC514F57FC53F
:1007600015F580C516F588C50FF589C510F58AC53C
:1007700011F58BC512F531EC86F00FC52CF510C5BF
:100780002DF511C52EF512C52FF5C0EC8FF028C53B
:1007900079F529C57AF52AC57BF52BC57CF588C581
:1007A00028F589C529F58AC52AF58BC52BF5000ED4
:1007B0002C6E000E2D6E200E2E6E410E2F6E4DEC07
:1007C00089F028C588F529C589F52AC58AF52BC57C
:1007D0008BF505016007D8A06107774B782B6D5129
:1007E000775D7851800A5C6E6E51800A5C58D8B093
:1007F00008D083BF27D7835104E14B0E825DD8A078
:1008000021D7000E786F4F0E776F000E7725D96EC7
:10081000060E7821DA6EDF6A000E5C6E060E5D6EE3
:1008200082515C5E83515D5A77515C24016E785130
:100830005D20026E000E036E060E046E82C505F585
:1008400083C506F5E3EC8FF08251775D826F8351AB
:100850007859836F8151D8B402D0010E01D0000EB7
:10086000776F786B8151D8B40BD08207D8A08307FB
:10087000000E8225D96E060E8321DA6E81C5DFF463
:100880007751715F7851725B55C512F556C513F5F6
:10089000000E8225146E060E8321156E71C516F5A5
:1008A00072C517F52FEC8FF01200080E0001B16F22
:1008B000000E0401186F1969C968000E106F1169E4
:1008C000C868089BBF9AC79A0899BF88C798009BB9
:1008D000BE8AC69A2095C284CA94089DBF8CC79CC4
:1008E000089FBF8EC79E3F0E0201036F0401009553
:1008F000C694000E436F800E446F000E456F000ECD
:10090000476F4691468B468F00970187C6860099B0
:100910000189C68800910181C68000930183C68247
:1009200008910981C78008930983C78208950985C2
:10093000C78408970987C78620912181CA802093A0
:100940002183CA82010E0201D56FA00ED46FD18916
:10095000D18B0401009FC68E070E0201766F040141
:10096000009DBE8CC69C260E0201076FD28F000E22
:10097000136E240E146EF40E156E410E166E0401E5
:100980004351016E4451026E4551036E046A000EDC
:1009900073EC8CF001C50FF502C510F503C511F518
:1009A00004C512F531EC86F00FC528F510C529F500
:1009B00011C52AF512C52BF5000E2C6E240E2D6ED6
