:0400000081EF00F09C
:1000080051485148514851484000514840005148D2
:100018005148514851485148514851485148514810
:10002800514840004000400051485148514851480B
:1000380051485148514851485148514851485148F0
:100048005148514851485148400040005148514892
:100058005148514851484000514851485148514829
:1000680051485148514851485148514851485148C0
:100078005148514851485148400051485148514809
:1000880051485148514851485148514851485148A0
:10009800514851485148514840005148400040009B
:1000A8005148514851485148514851485148514880
:1000B8005148514851485148514851485148514870
:1000C8005148514851485148514851485148514860
:1000D8005148514851485148514851485148514850
:1000E80040005148514851484000400040004000FD
:0E00F8005148514851485148FF0005EF90F023
:109FE00000000040000B00210F00005E08063C3C12
:109FF0007A82229E083E7E9E080107FFE00A0F5EDD
:10A000005EBD20AF239E0889220A0F20209E0B0AE6
:10A010000F2020E605A174AB480A0C04049E0BBD7A
:10A02000219E088922A1740104FF9F0A0C0505E303
:10A030000CA1740104FFBF0A0C0505E306A174011D
:10A0400004FFD00A0C09099E0BBD219E0893F8A1BC
:10A05000780C84EE028922E80A208F5F0000428794
:10A0600022E602A980E8F90C84BD20AF2697F89E6D
:10A0700008206C2E7CA960A97086CC9E06206C2ED0
:10A080007CA960A97086CCEEFA9E08E8060C74EEF6
:10A090000289229E08A970A960207C0A6CE6F7203C
:10A0A0007A8222206C824483429E0891F893FAAB14
:10A0B000F7A17AA1F1BD37A1F4A9460C452020AB48
:10A0C00040AB30E9FB2109002D87AAE502210900F8
:10A0D0002BBD37A118A1828132A1A5BD7AB14A9BBF
:10A0E00074010400302E2CA1A5B14A9B74A15AAB77
:10A0F0003087AA8D13EAEFA1148134A1902E4889EC
:10A10000220B030007EA0BA1648124A115813520ED
:10A110005D2E4DA930A9200B030007E2F581260C26
:10A1200068A9F797FA95F89E0889220C712B2BE6FF
:10A130000E0C712D2DEE0CE80AA12481448144817E
:10A14000428122207C824481420102FFD0A9700C0E
:10A1500074EEF3894487449E068D229E0889220C62
:10A16000749E06207BA1340104FFD00A0C0909EB80
:10A170000321050030E811A1340104FFBF0A0C05DA
:10A1800005EB0321050037E808A1340104FF9F0A0D
:10A190000C05059E0B21050057B3290004A0BC82C5
:10A1A0004481428352A9700C74EEDC9E08A17401B4
:10A1B00004FF9F0A0C1919E303A0FA82229E08A14A
:10A1C000720102FFE082229E0893F8A178BD755FBC
:10A1D00000000EA722E6FBA186BD775F0000149762
:10A1E000F89E0893F8A1780C84E606208FA9805F7A
:10A1F0000001E80C84EEFA97F89E08CF0D5F00018D
:10A20000E8CF0A5F0001E89E08ABF5BD23A1F5A9E0
:10A2100052A1740704000FB371FFFC0A0C0909EB8B
:10A220000301040030E802010400372E5CAB50ABA0
:10A2300020E9EF4CF80004A1F75F000202A9F59EA7
:10A2400008ABF3BD31A1F2A920A1750705000FA04D
:10A25000FC8244A147B371FFFC0A0D0909EB03011D
:10A26000050030E802010500372E2DAB20AB30E9A8
:10A27000EC4CF80002A1F75F000202A9F39E0893DC
:10A28000F8A178CF5B5F0001E8A1875F000228CFCB
:10A290005D5F0001E897F89E08BD755F00000EA79E
:10A2A00020E6FBBD775F00000E82229E0891F891A8
:10A2B000FAA17AA16B89995F0002B8A1280A0A0D58
:10A2C0000DE6240A0A0909EE0221080020A1800AED
:10A2D000080808EE0B87998D13E208AB90A1875F01
:10A2E0000001E8CF205F0001E8E80CA1875F0000D3
:10A2F000188722E6E18BB9E9DFA1A48194A1802E21
:10A3000048A990A1875F0001E8E8D6819A0CA85F70
:10A3100000021A95FA95F89E081F709E0891F89110
:10A32000FAA178A169A15BBDA70C84E620208F5F0C
:10A330000000268722EE030C812C2CEE16A9800C3F
:10A3400084EEF5E812208F5F0000268722EE0F0CC6
:10A35000812C2CE60CABA00B0AFFFFE608208FA98E
:10A36000805F0001CC2E9AA9900C84EEEC0C980C26
:10A3700084E60D208F5F0000268722EE080C812CDA
:10A380002CE605A9800C84EEF5E801A9800C81205B
:10A3900020E6FC0C84E606208C2EBCA980A9B00C1B
:10A3A00084EEFA0CB895FA95F89E080C712020EE10
:10A3B0000CA9700C712020E6FCE8070C712C2CE62F
:10A3C00006207C2E6CA970A9600C74EEF70C680C4A
:10A3D000712C2CEE01A9700C712020E6FC0C74E6A7
:10A3E00006207C2E5CA970A9500C74EEFA0C589EC5
:10A3F0000891F891FAABFFA17ACF205F0001E8A1A4
:10A40000A75F000228CF205F0001E88988A1FBA197
:10A41000B5818520AC2E5CA9A0A9800B08000FE3B4
:10A42000F78988A1B48184204F5F000260CF205F4C
:10A430000001E8A9800B08000FE3F48988A1B98125
:10A4400089209F5F0000188722E602209FE801CF45
:10A450002E5F0001E8A9800B08000FE3F05F000207
:10A460001AA1A2A9FF95FA95F89E0891F8A178A1E2
:10A4700069210707F05F000202210707F85F000269
:10A48000022107082A5F0002025F00021A0708FF84
:10A49000F00709FFF0A1875F000410A1288B98E363
:10A4A000FA95F89E0891F893FA010FFFB0A178A1F0
:10A4B0006A0CA4E62CA1F9A1A5A196A1A75F0003AF
:10A4C000CAA1975F00006C8722E606A1975F000192
:10A4D0007C2E8AA980E8190C912727EE0CA1F5A9FA
:10A4E000500C54E6120C512727E60F205C2E8CA945
:10A4F00050A980E8F6210708305F000202A1975FAB
:10A500000002025F00021AE8020CA4EED5A182014B
:10A510000F005097FA95F89E085F0002B8A1240139
:10A5200004FFBF0A0C0505EB04010200C982229E4C
:10A5300008A1240104FF9F0A0C0505E3040102FFA2
:10A54000D082229E08010200A982229E0893F85F11
:10A55000000538A1285F000538B389000485280765
:10A560000800FFA18297F89E0893F85F00056CA190
:10A57000285F00056CA180A08297F89E0891F8934F
:10A58000FA5F0002B80A0A3A3AEEFB5F00056CA1D6
:10A59000285F000588A1295F00056CA12A86AAEE24
:10A5A0000BE8045F00056C2E9AA990A184AB40A132
:10A5B000480A0CFFFFEEF65F00056CCF2E5F00012E
:10A5C000E8A1A00A080101EEDC5F00021A97FA95E3
:10A5D000F89E08210708385F0002025F00021A2176
:10A5E00007085A5F0002025F00021A2107086A5F2B
:10A5F0000002025F00021A210708845F0002025F66
:10A6000000021A210708A85F0002025F00021A2157
:10A610000708CE5F0002025F00021A9E0891F891BF
:10A62000FA91FC010FFEC8210807D6210907EF2087
:10A630008EBD755F000014A9808B98E3F9210A8014
:10A64000000CF84CF800484CF800904CF800D84C3E
:10A65000F800E04CF800E85F00021A210708E85F04
:10A660000002025F00021A210709085F0002025F70
:10A6700000021A5F00021AA1FC010C0090A1F9016E
:10A680000900E0A1FDA1FB010B0048A1A75F0002AA
:10A690009EA1F8010800E82106004EA1875F000294
:10A6A000CCA1C5A196A1875F00033CA1D5A1B6A10D
:10A6B000C75F0003CA4CF400E8E606A196A1F701C3
:10A6C0000700D85F00009021060922A1F7010700CA
:10A6D000D85F0000AA8722EE1BA1B75F00006C873D
:10A6E00022E604A1B75F00017CA12AA1D75F000088
:10A6F0006C8722E604A1D75F00017CE802A1A2A931
:10A700002EA126A1A75F00048AA12A5E0806AA4CF2
:10A71000F400E05E0606AA21060928A1975F000062
:10A72000AA8722EE045F00059C5E0806AA2106099E
:10A730002EA1975F0000AA8722EE05A1C75F000542
:10A74000F25E0806AA21060934A1975F0000AA87D5
:10A7500022EE18A1B75F00006C8722E608A1B75F60
:10A7600000017CA1275F0003385E0806AA210709C3
:10A770003A5F000202A1B75F0002025F00021A5EA8
:10A780000806AA21060950A1975F0000AA8722EEB9
:10A7900007A1C6A1A75F0004C4A12A5E0806AAA15A
:10A7A000975F00006C87225E0606AAA1975F0001F2
:10A7B0007CA12A5E0806AA09C0044403C005E20978
:10A7C000010A000B560C0B0D000E020E0303C1050F
:10A7D000EA20202020202000002B30202B31202BAD
:10A7E00032202B33202B34202B35202B36202B37B7
:10A7F000202B38202B39202B41202B42202B43208B
:10A800002B44202B45202B4620000041534349492F
:10A81000004572726F722D000020202020202053EE
:10A820004554202062797465207C202773747269F6
:10A830006E67275B2C2E2E2E5D000020202020200E
:10A840002043414C4C20787878780020202020202C
:10A850002044554D50205B73746172745D2C205BF5
:10A86000656E645D00202020202020787878782094
:10A870002D204368616E67652063757272656E7422
:10A880002061646472657373002020202020204CB6
:10A890004F4144202D204C61796F75742075706C88
:10A8A0006F61646564204845582066696C650020C6
:10A8B000202020202048454C50202D2054686973CA
:10A8C00020636F6D6D616E64004D4F4E5A386B2082
:10A8D0005665722E312E30205342435A3830303272
:10A8E0002045646974696F6E005A696C6F67205AFD
:10A8F000383030302052757368204D6F6E69746F38
:10A9000072000044554D5000004C4F414400004837
:10A91000454C50000043414C4C00004552524F52B0
:10A920002D696E76616C696420616464726573730D
:10A93000005345540000000000000000000000002B
:10A940000000000000000000000000000000000007
:10A9500000000000000000000000000000000000F7
:10A9600000000000000000000000000000000000E7
:10A9700000000000000000000000000000000000D7
:10A9800000000000000000000000000000000000C7
:10A9900000000000000000000000000000000000B7
:10A9A00000000000000000000000000000000000A7
:10A9B0000000000000000000000000000000000097
:10A9C0000000000000000000000000000000000087
:10A9D0000000000000000000000000000000000077
:10A9E00000000000004000110C4000112040001148
:10A9F000344000110A4000110A4000110AFFFFFF15
:10AA0000FFFFFFFFFFFFFFFFFFFFFFFFFFFFFFFF56
:10AA1000FFFFFFFFFFFFFFFFFFFFFFFFFFFFFFFF46
:10AA2000FFFFFFFFFFFFFFFFFFFFFFFFFFFFFFFF36
:10AA3000FFFFFFFFFFFFFFFFFFFFFFFFFFFFFFFF26
:10AA4000FFFFFFFFFFFFFFFFFFFFFFFFFFFFFFFF16
:10AA5000FFFFFFFFFFFFFFFFFFFFFFFFFFFFFFFF06
:10AA6000FFFFFFFFFFFFFFFFFFFFFFFFFFFFFFFFF6
:10AA7000FFFFFFFFFFFFFFFFFFFFFFFFFFFFFFFFE6
:10AA8000FFFFFFFFFFFFFFFFFFFFFFFFFFFFFFFFD6
:10AA9000FFFFFFFFFFFFFFFFFFFFFFFFFFFFFFFFC6
:10AAA000FFFFFFFFFFFFFFFFFFFFFFFFFFFFFFFFB6
:10AAB000FFFFFFFFFFFFFFFFFFFFFFFFFFFFFFFFA6
:10AAC000FFFFFFFFFFFFFFFFFFFFFFFFFFFFFFFF96
:10AAD000FFFFFFFFFFFFFFFFFFFFFFFFFFFFFFFF86
:10AAE000FF76000A007D0D760F8F80DB5E210080EF
:10AAF000006F008F986F008F9C6F008F9A8D087683
:10AB0000038F9E210100132F30A930A930F1844D0D
:10AB1000058FBC8F004D058FC28F804D058FC08083
:10AB20000076091190DDB8760911ACDDBBDD818DB1
:10AB300018DD55DD4E8C84E6F70A0844445E060BAA
:10AB4000A00A0847475E060C8C0A0853535E060CA1
:10AB5000C20A084C4C5E060D2E0A0849495E060DD5
:10AB6000F60A084F4F5E060E7E0A0852525E060F26
:10AB7000140A084D4D5E060006760911C9DDE4E8A9
:10AB8000D3A910DD7EDD508CA4EE0ADD828C84EE2C
:10AB9000F461048F98A145010500805E080BEEA1C9
:10ABA0003460188F800A082C2CE6078C84EEE5A10F
:10ABB00045010500805E080BEEA910DD9ADD8ADDF7
:10ABC0009C8CA4E6DA4C148F80EED7A135A950A155
:10ABD000470707FFF08C28DFF1DBB98C84EE070A0A
:10ABE000020202E7F96F058F985E080B466F078F28
:10ABF00098DBCD5E080B46A171DD8C760911D1DEA4
:10AC0000258D18CA10DFEAFA02760911D4DE2C8DE0
:10AC100018CA1060188F80A9100A082020E7050ABA
:10AC2000087F7FEF02DBDAE802C82EDBDDFA0E5E7A
:10AC3000081042C820DBE28C24EE0C8B47E609C8E2
:10AC4000206E188F80DBEAC820DBECA970A9109E6B
:10AC500008C2010A020101EEF320786E188F80DE2F
:10AC60004BA970A9108B57EE01C2029E08A910DDF6
:10AC7000F4DDC6DDF64C148F805E0E0B988CA4E6D6
:10AC8000026F038FC0610F8FC261008FBC7D0F53B5
:10AC9000F08FC053F08FBE0DF900005C01000E8FE5
:10ACA0009E7B00A910DE0FDDE18CA4E6026F038F0E
:10ACB0009ADE158C845E0E0B9861078F9AA171DD68
:10ACC000EF760911D4DE882078DE80C820DC2EDE05
:10ACD000528D18DE268C84EE04A9706F078F9AE8D7
:10ACE000EE0A082D2DEE04AB706F078F9AE8E70A85
:10ACF000082E2EEE046F078F9A5E080B46DE2A8C14
:10AD0000A45E060B982E7BA9706F078F9AE8D7A9CF
:10AD100010DE45DE17DE478C845E0E0B988CA4EEA9
:10AD2000018D38DC66DE470A085353E62E0A083ADE
:10AD30003AE6080A080D0DE6F50A080A0AE6F2DC0A
:10AD400074E8F8DEACA082A08ADEAFA0818082DE4B
:10AD5000B2A08980828131A117DEB7A08C80828C5D
:10AD6000A4E607DEBC80828CC4EE022E78A970FABD
:10AD700007DEC38082EE048CC4E6E25E080B4676F2
:10AD80000911AFDEE75E080B46DC99A08CDED1A08E
:10AD90008AA082DED4A0818082DED7A089808281D1
:10ADA00031A117020A0303E608DEDF80820A0C31B4
:10ADB00031EE022E78A970FA08DEE780820A02FFDF
:10ADC000FFEE050A0C39395E060B46E8B976091123
:10ADD000BCDF0E5E080B468D58A91060188F80DE10
:10ADE000A40A085353EE0305050002E8F60A0857C3
:10ADF00057EE0305050004E8F0DEB9DEA98CA45E79
:10AE0000060B98DEBE8C845E0E0B9821020000615A
:10AE1000530E3A1F30DEFA5E080B460E420E480E05
:10AE2000600E663C385E080FEA4D058F803A856FEC
:10AE3000038F824D058F849E085F008F805E080F10
:10AE4000EA3D315E080FE44D058F803B156F038F9F
:10AE5000824D058F849E085F008F805E080FE48C12
:10AE6000D8A91060188F80DEE80A085353EE030457
:10AE70000D0202E8F60A085757EE03040D0404E831
:10AE8000F0DEFDDEED8CA45E060B98A134DF030A34
:10AE9000082C2C5E0E0B98A910DF09DEF98CA45E3D
:10AEA000060B98DF0E8C845E0E0B98210200006169
:10AEB000530ED81F305E080B460EE00EE40EFA0E5D
:10AEC000FE3E4B9E084D058F803AB76F048F824D32
:10AED000058F849E085F008F809E083F439E084D2B
:10AEE000058F803B376F048F824D058F849E085FEE
:10AEF000008F809E08A910DF38DF318C84EE03DFDD
:10AF0000B65E080B462104128A4A480000E6064C49
:10AF1000440001E63E01040006E8F7604D00010A26
:10AF20000D0F0FEE0761440002A91060188F80DF3B
:10AF30004CE8EB8CD4E62D61410004DFC3C83DDD55
:10AF40006761440002060D07070A0D0101EE046067
:10AF5000480000DFC5E8070A0D0202EE0461410067
:10AF600000DFCFE800C820DD7BDF9F8D18DF73DFB7
:10AF7000638CA4E60C0A0D0101EE036E4B0000E8A1
:10AF8000060A0D0202EE036F430000E8005E080BA4
:10AF9000465E080B9821021210612900008D94E68C
:10AFA00009DFF66121000261110000DFF4010200F7
:10AFB00004E8F35E08104220988C84E603DDA6A91D
:10AFC00090E8FA9E08A018DFFFA09893F0B28100E5
:10AFD000FCDFFF97F006080F0F000830300A083A30
:10AFE0003A5E071492000807075E0814928C88DF07
:10AFF000FEB281000493F1A089DDD1DFB20A0830EE
:10B0000030E70E0A083A3AE7080A084141E7080A19
:10B01000084747EF05020807070208303084989771
:10B02000F19E08C80DDDDAC80A5E0814928D188CEE
:10B03000A8DDED0A080D0DE6230A080A0AE6200A33
:10B04000080808E6120A087F7FE60F0A082020E7B2
:10B05000F00A088080EFED0A0A1717EFEA6E188FE2
:10B0600080DDF8A910A8A0E8E48CA4E6E2AB10AA61
:10B07000A0C808DE01C820DE03C808DE05E8D94CF8
:10B08000158F8000005E08104260188F800A08202B
:10B0900020EE02A910E8F99E080A086161E7050A96
:10B0A000087B7BEF020008E0E09E088CA88D3860EA
:10B0B000188F80D00E0A083030E7130A083A3AE7B2
:10B0C000080A084141E70D0A084747EF0A02080746
:10B0D0000702083030B3390004848BA910A8A0E817
:10B0E000E79E085E080FE4D01F9E087B005C090005
:10B0F0000E8F9E760911D8CA0197F06F008FC4E8B1
:10B10000175C09000E8F9E760911F2CA0197F06F45
:10B11000008FC4E80D5C09000E8F9E760912098C21
:10B12000A897F06F008FC40A08FFFFE601E81C57DC
:10B13000F08FBE97F0030000026F008FC06F0F8F7B
:10B14000C27D076F008FBCD0C98CA4E609C820DE81
:10B150006FC828DE7161018FC4D0CBC829DE76D0DC
:10B160009FD0E75E080B4693F05C01000E8F9E7B3C
:10B17000000D0A556E6976657273616C204D6F6EB5
:10B1800069746F72205A383030300D0A005D20002B
:10B190004572726F7220696865780D0A0045727297
:10B1A0006F7220737265630D0A004572726F720DC3
:10B1B0000A00203A00203A2000556E696D706C65D7
:10B1C0006D656E74656420496E737472756374691D
:10B1D0006F6E0050726976696C6567656420496EB0
:10B1E000737472756374696F6E00427265616B008F
:10B1F000FF12608F9E12858FA012858FA212858FFD
:10B20000A412878FA612858FA812858FAA12858F08
:10B21000AC12688FBE126F8FC012748FAE12858F02
:10B22000B012858FB212858FB412878FB612858FB8
:10B23000B812858FBA12858FBC127E8FC2000000B3
:10B240000052302D5237203D0020204643573D000C
:10B250002050433D000D0A52382D5231353D00201B
:10B26000205353503D002C002C2000460F12A80004
:10B2700000500F12C00000520F12CC0000530F13E9
:10B28000B60000000000000000430F12B4000000F0
:10B29000000000000057028FBE13CE000000000027
:10B2A0000043028FC013D200000000000030028F64
:10B2B0009E13D5310F131A000032028FA213DB3315
:10B2C000028FA413DE34028FA613E135028FA81378
:10B2D000E436028FAA13E737028FAC13EA38028FE5
:10B2E000AE13ED39028FB013F0480F134A00004C33
:10B2F0000F1380000000000000000000028FA01368
:10B30000D830028FB213F331028FB413F732028FA9
:10B31000B613FB33028FB813FF34028FBA14033510
:10B32000028FBC140700000000000030018F9E1443
:10B330000B31018FA0140F32018FA2141333018F30
:10B34000A4141734018FA6141B35018FA8141F36BF
:10B35000018FAA142337018FAC14270000000000CE
:10B360000030018F9F142B31018FA1142F32018FD8
:10B37000A3143333018FA5143734018FA7143B3541
:10B38000018FA9143F36018FAB144337018FAD14E1
:10B3900047000000000000530F13C200000000002F
:10B3A00000000050028FC2144B0000000000004655
:10B3B0004357005043005230005231005232005285
:10B3C00033005234005235005236005237005238A2
:10B3D00000523900523130005231310052313200C6
:10B3E000523133005231340052313500524830006E
:10B3F000524831005248320052483300524834001B
:10B40000524835005248360052483700524C3000FE
:10B41000524C3100524C3200524C3300524C3400EA
:10B42000524C3500524C3600524C370053535000AA
:10B43000FF2101000576031462210000153A320055
:10B44000109E080009C0044403C005E20B500C0B19
:10B450000D000E0303C105EAFF3A040005060001D2
:10B4600001E6FB3A8400079E083A840005060801BD
:10B47000019E083A04000506000404E6FB3A860033
:10B48000079E08000000000000000000000000000F
:10B4900000000000000000000000000000000000AC
:10B4A000000000000000000000000000000000009C
:10B4B000000000000000000000000000000000008C
:10B4C000000000000000000000000000000000007C
:10FFE000000D0A4D455A383030322025322E336606
:0FFFF0004D487A0D0A00696E66006E616E000062
:020000040001F9
:10000000000E816F57C584F558C585F559C586F52D
:100010005AC587F587AF14D0010E816F84C501F5ED
:1000200085C502F586C503F587C504F55EEC90F03D
:1000300001C584F502C585F503C586F504C587F5B8
:10004000000E836F000E826FB8C571F5B9C572F5E9
:100050008151D8B40DD08151D8A404D0000E676F5F
:100060002B0E03D0000E676F2D0E666F66C581F5EF
:1000700084C501F585C502F586C503F587C504F578
:100080007BEC8DF001040210D8A42CD00501815125
:10009000D8B409D081C500F67107D8A07207000E48
:1000A000836F010E826F000E8225016E060E832182
:1000B000026EF60E036EFF0E046E25EC90F0FD0E40
:1000C0007127FF0E722355C512F556C513F5000EA4
:1000D000146E060E156E71C516F572C517F52FEC68
:1000E0008FF0120084C501F585C502F586C503F5BC
:1000F00087C504F57BEC8DF001500210D8A42CD0FC
:1001000005018151D8B409D081C500F67107D8A086
:100110007207000E836F010E826F000E8225016E42
:10012000060E8321026EFA0E036EFF0E046E25EC9E
:1001300090F0FD0E7127FF0E722355C512F556C5BE
:1001400013F5000E146E060E156E71C516F572C508
:1001500017F52FEC8FF01200000E0501886F000ECE
:10016000896F800E8A6F3F0E8B6F000E706F000ECE
:100170006F6F84C501F585C502F586C503F587C592
:1001800004F5000E056E000E066E000E076E000EE2
:10019000086EEAEC8EF0D8A00CD0BED073C588F5FE
:1001A00074C589F575C58AF576C58BF505016F4B64
:1001B000702B88C50FF589C510F58AC511F58BC55B
:1001C00012F5000E136E000E146E200E156E410E09
:1001D000166E31EC86F00FC573F510C574F511C5B8
:1001E00075F512C576F505017351845D016E745184
:1001F0008559026E75518659036E76518759046E82
:100200006FEC8FF004BECAD704500310021004E153
:10021000020E015CD8A0C2D773C528F574C529F5B4
:1002200075C52AF576C52BF584C52CF585C52DF544
:1002300086C52EF587C52FF513EC8DF0D8A0AED767
:1002400005018851845D016E89518559026E8A517C
:100250008659036E8B518759046E6FEC8FF004BE84
:1002600008D004500310021043E1020E015CD8B024
:100270003FD088C584F589C585F58AC586F58BC5C7
:1002800087F54AD088C528F589C529F58AC52AF594
:100290008BC52BF5000E2C6E000E2D6E200E2E6ED3
:1002A000410E2F6E4DEC89F028C588F529C589F5DA
:1002B0002AC58AF52BC58BF505016F07D8A07007F5
:1002C0008851845D016E89518559026E8A51865923
:1002D000036E8B518759046E6FEC8FF004BEC9D743
:1002E00004500310021004E1020E015CD8A0C1D733
:1002F00084C528F585C529F586C52AF587C52BF55A
:1003000088C52CF589C52DF58AC52EF58BC52FF529
:1003100013EC8DF0D8A0B6D75BC569F569C56AF551
:100320000501BBBF05D0BAC562F5BBC563F504D0F6
:10033000000E636F060E626F62C56DF563C56EF5E4
:100340006D4B6E2B660E6A19D8A416D070AF0CD008
:10035000000E886F000E896F800E8A6F3F0E8B6FC4
:10036000000E706F000E6F6F670E6919D8B404D05D
:100370006F516D2770516E23000E786F000E776FEE
:1003800084C579F585C57AF586C57BF587C57CF585
:1003900088C573F589C574F58AC575F58BC576F57D
:1003A0007BD079C528F57AC529F57BC52AF57CC5AA
:1003B0002BF588C52CF589C52DF58AC52EF58BC57D
:1003C0002FF54DEC89F028C541F529C542F52AC520
:1003D00043F52BC544F59FEC8BF041C57DF542C537
:1003E0007EF543C57FF544C580F57DC501F57EC525
:1003F00002F57FC503F580C504F5E1EC8DF001C57C
:100400006BF502C56CF579C528F57AC529F57BC56C
:100410002AF57CC52BF57DC513F57EC514F57FC582
:1004200015F580C516F588C50FF589C510F58AC57F
:1004300011F58BC512F531EC86F00FC52CF510C502
:100440002DF511C52EF512C52FF5C0EC8FF028C57E
:1004500079F529C57AF52AC57BF52BC57CF588C5C4
:1004600028F589C529F58AC52AF58BC52BF5000E17
:100470002C6E000E2D6E200E2E6E410E2F6E4DEC4A
:1004800089F028C588F529C589F52AC58AF52BC5BF
:100490008BF50501774B782B6D51775D7851800A8C
:1004A0005C6E6E51800A5C58D8A07BD788C50FF56A
:1004B00089C510F58AC511F58BC512F5000E136EAE
:1004C000000E146EA00E156E400E166E31EC86F006
:1004D0000FC57DF510C57EF511C57FF512C580F5F8
:1004E00079C528F57AC529F57BC52AF57CC52BF594
:1004F0007DC52CF57EC52DF57FC52EF580C52FF564
:1005000013EC8DF0D8B003D0000E050118D079C5DA
:1005100001F57AC502F57BC503F57CC504F57DC5FB
:1005200005F57EC506F57FC507F580C508F5EAEC3B
:100530008EF0D8A00BD005016BB108D0000E7D6FF6
:10054000000E7E6F000E7F6F000E806F84C501F578
:1005500085C502F586C503F587C504F57DC505F596
:100560007EC506F57FC507F580C508F5C7EC87F0A1
:1005700001C579F502C57AF503C57BF504C57CF59F
:1005800079C528F57AC529F57BC52AF57CC52BF5F3
:10059000000E136E000E146E200E156E410E166EB8
:1005A00073C50FF574C510F575C511F576C512F54F
:1005B00031EC86F00FC52CF510C52DF511C52EF5C3
:1005C00012C52FF513EC8DF0D8A024D005016F4B88
:1005D000702B73C50FF574C510F575C511F576C58B
:1005E00012F5000E136E000E146E200E156E410EE5
:1005F000166E31EC86F00FC573F510C574F511C594
:1006000075F512C576F5660E05016A19D8A402D0F3
:100610006D4B6E2B73C588F574C589F575C58AF564
:1006200076C58BF56FC560F570C561F5000E0501E7
:10063000686F000E656F000E646F000E786F000E1D
:10064000776FCDD079C528F57AC529F57BC52AF510
:100650007CC52BF588C52CF589C52DF58AC52EF5E9
:100660008BC52FF54DEC89F028C541F529C542F51C
:100670002AC543F52BC544F59FEC8BF041C57DF5AC
:1006800042C57EF543C57FF544C580F57DC501F5BE
:100690007EC502F57FC503F580C504F5E1EC8DF05C
:1006A00002BE06D0025013E10A0E015CD8B00FD092
:1006B0007DC501F57EC502F57FC503F580C504F54E
:1006C000E1EC8DF001C56BF502C56CF505D0000EAF
:1006D00005016C6F090E6B6F05016851D8B461AFED
:1006E00020D0000E8225D96E060E8321DA6E2E0EE2
:1006F000DF6E824B832B7107D8A07207010E686FE3
:1007000010D0000E8225D96E060E8321DA6E300ECF
:10071000DF6E824B832B7107D8A072076407D8A0C5
:10072000650764516511D8A4ECD7000E8225D96EF7
:10073000060E8321DA6E6B51300FDF6E824B832BF6
:100740007107D8A0720779C528F57AC529F57BC548
:100750002AF57CC52BF57DC513F57EC514F57FC53F
:1007600015F580C516F588C50FF589C510F58AC53C
:1007700011F58BC512F531EC86F00FC52CF510C5BF
:100780002DF511C52EF512C52FF5C0EC8FF028C53B
:1007900079F529C57AF52AC57BF52BC57CF588C581
:1007A00028F589C529F58AC52AF58BC52BF5000ED4
:1007B0002C6E000E2D6E200E2E6E410E2F6E4DEC07
:1007C00089F028C588F529C589F52AC58AF52BC57C
:1007D0008BF505016007D8A06107774B782B6D5129
:1007E000775D7851800A5C6E6E51800A5C58D8B093
:1007F00008D083BF27D7835104E14B0E825DD8A078
:1008000021D7000E786F4F0E776F000E7725D96EC7
:10081000060E7821DA6EDF6A000E5C6E060E5D6EE3
:1008200082515C5E83515D5A77515C24016E785130
:100830005D20026E000E036E060E046E82C505F585
:1008400083C506F5E3EC8FF08251775D826F8351AB
:100850007859836F8151D8B402D0010E01D0000EB7
:10086000776F786B8151D8B40BD08207D8A08307FB
:10087000000E8225D96E060E8321DA6E81C5DFF463
:100880007751715F7851725B55C512F556C513F5F6
:10089000000E8225146E060E8321156E71C516F5A5
:1008A00072C517F52FEC8FF01200080E0001B16F22
:1008B000000E0401186F1969C968000E106F1169E4
:1008C000C868089BBF9AC79A0899BF88C798009BB9
:1008D000BE8AC69A2095C284CA94089DBF8CC79CC4
:1008E000089FBF8EC79E3F0E0201036F0401009553
:1008F000C694000E436F800E446F000E456F000ECD
:10090000476F4691468B468F00970187C6860099B0
:100910000189C68800910181C68000930183C68247
:1009200008910981C78008930983C78208950985C2
:10093000C78408970987C78620912181CA802093A0
:100940002183CA82010E0201D56FA00ED46FD18916
:10095000D18B0401009FC68E070E0201766F040141
:10096000009DBE8CC69C260E0201076FD28F000E22
:10097000136E240E146EF40E156E410E166E0401E5
:100980004351016E4451026E4551036E046A000EDC
:1009900073EC8CF001C50FF502C510F503C511F518
:1009A00004C512F531EC86F00FC528F510C529F500
:1009B00011C52AF512C52BF5000E2C6E240E2D6ED6
:1009C000740E2E6E490E2F6E4DEC89F028C5ABF5D6
:1009D00029C5ACF52AC5ADF52BC5AEF5E10E05016F
:1009E000A16FFF0EA26FABC5A3F5ACC5A4F5ADC555
:1009F000A5F5AEC5A6F575EC90F0030E0201616F8A
:100A0000080E636F090E646F0A0E676F0B0E686F36
:100A1000000E0001D56F020ED86F030ED96F060EBF
:100A2000DA6F070EDB6F020EDC6F040EDD6F100E47
:100A3000DE6F400EDF6F800ED76F820ED66F010E15
:100A4000D56F020ED86F030ED96F060EDA6F070E40
:100A5000DB6F010EDC6F080EDD6F100EDE6F400ED7
:100A6000DF6F000ED76F820ED66F020ED56F000EAD
:100A7000D86F330ED96F7F0EDA6F7F0EDB6F010EEA
:100A8000DC6F080EDD6F100EDE6F400EDF6F000EA4
:100A9000D76F820ED66F550E0401596FAA0E596F8B
:100AA0005991080E5D6F000E5E6F000E5F6F550E60
:100AB000596FAA0E596F5981D68EBF8ACEB8FED70C
:100AC000D1C4BDF5D0C4BCF5CEA8FED70001D4A5D5
:100AD0008BD0BE9A0501BDBF32D0000EC96E000E8C
:100AE000C86EFE0EBC15A96F7F0EBD15AA6FE10E74
:100AF000A925F66E9F0EAA21F76EF86A000EF8225D
:100B00000800F5C4C1F4FE0EBC15A96F7F0EBD151B
:100B1000AA6F010EA927000EAA23E10EA925F66EE1
:100B20009F0EAA21F76EF86A000EF8220800F5C49D
:100B3000C0F4BE8ACEA0FED7C968C868BFD7BDAF13
:100B4000BDD7CEA224D0000EC96E000EC86EFE0E18
:100B5000BC15A96F0F0EBD15AA6F500EA925D96E31
:100B6000060EAA21DA6EDF50C16EFE0EBC15A96F0B
:100B70000F0EBD15AA6F510EA925D96E060EAA211A
:100B8000DA6EDF50C06EBE8ACEB0D6D7FDD7D2A205
:100B90000BD0FF0EBC15A96F0F0EBD15AA6F500E1E
:100BA000A925D96E060E18D0FE0EBC15A96F0F0E22
:100BB000BD15AA6F500EA925D96E060EAA21DA6EB0
:100BC000D1C4DFF4FE0EBC15A96F0F0EBD15AA6FC0
:100BD000510EA925D96E060EAA21DA6ED0C4DFF413
:100BE000BE8ACEB06BD7FDD7D4A368D7BE9ACEB29B
:100BF00012D0070E0501BC19BD11D8A408D0CEB083
:100C0000FED7D0C4C9F2BE8ACEB058D7FDD7BE8AAF
:100C1000CEB054D7FDD7000EC96E000EC86ECEB050
:100C2000FED7050E0501BC19BD11D8A40CD0B750D4
:100C3000030BAF6F010EAF6503D0AF510409AF6F67
:100C4000AFC5C0F40AD0070EBC19BD11D8A403D09B
:100C5000C7C2C0F402D0C068C168BE8ACEB06CD72B
:100C6000FDD71250800B1B6E12501224216E11BE44
:100C700021802150D8B40DD02128D8A408D0000E4E
:100C80000F6E000E106E000E116E000E126E118EA1
:100C900008D0000E0F6E000E106E000E116E000ECA
:100CA000126E1650800B1B1A165016241C6E15BEA1
:100CB0001C801C50D8B40DD01C28D8A408D0000E1D
:100CC000136E000E146E000E156E000E166E158E4D
:100CD00008D0000E136E000E146E000E156E000E7E
:100CE000166E1C50D8B403D02150D8A409D0000EE1
:100CF0000F6E000E106E000E116E000E126E1200BE
:100D000015500F02F3C426F5F4C427F526501D6EC6
:100D10001E6A1F6A206A2750226E236A246A256A87
:100D200014501002F3C426F5F4C427F526501D26EE
:100D3000000E1E221F22202227502226000E2322D0
:100D40002422252213501102F3C426F5F4C427F5FA
:100D500026501D26000E1E221F222022275022264A
:100D6000000E2322242225221FC520F51EC51FF5B3
:100D70001DC51EF51D6A13501002F3C426F5F4C4F8
:100D800027F526501D2627501E22000E1F22000E7A
:100D9000202214500F02F3C426F5F4C427F5265080
:100DA0001D2627501E22000E1F22000E20221FC5C6
:100DB00020F51EC51FF51DC51EF51D6A13500F0237
:100DC000F3C426F5F4C427F526501D2627501E220D
:100DD000000E1F22000E202215501002F3C426F52B
:100DE000F4C427F52650222627502322000E242261
:100DF000000E252214501102F3C426F5F4C427F581
:100E00002650222627502322000E2422000E2522BF
:100E100015501102F3C426F5F4C427F52650176EB9
:100E20002750186E196A1A6A19C51AF518C519F5E6
:100E300017C518F5176A1750222618502322195083
:100E400024221A50252220502226000E232224225A
:100E500025221FC520F51EC51FF51DC51EF51D6ADF
:100E60001C5021C517F5186A1726000E1822820E8D
:100E70001724266EFF0E1820276E0FD0D89022362A
:100E800023362436253620BE2280D8901D361E36C5
:100E90001F3620362606D8A0270624AEEFD7000E30
:100EA0001C6E20AE17D0FF0E1D14176EFF0E1E1401
:100EB000186EFF0E1F14196E7F0E20141A6E175035
:100EC000181019101A10D8B403D0010E1C6E02D0DD
:100ED00022B0FBD71C50D8B41FD0010E2226000E22
:100EE00023222422252225A017D022C517F523C5A9
:100EF00018F524C519F525C51AF51A341A32193210
:100F00001832173217C522F518C523F519C524F56F
:100F10001AC525F5264A272A27BE0DD0275003E1FA
:100F20002628D8A008D0000E226E000E236E800E58
:100F3000246E7F0E20D027BE05D027500EE1260458
:100F4000D8B00BD0000E226E000E236E000E246E61
:100F5000000E256E000E1B6E0FD026C521F5FF0E6C
:100F60002216FF0E23167F0E2416000E251621B022
:100F7000248ED8902130256E1B50251222C50FF5E6
:100F800023C510F524C511F525C512F5120004502E
:100F9000800B0D6E045004240F6E03BE0F800F50A3
:100FA000D8B40DD00F28D8A408D0000E016E000EC2
:100FB000026E000E036E000E046E038E06D0000E4D
:100FC000016E000E026E000E036E000E046E0850DD
:100FD000800B0E6E0D500E18D8A40D8C08500824EE
:100FE0000E6E07BE0E800E50D8B40DD00E28D8A4B9
:100FF00008D0000E056E000E066E000E076E000E85
:10100000086E078E06D0000E056E000E066E000EEE
:10101000076E000E086E0F500E5CD8B022D00DACDB
:1010200002D0800E0D1A0FC510F50EC50FF510C5B4
:101030000EF501C510F505C501F510C505F502C58C
:1010400010F506C502F510C506F503C510F507C570
:1010500003F510C507F504C510F508C504F510C55E
:1010600008F5000E106E0F500EC509F50A6A095EEC
:10107000000E0A5A0ABE2CD00A5004E11A0E095C6E
:10108000D8A026D00150021003100410D8B402D00A
:10109000010E01D0000E106E000E016E000E026EE9
:1010A000000E036E000E046E0EC50FF515D010A0D5
:1010B00005D0D89010300109106E02D0D8901032AF
:1010C00001B0108E043404320332023201320F2A8E
:1010D0000E500F5CD8A0EBD70DBC28D00F50D8A471
:1010E00009D0000E016E000E026E000E036E000E9F
:1010F000046E1200055001260650022207500322FA
:101100000850042204A071D010A005D0D89010304F
:101110000109106E02D0D890103201B0108E043444
:1011200004320332023201320F2A5FD00550015CD3
:1011300006500258075003580450800A096E0850A0
:10114000800A0958D8B025D00150055C096E0250BC
:1011500006580A6E035007580B6E045008580C6E60
:10116000FF0E0924016EFF0E0A20026EFF0E0B20F7
:10117000036EFF0E0C20046E800E0D1A106C1050C2
:10118000D8A40FD0010E0126000E02220322042251
:1011900008D00550015E0650025A0750035A085005
:1011A000045A0150021003100410D8A41CD010508F
:1011B000D8A419D0000E016E000E026E000E036E50
:1011C000000E046E1200D890013602360336043643
:1011D00010BE018010A002D0D88001D0D890103667
:1011E0000F50D8A40F0603AEEED7000E0E6E10AE51
:1011F0000BD010C509F57F0E0916D8B403D0010E27
:101200000E6E02D001B0FBD70E50D8B420D0010E24
:101210000126000E02220322042204A018D001C5D8
:1012200009F502C50AF503C50BF504C50CF50C3428
:101230000C320B320A32093209C501F50AC502F532
:101240000BC503F50CC504F50F28D8A40F2A0F28E9
:10125000D8B403D00F50D8A40DD0000E016E000EEC
:10126000026E000E036E000E046E0F50D8A402D062
:10127000000E0D6E0FA002D0038E01D0039ED890F9
:101280000F30046E0DBE048E01C501F502C502F5D6
:1012900003C503F504C504F512002B50800B386E0E
:1012A0002B502B243F6E2ABE3F803F50D8B40DD028
:1012B0003F28D8A408D0000E286E000E296E000E1C
:1012C0002A6E000E2B6E2A8E06D0000E286E000E9F
:1012D000296E000E2A6E000E2B6E2F50800B381ACE
:1012E0002F502F24406E2EBE40804050D8B40DD0D9
:1012F0004028D8A408D0000E2C6E000E2D6E000ED3
:101300002E6E000E2F6E2E8E06D0000E2C6E000E4E
:101310002D6E000E2E6E000E2F6E2C502D102E10E6
:101320002F10D8A417D0000E286E000E296E000EC4
:101330002A6E000E2B6E800E2A127F0E2B12385052
:101340002B1228C528F529C529F52AC52AF52BC54C
:101350002BF512003F50D8A409D0000E286E000EC5
:10136000296E000E2A6E000E2B6E120040503FC5F3
:1013700030F5316A305E000E315A7F0E3024396EFE
:10138000000E31203A6E28C534F529C535F52AC539
:1013900036F52BC537F5000E286E000E296E000EAF
:1013A0002A6E000E2B6E000E3B6E000E3C6E000E81
:1013B0003D6E000E3E6E000E406E28D04050D8B4F8
:1013C00011D0D8903436353636363736D890283660
:1013D00029362A362B363EBE2880D8903B363C36FE
:1013E0003D363E362C50345C2D5035582E503658F4
:1013F0002F503758D8A009D03E8C2C50345E2D5039
:10140000355A2E50365A2F50375A402A190E4064FA
:10141000D5D73450351036103710D8B411D03B80A2
:101420000FD0D890283629362A362B363EBE288053
:10143000D8903B363C363D363E363906D8A03A0683
:101440002AAEEFD7000E406E3EAE17D0FF0E3B1413
:10145000306EFF0E3C14316EFF0E3D14326E7F0E67
:101460003E14336E3050311032103310D8B403D0E4
:10147000010E406E02D028B0FBD74050D8B41FD028
:10148000010E2826000E29222A222B222BA017D05B
:1014900028C530F529C531F52AC532F52BC533F5F8
:1014A0003334333232323132303230C528F531C53F
:1014B00029F532C52AF533C52BF5394A3A2A3ABE01
:1014C00010D03A5003E13928D8A00BD0000E3A6E64
:1014D0003968000E286E000E296E000E2A6E000E6E
:1014E0002B6E3ABE05D03A5011E13904D8B00ED077
:1014F000000E3A6E000E396E000E286E000E296E38
:10150000000E2A6E000E2B6E000E386E39C53FF5A8
:101510003FA002D02A8E01D02A9ED8903F302B6E59
:101520000ED78EC5D9F48FC5DAF4DEC4F6F4DDC467
:10153000F7F4000EF86E0800F550250AD8A4EAD09A
:101540008EC5D9F48FC5DAF4DE2A000EDD22000E36
:10155000B96F000EB86FB8C5BEF5BA69BB698EC564
:1015600007F58FC508F590C509F591C50AF53EEC5C
:101570008EF007C5B8F508C5B9F50501B9AF05D0B6
:10158000BE81B86DB91FD8B0B92B8EC5D9F48FC53F
:10159000DAF4DEC4F6F4DDC4F7F4000EF86E0800E9
:1015A000F5502E0AD8A415D08EC5D9F48FC5DAF41B
:1015B000DE2A000EDD228EC507F58FC508F590C521
:1015C00009F591C50AF53EEC8EF007C5BAF508C5D8
:1015D000BBF58EC5D9F48FC5DAF4DEC497F5DDC44A
:1015E00098F597C5F6F498C5F7F4000EF86E080064
:1015F000F5C496F508D0974B982B18D06C0E01D0F7
:10160000000E966F13D0050196515E6E5F6A5F50B3
:10161000000AD8A4F5D75E504C0AD8B4ECD72A0AF1
:10162000D8B4ECD70A0AD8B4E6D7EAD797C5F6F407
:1016300098C5F7F4000EF86E0800F550660AD8B4A5
:101640001AD060D090C5D9F491C5DAF4DFC45EF544
:10165000040EDE26DFC45FF5000EDD225EC5D9F480
:101660005FC5DAF4DEC492F5DEC493F5DEC494F50A
:10167000DEC495F50ED096515E6E5F6A5F50000A2B
:10168000D8A407D05E504C0AD8B4DCD7200AD8B40E
:10169000D9D7010E97255E6E000E98215F6E8EC51C
:1016A000D9F48FC5DAF45EC5DEF45FC5DDF418D079
:1016B0008CC555F58DC556F592C557F593C558F5AA
:1016C00094C559F595C55AF597C5F6F498C5F7F43C
:1016D000000EF86E0800F5C45BF500EC80F0120017
:1016E00097C5F6F498C5F7F4000EF86E0800F550AB
:1016F0005E6E5F6A5F50000AD8A404D05E50660A2E
:10170000D8B4D6D78EC5D9F48FC5DAF4DE2A000E48
:10171000DD2212008EC5D9F48FC5DAF4DEC4F6F4EA
:10172000DDC4F7F4000EF86E0800F550026E036A8F
:101730008CC504F58DC505F59AEC8EF0E3D7B0C5E0
:1017400051F5B1C552F5B2C553F5B3C554F541C510
:1017500051F542C552F543C553F544C554F5810EC4
:10176000456EFF0E466E51C547F552C548F553C547
:1017700049F554C54AF5180E05D0D8904A32493279
:1017800048324732E82EF9D7475045244F6E000EB5
:101790004620506E50BE0FD0505004E1170E4F5CE3
:1017A000D8A009D041C541F542C542F543C543F52E
:1017B00044C544F5120050BE5BD04FC545F5FF0E41
:1017C000466EFF0E476E7F0E486E000E496E4566F0
:1017D00001D007D049344932483247324632452E8B
:1017E000F6D746C54BF547C54CF548C54DF549C537
:1017F0004EF54B505114456E4C505214466E4D50A0
:101800005314476E4E505414486E455046104710BE
:101810004810D8B4C7D751C545F552C546F553C58C
:1018200047F554C548F5200E05D0D89048324732C8
:1018300046324532E82EF9D74550D8B408D04B503F
:1018400051264C5052224D5053224E5054224B1C84
:10185000456E4C1C466E4D1C476E4E1C486E4550E6
:10186000511646505216475053164850541632D00F
:1018700051C545F552C546F553C547F554C548F51C
:10188000200E05D0D8904832473246324532E82EF5
:10189000F9D7456608D0000E516E000E526E000E4C
:1018A000536E000E16D0D8905134456E5234466EA9
:1018B0005334476E5434486E455046104710481014
:1018C000D8B408D0000E516E000E526E800E536ECA
:1018D000BF0E546E51C541F552C542F553C543F58F
:1018E00054C544F51200096E0950D8A404AE1AD0AC
:1018F00001C505F502C506F503C507F504C508F5DC
:10190000051E061E071E081E052A000E06220722B7
:10191000082205C50BF506C50CF507C50DF508C56C
:101920000EF508D001C50BF502C50CF503C50DF584
:1019300004C50EF50150021003100410D8A409D0FC
:10194000000E016E000E026E000E036E000E046E9D
:101950001200960E0A6E06D00A2AD8900E320D3268
:101960000C320B32000E0B14056E000E0C14066EBA
:10197000000E0D14076EFE0E0E14086E05500610B4
:1019800007100810D8B40DD0E7D70A2A010E0B268D
:10199000000E0C220D220E22D8900E320D320C3287
:1019A0000B32000E0B14056E000E0C14066E000EAA
:1019B0000D14076EFF0E0E14086E0550061007106A
:1019C0000810D8B407D0E1D70A06D8900B360C36E9
:1019D0000D360E360DBE03D0020E0A60F5D70AA0F2
:1019E0000D9ED8900A320AC505F5066A076A086A8C
:1019F00005C508F5076A066A056A05500B12065008
:101A00000C1207500D1208500E120950D8A404AE43
:101A100001D00E8E0BC501F50CC502F50DC503F501
:101A20000EC504F51200000E2814306E000E2914A5
:101A3000316E800E2A14326E7F0E2B14336E3050AE
:101A4000311032103310D8A408D0000E286E000ECA
:101A5000296E000E2A6E000E2B6E000E2C14306EB6
:101A6000000E2D14316E800E2E14326E7F0E2F1448
:101A7000336E3050311032103310D8A408D0000E1D
:101A80002C6E000E2D6E000E2E6E000E2F6E2BAEE5
:101A900009D0286C291ED8B0292A2A1ED8B02A2A93
:101AA000800E2B562FAE09D02C6C2D1ED8B02D2AAF
:101AB0002E1ED8B02E2A800E2F56000E281A000E89
:101AC000291A000E2A1A800E2B1A000E2C1A000E4C
:101AD0002D1A000E2E1A800E2F1A2C50285C2D5015
:101AE00029582E502A582F502B58D8B002D0D890B1
:101AF0001200D8801200B4C50BF5B5C50CF5B6C5FB
:101B00000DF5B7C50EF501C50BF502C50CF503C5FE
:101B10000DF504C50EF50BC505F50CC506F50DC58F
:101B200007F50EC508F5180E05D0D8900832073213
:101B300006320532E82EF9D70550096E0A6A0950B7
:101B40000A10D8A419D0D8900B34056E0C34066E48
:101B50000D34076E0E34086E05500610071008107D
:101B6000D8A405D0000E026E020E016E1200000E07
:101B7000026E030E016E120009280A10D8A41CD0B0
:101B80000BC505F50CC506F50DC507F50EC508F521
:101B9000090ED8900536063607360836E82EF9D7EE
:101BA0000550061007100810D8A402D0010E01D06D
:101BB000000E016E026A1200000E026E040E016E2B
:101BC0001200033404340A6E0A50D8A409D0000E5F
:101BD000016E000E026E000E036E000E046E120007
:101BE00001C505F502C506F503C507F504C508F5E9
:101BF000200E05D0D8900832073206320532E82E82
:101C0000F9D70550096E038EFF0E0116FF0E02165E
:101C1000FF0E0316000E0416960E0A5E0AAE0DD0D5
:101C20000A50800A970FD8A0D2D7D8900432033236
:101C3000023201320A3EF9D70DD01F0E0A6407D0D6
:101C4000C6D7D89001360236033604360A060A5043
:101C5000D8A4F7D70950D8B408D0041E031E021E1A
:101C6000016C000E02220322042201C501F502C507
:101C700002F503C503F504C504F51200000E0F6E4E
:101C8000000E0E6E07C5D9F408C5DAF4DEC4F6F40A
:101C9000DDC4F7F4000EF86E0800F5502A0AD8A447
:101CA00033D007C5D9F408C5DAF4DE2A000EDD22E8
:101CB00009C5D9F40AC5DAF4DFC40BF5020EDE2635
:101CC000DFC40CF5000EDD220BC5D9F40CC5DAF427
:101CD000DEC40EF5DDC40FF528D00EC501F50FC525
:101CE00002F5000E046E0A0E036E88EC90F00D50A3
:101CF00001240E6E000E02200F6E07C5D9F408C530
:101D0000DAF4DE2A000EDD2207C5D9F408C5DAF4BC
:101D1000DEC4F6F4DDC4F7F4000EF86E0800F550EA
:101D2000D00F0D6E090E0D64D8D70EC507F50FC57F
:101D300008F5120004500510D8B404D00450051062
:101D4000D8A404D002509BEC90F0120020EE0AF0D0
:101D50000450D9260550DA22DE50DE10D8B416D051
:101D600020EE0AF00450D9260550DA2210EE03F0D6
:101D70000450E1260550E222DE50E65CE650800A7F
:101D80000A6EDE50800A0A58D8B0120020EE03F026
:101D90000450D9260550DA22DEC406F5DDC407F565
:101DA00004C5D9F405C5DAF4DEC408F5DDC409F5C7
:101DB00006500824D96E07500920DA6E02C5DFF4F8
:101DC00020EE03F00450D9260550DA22DE2A000E58
:101DD000DD221200000E0114096E000E02140A6EBC
:101DE000800E03140B6E7F0E04140C6E09500A1043
:101DF0000B100C10D8A408D0000E016E000E026E5D
:101E0000000E036E000E046E000E0514096E000E27
:101E100006140A6E800E07140B6E7F0E08140C6EEB
:101E200009500A100B100C10D8A408D0000E056E33
:101E3000000E066E000E076E000E086E05500118AB
:101E40000AE10650021807E10750031804E10850A0
:101E50000418D8B402D0D8901200D8801200BEA1C5
:101E60000AD014C50BF515C50CF512C50DF513C533
:101E70000EF542EC90F017BE05D016C51BF517C540
:101E80001CF504D0000E1C6E000E1B6E000E1A6EA8
:101E9000000E196E0CD0000E036E200E026E12C5DD
:101EA00004F513C505F59AEC8EF0194A1A2A1B5051
:101EB000195C1A50800A186E1C50800A1858D8A055
:101EC000EAD70501BEB1120014C50BF515C50CF516
:101ED00012C50DF513C50EF542EC90F0120004BECC
:101EE00007D00450031002101DE10104D8B01AD02D
:101EF00001C505F502C506F503C507F504C508F5D6
:101F0000051E061E071E081E052A000E06220722B1
:101F1000082205C501F506C502F507C503F508C584
:101F200004F5120001C501F502C502F503C503F56C
:101F300004C504F512009BC59FF59CC5A0F50FD004
:101F400099C58CF59AC58DF59F0E05018E6F050E0E
:101F50008F6F9DC590F59EC591F591EC8AF09FC558
:101F6000F6F4A0C5F7F4000EF86E0800F55000096D
:101F7000D8A4E6D7000E05019A6F000E996F1200E3
:101F8000000E2C1A000E2D1A000E2E1A800E2F1A7B
:101F900028C501F529C502F52AC503F52BC504F5A9
:101FA0002CC505F52DC506F52EC507F52FC508F579
:101FB000C7EC87F001C528F502C529F503C52AF548
:101FC00004C52BF5120003C509F504C50AF501C5C2
:101FD00007F502C508F510D009C5D9F40AC5DAF429
:101FE000DF500B6E094A0A2A07C5D9F408C5DAF48E
:101FF0000BC5DFF4074A082A0506D8A006060528FF
:10200000EBE10628D8B41200E7D701EE50F214EE47
:1020100000F0EE6AE550E150FCE1E250FAE101EE39
:1020200000F2500EEE6AE806FDE101EEB0F10F0E8F
:10203000EE6AE806FDE10401080E5D6F000E5E6FBA
:10204000000E5F6F000155EF84F003C505F504C570
:1020500006F501C507F502C508F505C5F6F406C580
:10206000F7F4054A062A000EF86E07C5D9F408C52C
:10207000DAF4074A082A0800F5C4DFF4DF50D8B4C0
:102080001200EBD7000E116E000E106E0BD00FC5B4
:1020900002F5036A0DC504F50EC505F59AEC8EF040
:1020A000104A112A10500B24D96E11500C20DA6EF0
:1020B000DF500F6E0F50D8B41200E9D70150021054
:1020C00003100410D8B408D0000E011A000E021A32
:1020D000000E031A800E041A01C501F502C502F5AF
:1020E00003C503F504C504F51200A30EA76F050E82
:1020F000A86F000E996F000E9A6FA1C59BF5A2C53F
:102100009CF5A70E9D6F050E9E6F9BEC8FF0120045
:1021100001500302F3C405F5F4C406F501500402AE
:10212000F350062602500302F350062605C501F5BA
:1021300006C502F51200016EB7A2FED701C5C9F2AD
:0221400012008B
:02214400110088
:020000040020DA
:10000000FFFFFFFFFFFFFFFFFFFFFFFFFFFFFFFF00
:10001000FFFFFFFFFFFFFFFFFFFFFFFFFFFFFFFFF0
:10002000FFFFFFFFFFFFFFFFFFFFFFFFFFFFFFFFE0
:10003000FFFFFFFFFFFFFFFFFFFFFFFFFFFFFFFFD0
:020000040030CA
:080000008CFFFFF79FFFFFFFDB
:01000900FFF7
:00000001FF
